{
  "abi": [
    {
      "inputs": [
        {
          "internalType": "contract ISuperToken",
          "name": "cashToken",
          "type": "address"
        },
        {
          "internalType": "contract ISuperfluid",
          "name": "host",
          "type": "address"
        },
        {
          "internalType": "contract IInstantDistributionAgreementV1",
          "name": "ida",
          "type": "address"
        }
      ],
      "stateMutability": "nonpayable",
      "type": "constructor"
    },
    {
      "anonymous": false,
      "inputs": [
        {
          "indexed": true,
          "internalType": "address",
          "name": "previousOwner",
          "type": "address"
        },
        {
          "indexed": true,
          "internalType": "address",
          "name": "newOwner",
          "type": "address"
        }
      ],
      "name": "OwnershipTransferred",
      "type": "event"
    },
    {
      "inputs": [],
      "name": "ONE_TIME_INDEX",
      "outputs": [
        {
          "internalType": "uint32",
          "name": "",
          "type": "uint32"
        }
      ],
      "stateMutability": "view",
      "type": "function"
    },
    {
      "inputs": [
        {
          "internalType": "address",
          "name": "_company",
          "type": "address"
        },
        {
          "internalType": "address",
          "name": "recipient",
          "type": "address"
        }
      ],
      "name": "_addAddressToIndex",
      "outputs": [],
      "stateMutability": "nonpayable",
      "type": "function"
    },
    {
      "inputs": [
        {
          "internalType": "address",
          "name": "_keeper",
          "type": "address"
        }
      ],
      "name": "addAdmin",
      "outputs": [],
      "stateMutability": "nonpayable",
      "type": "function"
    },
    {
      "inputs": [
        {
          "internalType": "address",
          "name": "_trust",
          "type": "address"
        }
      ],
      "name": "addIdaContract",
      "outputs": [],
      "stateMutability": "nonpayable",
      "type": "function"
    },
    {
      "inputs": [
        {
          "internalType": "contract ISuperToken",
          "name": "superToken",
          "type": "address"
        },
        {
          "internalType": "address",
          "name": "",
          "type": "address"
        },
        {
          "internalType": "bytes32",
          "name": "agreementId",
          "type": "bytes32"
        },
        {
          "internalType": "bytes",
          "name": "",
          "type": "bytes"
        },
        {
          "internalType": "bytes",
          "name": "",
          "type": "bytes"
        },
        {
          "internalType": "bytes",
          "name": "_ctx",
          "type": "bytes"
        }
      ],
      "name": "afterAgreementCreated",
      "outputs": [
        {
          "internalType": "bytes",
          "name": "newCtx",
          "type": "bytes"
        }
      ],
      "stateMutability": "nonpayable",
      "type": "function"
    },
    {
      "inputs": [
        {
          "internalType": "contract ISuperToken",
          "name": "",
          "type": "address"
        },
        {
          "internalType": "address",
          "name": "",
          "type": "address"
        },
        {
          "internalType": "bytes32",
          "name": "",
          "type": "bytes32"
        },
        {
          "internalType": "bytes",
          "name": "",
          "type": "bytes"
        },
        {
          "internalType": "bytes",
          "name": "",
          "type": "bytes"
        },
        {
          "internalType": "bytes",
          "name": "",
          "type": "bytes"
        }
      ],
      "name": "afterAgreementTerminated",
      "outputs": [
        {
          "internalType": "bytes",
          "name": "",
          "type": "bytes"
        }
      ],
      "stateMutability": "nonpayable",
      "type": "function"
    },
    {
      "inputs": [
        {
          "internalType": "contract ISuperToken",
          "name": "superToken",
          "type": "address"
        },
        {
          "internalType": "address",
          "name": "",
          "type": "address"
        },
        {
          "internalType": "bytes32",
          "name": "agreementId",
          "type": "bytes32"
        },
        {
          "internalType": "bytes",
          "name": "",
          "type": "bytes"
        },
        {
          "internalType": "bytes",
          "name": "",
          "type": "bytes"
        },
        {
          "internalType": "bytes",
          "name": "_ctx",
          "type": "bytes"
        }
      ],
      "name": "afterAgreementUpdated",
      "outputs": [
        {
          "internalType": "bytes",
          "name": "newCtx",
          "type": "bytes"
        }
      ],
      "stateMutability": "nonpayable",
      "type": "function"
    },
    {
      "inputs": [
        {
          "internalType": "uint256",
          "name": "",
          "type": "uint256"
        }
      ],
      "name": "amountTodistribute",
      "outputs": [
        {
          "internalType": "uint256",
          "name": "",
          "type": "uint256"
        }
      ],
      "stateMutability": "view",
      "type": "function"
    },
    {
      "inputs": [
        {
          "internalType": "contract ISuperToken",
          "name": "",
          "type": "address"
        },
        {
          "internalType": "address",
          "name": "",
          "type": "address"
        },
        {
          "internalType": "bytes32",
          "name": "",
          "type": "bytes32"
        },
        {
          "internalType": "bytes",
          "name": "",
          "type": "bytes"
        },
        {
          "internalType": "bytes",
          "name": "",
          "type": "bytes"
        }
      ],
      "name": "beforeAgreementCreated",
      "outputs": [
        {
          "internalType": "bytes",
          "name": "",
          "type": "bytes"
        }
      ],
      "stateMutability": "view",
      "type": "function"
    },
    {
      "inputs": [
        {
          "internalType": "contract ISuperToken",
          "name": "",
          "type": "address"
        },
        {
          "internalType": "address",
          "name": "",
          "type": "address"
        },
        {
          "internalType": "bytes32",
          "name": "",
          "type": "bytes32"
        },
        {
          "internalType": "bytes",
          "name": "",
          "type": "bytes"
        },
        {
          "internalType": "bytes",
          "name": "",
          "type": "bytes"
        }
      ],
      "name": "beforeAgreementTerminated",
      "outputs": [
        {
          "internalType": "bytes",
          "name": "",
          "type": "bytes"
        }
      ],
      "stateMutability": "view",
      "type": "function"
    },
    {
      "inputs": [
        {
          "internalType": "contract ISuperToken",
          "name": "superToken",
          "type": "address"
        },
        {
          "internalType": "address",
          "name": "agreementClass",
          "type": "address"
        },
        {
          "internalType": "bytes32",
          "name": "",
          "type": "bytes32"
        },
        {
          "internalType": "bytes",
          "name": "",
          "type": "bytes"
        },
        {
          "internalType": "bytes",
          "name": "",
          "type": "bytes"
        }
      ],
      "name": "beforeAgreementUpdated",
      "outputs": [
        {
          "internalType": "bytes",
          "name": "data",
          "type": "bytes"
        }
      ],
      "stateMutability": "view",
      "type": "function"
    },
    {
      "inputs": [
        {
          "internalType": "uint256",
          "name": "cashAmount",
          "type": "uint256"
        },
        {
          "internalType": "uint32",
          "name": "_index",
          "type": "uint32"
        }
      ],
      "name": "distribute",
      "outputs": [],
      "stateMutability": "nonpayable",
      "type": "function"
    },
    {
      "inputs": [
        {
          "internalType": "address",
          "name": "",
          "type": "address"
        }
      ],
      "name": "isSubscribing",
      "outputs": [
        {
          "internalType": "bool",
          "name": "",
          "type": "bool"
        }
      ],
      "stateMutability": "view",
      "type": "function"
    },
    {
      "inputs": [],
      "name": "keeper",
      "outputs": [
        {
          "internalType": "address",
          "name": "",
          "type": "address"
        }
      ],
      "stateMutability": "view",
      "type": "function"
    },
    {
      "inputs": [
        {
          "internalType": "address[]",
          "name": "_addresses",
          "type": "address[]"
        },
        {
          "internalType": "uint256[]",
          "name": "_amounts",
          "type": "uint256[]"
        },
        {
          "internalType": "uint256",
          "name": "_timeFromNow",
          "type": "uint256"
        }
      ],
      "name": "makeOnetimebatch",
      "outputs": [],
      "stateMutability": "nonpayable",
      "type": "function"
    },
    {
      "inputs": [],
      "name": "owner",
      "outputs": [
        {
          "internalType": "address",
          "name": "",
          "type": "address"
        }
      ],
      "stateMutability": "view",
      "type": "function"
    },
    {
      "inputs": [
        {
          "internalType": "address",
          "name": "_company",
          "type": "address"
        },
        {
          "internalType": "address",
          "name": "_employee",
          "type": "address"
        }
      ],
      "name": "removeAddress",
      "outputs": [],
      "stateMutability": "nonpayable",
      "type": "function"
    },
    {
      "inputs": [],
      "name": "renounceOwnership",
      "outputs": [],
      "stateMutability": "nonpayable",
      "type": "function"
    },
    {
      "inputs": [
        {
          "internalType": "uint256",
          "name": "",
          "type": "uint256"
        }
      ],
      "name": "timeStampDistributable",
      "outputs": [
        {
          "internalType": "bool",
          "name": "isDistributable",
          "type": "bool"
        }
      ],
      "stateMutability": "view",
      "type": "function"
    },
    {
      "inputs": [
        {
          "internalType": "address",
          "name": "newOwner",
          "type": "address"
        }
      ],
      "name": "transferOwnership",
      "outputs": [],
      "stateMutability": "nonpayable",
      "type": "function"
    },
    {
      "inputs": [],
      "name": "trusContract",
      "outputs": [
        {
          "internalType": "contract ITrust",
          "name": "",
          "type": "address"
        }
      ],
      "stateMutability": "view",
      "type": "function"
    },
    {
      "inputs": [
        {
          "internalType": "uint256",
          "name": "_time",
          "type": "uint256"
        }
      ],
      "name": "viewTimestamp",
      "outputs": [
        {
          "internalType": "bool",
          "name": "",
          "type": "bool"
        }
      ],
      "stateMutability": "view",
      "type": "function"
    }
  ],
  "bytecode": {
    "object": "0x60806040523480156200001157600080fd5b50604051620022e7380380620022e783398101604081905262000034916200014a565b6200003f33620000e1565b600180546001600160a01b038581166001600160a01b03199283161790925560028054858416908316811790915560038054938516939092169290921790556040516315a722b960e31b815264300000000160048201819052919063ad3915c890602401600060405180830381600087803b158015620000be57600080fd5b505af1158015620000d3573d6000803e3d6000fd5b50505050505050506200019e565b600080546001600160a01b038381166001600160a01b0319831681178455604051919092169283917f8be0079c531659141344cd1fd0a4f28419497f9722a3daafe3b4186f6b6457e09190a35050565b6001600160a01b03811681146200014757600080fd5b50565b6000806000606084860312156200016057600080fd5b83516200016d8162000131565b6020850151909350620001808162000131565b6040850151909250620001938162000131565b809150509250925092565b61213980620001ae6000396000f3fe608060405234801561001057600080fd5b50600436106101425760003560e01c80638da5cb5b116100b8578063c0c3ffa61161007c578063c0c3ffa6146102d8578063d4d4a6c2146102fb578063d86ed3e51461015c578063ede4668c14610329578063f097f4fd1461033c578063f2fde38b1461034f57600080fd5b80638da5cb5b14610257578063915e33641461027c57806392d23cc01461029f578063aced1661146102b2578063b6fac15a146102c557600080fd5b80635262d3b91161010a5780635262d3b9146101de57806353c11f99146102035780635f9e7d77146102165780637048027514610229578063715018a61461023c578063884d1f401461024457600080fd5b80631253d6cf14610147578063230dbd291461015c578063302bf0141461018557806330d9c915146101b85780633a278733146101cb575b600080fd5b61015a61015536600461175e565b610362565b005b61016f61016a3660046117eb565b6104e7565b60405161017c919061190d565b60405180910390f35b6101a8610193366004611927565b60096020526000908152604090205460ff1681565b604051901515815260200161017c565b61016f6101c6366004611940565b61053a565b61015a6101d9366004611afe565b6105a2565b6008546101ee9063ffffffff1681565b60405163ffffffff909116815260200161017c565b61016f6102113660046117eb565b610af6565b61016f610224366004611940565b610b5b565b61015a610237366004611bc8565b610bc2565b61015a610bec565b61016f610252366004611940565b610c00565b6000546001600160a01b03165b6040516001600160a01b03909116815260200161017c565b6101a861028a366004611bc8565b60076020526000908152604090205460ff1681565b61015a6102ad366004611be5565b610cd8565b600554610264906001600160a01b031681565b61015a6102d3366004611be5565b6111e4565b6101a86102e6366004611927565b60009081526009602052604090205460ff1690565b61031b610309366004611927565b60066020526000908152604090205481565b60405190815260200161017c565b61015a610337366004611bc8565b611391565b600454610264906001600160a01b031681565b61015a61035d366004611bc8565b6113bb565b61036a611434565b600354600154604051632266eabb60e21b81526001600160a01b03918216600482015230602482015263ffffffff8416604482015260648101859052600092919091169063899baaec906084016040805180830381865afa1580156103d3573d6000803e3d6000fd5b505050506040513d601f19601f820116820180604052508101906103f79190611c2f565b506002546003546001546040805160008152602081019091529394506001600160a01b03928316936339255d5b9392831692635cb398e160e11b92610446929116908890889060448101611c5b565b60408051601f19818403018152918152602080830180516001600160e01b03166001600160e01b03199586161790528151600081529081019182905260e086901b909316905261049a929160248101611c98565b6000604051808303816000875af11580156104b9573d6000803e3d6000fd5b505050506040513d6000823e601f3d908101601f191682016040526104e19190810190611d39565b50505050565b60606104f58a84848b61148e565b82828080601f016020809104026020016040519081016040528093929190818152602001838380828437600092019190915250929d9c50505050505050505050505050565b60405162461bcd60e51b815260206004820152602f60248201527f556e737570706f727465642063616c6c6261636b202d204265666f726520416760448201526e1c99595b595b9d0810dc99585d1959608a1b60648201526060906084015b60405180910390fd5b825160006105b08342611d83565b600081815260096020526040812080549293509160ff16151590036108bc576002546003546001546040805160008152602081019091526001600160a01b03938416936339255d5b93811692636bc3c20560e11b926106189290911690889060448101611d9b565b60408051601f19818403018152918152602080830180516001600160e01b03166001600160e01b03199586161790528151600081529081019182905260e086901b909316905261066c929160248101611c98565b6000604051808303816000875af115801561068b573d6000803e3d6000fd5b505050506040513d6000823e601f3d908101601f191682016040526106b39190810190611d39565b5060005b838110156108b65760025460035460015489516001600160a01b03938416936339255d5b93811692630465a56b60e31b9291169088908d90889081106106ff576106ff611dd4565b60200260200101518c888151811061071957610719611dd4565b602002602001015160006001600160401b0381111561073a5761073a6119de565b6040519080825280601f01601f191660200182016040528015610764576020820181803683370190505b50604051602401610779959493929190611dea565b60408051601f19818403018152918152602080830180516001600160e01b03166001600160e01b03199586161790528151600081529081019182905260e086901b90931690526107cd929160248101611c98565b6000604051808303816000875af11580156107ec573d6000803e3d6000fd5b505050506040513d6000823e601f3d908101601f191682016040526108149190810190611d39565b5085818151811061082757610827611dd4565b60200260200101516006600085815260200190815260200160002060008282546108519190611d83565b9091555050604080518082018252600180825260208083018b8152600088815260098352949094208351815460ff19169015151781559351805193949361089f938501929190910190611692565b5090505080806108ae90611e34565b9150506106b7565b50610aee565b60005b83811015610ad35760025460035460015489516001600160a01b03938416936339255d5b93811692630465a56b60e31b9291169088908d908890811061090757610907611dd4565b60200260200101518c888151811061092157610921611dd4565b602002602001015160006001600160401b03811115610942576109426119de565b6040519080825280601f01601f19166020018201604052801561096c576020820181803683370190505b50604051602401610981959493929190611dea565b60408051601f19818403018152918152602080830180516001600160e01b03166001600160e01b03199586161790528151600081529081019182905260e086901b90931690526109d5929160248101611c98565b6000604051808303816000875af11580156109f4573d6000803e3d6000fd5b505050506040513d6000823e601f3d908101601f19168201604052610a1c9190810190611d39565b50858181518110610a2f57610a2f611dd4565b6020026020010151600660008581526020019081526020016000206000828254610a599190611d83565b909155505060008381526009602052604090208751600190910190889083908110610a8657610a86611dd4565b60209081029190910181015182546001810184556000938452919092200180546001600160a01b0319166001600160a01b0390921691909117905580610acb81611e34565b9150506108bf565b506000828152600960205260409020805460ff191660011790555b505050505050565b60405162461bcd60e51b815260206004820152603160248201527f556e737570706f727465642063616c6c6261636b202d2041667465722041677260448201527019595b595b9d0815195c9b5a5b985d1959607a1b6064820152606090608401610599565b60405162461bcd60e51b815260206004820152603360248201527f556e737570706f727465642063616c6c6261636b202d20204265666f7265204160448201527219dc99595b595b9d0815195c9b5a5b985d1959606a1b6064820152606090608401610599565b610bca611434565b600580546001600160a01b0319166001600160a01b0392909216919091179055565b610bf4611434565b610bfe6000611642565b565b6001546060906001600160a01b03898116911614610c605760405162461bcd60e51b815260206004820152601b60248201527f4452543a20556e737570706f72746564206361736820746f6b656e00000000006044820152606401610599565b6003546001600160a01b03888116911614610cbd5760405162461bcd60e51b815260206004820152601a60248201527f4452543a20556e737570706f727465642061677265656d656e740000000000006044820152606401610599565b50506040805160008152602081019091529695505050505050565b610ce0611434565b6004805460405163038a28b560e31b81526001600160a01b0385811693820193909352838316602482015260009290911690631c5145a89060440161012060405180830381865afa158015610d39573d6000803e3d6000fd5b505050506040513d601f19601f82011682018060405250810190610d5d9190611e5d565b9050600081606001518260400151610d759190611d83565b600081815260096020526040812080549293509160ff1615159003611071576002546003546001546040805160008152602081019091526001600160a01b03938416936339255d5b93811692636bc3c20560e11b92610ddd9290911690889060448101611d9b565b60408051601f19818403018152918152602080830180516001600160e01b03166001600160e01b03199586161790528151600081529081019182905260e086901b9093169052610e31929160248101611c98565b6000604051808303816000875af1158015610e50573d6000803e3d6000fd5b505050506040513d6000823e601f3d908101601f19168201604052610e789190810190611d39565b50600254600354600154602086810151604080516000815292830190526001600160a01b03948516946339255d5b94811693630465a56b60e31b93610eca93929091169189918c919060448101611ef0565b60408051601f19818403018152918152602080830180516001600160e01b03166001600160e01b03199586161790528151600081529081019182905260e086901b9093169052610f1e929160248101611c98565b6000604051808303816000875af1158015610f3d573d6000803e3d6000fd5b505050506040513d6000823e601f3d908101601f19168201604052610f659190810190611d39565b508260200151600660008481526020019081526020016000206000828254610f8d9190611d83565b9091555050600181810180548083018255600082815260209081902090910180546001600160a01b0319166001600160a01b03891617905560408051808201825293845282548151818402810184019092528082529293928383019285919083018282801561102557602002820191906000526020600020905b81546001600160a01b03168152600190910190602001808311611007575b50505091909252505060008481526009602090815260409091208251815460ff1916901515178155828201518051919261106792600185019290910190611692565b50905050506111dd565b600254600354600154602086810151604080516000815292830190526001600160a01b03948516946339255d5b94811693630465a56b60e31b936110c293929091169189918c919060448101611ef0565b60408051601f19818403018152918152602080830180516001600160e01b03166001600160e01b03199586161790528151600081529081019182905260e086901b9093169052611116929160248101611c98565b6000604051808303816000875af1158015611135573d6000803e3d6000fd5b505050506040513d6000823e601f3d908101601f1916820160405261115d9190810190611d39565b5082602001516006600084815260200190815260200160002060008282546111859190611d83565b90915550506001818101805480830182556000828152602080822090920180546001600160a01b0319166001600160a01b038a16179055858152600990915260409020815491926111da9291019083906116f7565b50505b5050505050565b6111ec611434565b6004805460405163038a28b560e31b81526001600160a01b0385811693820193909352838316602482015260009290911690631c5145a89060440161012060405180830381865afa158015611245573d6000803e3d6000fd5b505050506040513d601f19601f820116820180604052508101906112699190611e5d565b90506000816060015182604001516112819190611d83565b600081815260096020526040902080549192509060ff1615156001036111dd57814210156111dd57600254600354600154604080516000808252602082019092526001600160a01b03948516946339255d5b94811693630465a56b60e31b936112f693929091169189918c9160448101611ef0565b60408051601f19818403018152918152602080830180516001600160e01b03166001600160e01b03199586161790528151600081529081019182905260e086901b909316905261134a929160248101611c98565b6000604051808303816000875af1158015611369573d6000803e3d6000fd5b505050506040513d6000823e601f3d908101601f19168201604052610aee9190810190611d39565b611399611434565b600480546001600160a01b0319166001600160a01b0392909216919091179055565b6113c3611434565b6001600160a01b0381166114285760405162461bcd60e51b815260206004820152602660248201527f4f776e61626c653a206e6577206f776e657220697320746865207a65726f206160448201526564647265737360d01b6064820152608401610599565b61143181611642565b50565b6000546001600160a01b03163314610bfe5760405162461bcd60e51b815260206004820181905260248201527f4f776e61626c653a2063616c6c6572206973206e6f7420746865206f776e65726044820152606401610599565b600254604051631fb6491d60e11b81526000916001600160a01b031690633f6c923a906114c19087908790600401611f37565b600060405180830381865afa1580156114de573d6000803e3d6000fd5b505050506040513d6000823e601f3d908101601f191682016040526115069190810190611f9a565b60808101519091506001600160e01b031916632985ac9f60e11b016111dd5760035460405163cd7245c560e01b81526001600160a01b03878116600483015260248201859052600092839283928392839291169063cd7245c59060440160a060405180830381865afa158015611580573d6000803e3d6000fd5b505050506040513d601f19601f820116820180604052508101906115a491906120a0565b9398509196509450925090506001600160a01b03851630146116085760405162461bcd60e51b815260206004820152601760248201527f4452543a207075626c6973686572206d69736d617463680000000000000000006044820152606401610599565b82156116365760608601516001600160a01b03166000908152600760205260409020805460ff191660011790555b50505050505050505050565b600080546001600160a01b038381166001600160a01b0319831681178455604051919092169283917f8be0079c531659141344cd1fd0a4f28419497f9722a3daafe3b4186f6b6457e09190a35050565b8280548282559060005260206000209081019282156116e7579160200282015b828111156116e757825182546001600160a01b0319166001600160a01b039091161782556020909201916001909101906116b2565b506116f3929150611737565b5090565b8280548282559060005260206000209081019282156116e75760005260206000209182015b828111156116e757825482559160010191906001019061171c565b5b808211156116f35760008155600101611738565b63ffffffff8116811461143157600080fd5b6000806040838503121561177157600080fd5b8235915060208301356117838161174c565b809150509250929050565b6001600160a01b038116811461143157600080fd5b60008083601f8401126117b557600080fd5b5081356001600160401b038111156117cc57600080fd5b6020830191508360208285010111156117e457600080fd5b9250929050565b600080600080600080600080600060c08a8c03121561180957600080fd5b89356118148161178e565b985060208a01356118248161178e565b975060408a0135965060608a01356001600160401b038082111561184757600080fd5b6118538d838e016117a3565b909850965060808c013591508082111561186c57600080fd5b6118788d838e016117a3565b909650945060a08c013591508082111561189157600080fd5b5061189e8c828d016117a3565b915080935050809150509295985092959850929598565b60005b838110156118d05781810151838201526020016118b8565b838111156104e15750506000910152565b600081518084526118f98160208601602086016118b5565b601f01601f19169290920160200192915050565b60208152600061192060208301846118e1565b9392505050565b60006020828403121561193957600080fd5b5035919050565b600080600080600080600060a0888a03121561195b57600080fd5b87356119668161178e565b965060208801356119768161178e565b95506040880135945060608801356001600160401b038082111561199957600080fd5b6119a58b838c016117a3565b909650945060808a01359150808211156119be57600080fd5b506119cb8a828b016117a3565b989b979a50959850939692959293505050565b634e487b7160e01b600052604160045260246000fd5b60405161012081016001600160401b0381118282101715611a1757611a176119de565b60405290565b60405161016081016001600160401b0381118282101715611a1757611a176119de565b604051601f8201601f191681016001600160401b0381118282101715611a6857611a686119de565b604052919050565b60006001600160401b03821115611a8957611a896119de565b5060051b60200190565b600082601f830112611aa457600080fd5b81356020611ab9611ab483611a70565b611a40565b82815260059290921b84018101918181019086841115611ad857600080fd5b8286015b84811015611af35780358352918301918301611adc565b509695505050505050565b600080600060608486031215611b1357600080fd5b83356001600160401b0380821115611b2a57600080fd5b818601915086601f830112611b3e57600080fd5b81356020611b4e611ab483611a70565b82815260059290921b8401810191818101908a841115611b6d57600080fd5b948201945b83861015611b94578535611b858161178e565b82529482019490820190611b72565b97505087013592505080821115611baa57600080fd5b50611bb786828701611a93565b925050604084013590509250925092565b600060208284031215611bda57600080fd5b81356119208161178e565b60008060408385031215611bf857600080fd5b8235611c038161178e565b915060208301356117838161178e565b80516001600160801b0381168114611c2a57600080fd5b919050565b60008060408385031215611c4257600080fd5b82519150611c5260208401611c13565b90509250929050565b60018060a01b038516815263ffffffff84166020820152826040820152608060608201526000611c8e60808301846118e1565b9695505050505050565b6001600160a01b0384168152606060208201819052600090611cbc908301856118e1565b8281036040840152611c8e81856118e1565b600082601f830112611cdf57600080fd5b81516001600160401b03811115611cf857611cf86119de565b611d0b601f8201601f1916602001611a40565b818152846020838601011115611d2057600080fd5b611d318260208301602087016118b5565b949350505050565b600060208284031215611d4b57600080fd5b81516001600160401b03811115611d6157600080fd5b611d3184828501611cce565b634e487b7160e01b600052601160045260246000fd5b60008219821115611d9657611d96611d6d565b500190565b6001600160a01b038416815263ffffffff83166020820152606060408201819052600090611dcb908301846118e1565b95945050505050565b634e487b7160e01b600052603260045260246000fd5b6001600160a01b03868116825263ffffffff86166020830152841660408201526060810183905260a060808201819052600090611e29908301846118e1565b979650505050505050565b600060018201611e4657611e46611d6d565b5060010190565b80518015158114611c2a57600080fd5b60006101208284031215611e7057600080fd5b611e786119f4565b611e8183611e4d565b81526020830151602082015260408301516040820152606083015160608201526080830151608082015260a083015160a0820152611ec160c08401611e4d565b60c0820152611ed260e08401611e4d565b60e0820152610100611ee5818501611e4d565b908201529392505050565b6001600160a01b03868116825263ffffffff86166020830152841660408201526001600160801b038316606082015260a060808201819052600090611e29908301846118e1565b60208152816020820152818360408301376000818301604090810191909152601f909201601f19160101919050565b805160ff81168114611c2a57600080fd5b8051611c2a8161178e565b80516001600160e01b031981168114611c2a57600080fd5b600060208284031215611fac57600080fd5b81516001600160401b0380821115611fc357600080fd5b908301906101608286031215611fd857600080fd5b611fe0611a1d565b611fe983611f66565b8152611ff760208401611f66565b60208201526040830151604082015261201260608401611f77565b606082015261202360808401611f82565b608082015260a08301518281111561203a57600080fd5b61204687828601611cce565b60a08301525060c083015160c082015260e083015160e082015261010091508183015182820152610120915061207d828401611f77565b828201526101409150612091828401611f77565b91810191909152949350505050565b600080600080600060a086880312156120b857600080fd5b85516120c38161178e565b60208701519095506120d48161174c565b93506120e260408701611e4d565b92506120f060608701611c13565b915060808601519050929550929590935056fea26469706673582212200458f4b95c60806634e26c71d2a3ab956467849932859a5e15ae393dc6cd1dd964736f6c634300080f0033",
    "linkReferences": {}
  },
  "methodIdentifiers": {
    "ONE_TIME_INDEX()": "5262d3b9",
    "_addAddressToIndex(address,address)": "92d23cc0",
    "addAdmin(address)": "70480275",
    "addIdaContract(address)": "ede4668c",
    "afterAgreementCreated(address,address,bytes32,bytes,bytes,bytes)": "d86ed3e5",
    "afterAgreementTerminated(address,address,bytes32,bytes,bytes,bytes)": "53c11f99",
    "afterAgreementUpdated(address,address,bytes32,bytes,bytes,bytes)": "230dbd29",
    "amountTodistribute(uint256)": "d4d4a6c2",
    "beforeAgreementCreated(address,address,bytes32,bytes,bytes)": "30d9c915",
    "beforeAgreementTerminated(address,address,bytes32,bytes,bytes)": "5f9e7d77",
    "beforeAgreementUpdated(address,address,bytes32,bytes,bytes)": "884d1f40",
    "distribute(uint256,uint32)": "1253d6cf",
    "isSubscribing(address)": "915e3364",
    "keeper()": "aced1661",
    "makeOnetimebatch(address[],uint256[],uint256)": "3a278733",
    "owner()": "8da5cb5b",
    "removeAddress(address,address)": "b6fac15a",
    "renounceOwnership()": "715018a6",
    "timeStampDistributable(uint256)": "302bf014",
    "transferOwnership(address)": "f2fde38b",
    "trusContract()": "f097f4fd",
    "viewTimestamp(uint256)": "c0c3ffa6"
  },
  "id": 29
}