{
  "abi": [
    {
      "inputs": [
        {
          "internalType": "address",
          "name": "host",
          "type": "address"
        },
        {
          "internalType": "address",
          "name": "cfa",
          "type": "address"
        }
      ],
      "stateMutability": "nonpayable",
      "type": "constructor"
    },
    {
      "inputs": [],
      "name": "Emploee__not_in__List",
      "type": "error"
    },
    {
      "anonymous": false,
      "inputs": [
        {
          "indexed": true,
          "internalType": "address",
          "name": "_sender",
          "type": "address"
        },
        {
          "indexed": true,
          "internalType": "uint256",
          "name": "_amount",
          "type": "uint256"
        }
      ],
      "name": "MakePayment",
      "type": "event"
    },
    {
      "anonymous": false,
      "inputs": [
        {
          "indexed": true,
          "internalType": "address",
          "name": "previousOwner",
          "type": "address"
        },
        {
          "indexed": true,
          "internalType": "address",
          "name": "newOwner",
          "type": "address"
        }
      ],
      "name": "OwnershipTransferred",
      "type": "event"
    },
    {
      "inputs": [
        {
          "internalType": "address",
          "name": "_employeeAddress",
          "type": "address"
        },
        {
          "internalType": "uint256",
          "name": "_salary",
          "type": "uint256"
        },
        {
          "internalType": "uint256",
          "name": "_paymentInterval",
          "type": "uint256"
        },
        {
          "internalType": "uint256",
          "name": "_endOfContract",
          "type": "uint256"
        },
        {
          "internalType": "uint256",
          "name": "_payType",
          "type": "uint256"
        }
      ],
      "name": "_addemployee",
      "outputs": [],
      "stateMutability": "nonpayable",
      "type": "function"
    },
    {
      "inputs": [
        {
          "internalType": "address",
          "name": "_employer",
          "type": "address"
        }
      ],
      "name": "_completeUpdate",
      "outputs": [],
      "stateMutability": "nonpayable",
      "type": "function"
    },
    {
      "inputs": [
        {
          "internalType": "uint8",
          "name": "_payType",
          "type": "uint8"
        }
      ],
      "name": "_createCompany",
      "outputs": [],
      "stateMutability": "nonpayable",
      "type": "function"
    },
    {
      "inputs": [
        {
          "internalType": "address[]",
          "name": "_employees",
          "type": "address[]"
        },
        {
          "internalType": "int96[]",
          "name": "_amounts",
          "type": "int96[]"
        }
      ],
      "name": "_prepareStreamUpdate",
      "outputs": [],
      "stateMutability": "nonpayable",
      "type": "function"
    },
    {
      "inputs": [
        {
          "internalType": "address",
          "name": "_keeper",
          "type": "address"
        }
      ],
      "name": "addAdmin",
      "outputs": [],
      "stateMutability": "nonpayable",
      "type": "function"
    },
    {
      "inputs": [
        {
          "internalType": "address",
          "name": "_idaCon",
          "type": "address"
        }
      ],
      "name": "addIdaContract",
      "outputs": [],
      "stateMutability": "nonpayable",
      "type": "function"
    },
    {
      "inputs": [
        {
          "internalType": "address",
          "name": "_address",
          "type": "address"
        }
      ],
      "name": "addUserContract",
      "outputs": [],
      "stateMutability": "nonpayable",
      "type": "function"
    },
    {
      "inputs": [
        {
          "internalType": "address",
          "name": "_to",
          "type": "address"
        }
      ],
      "name": "closeStream",
      "outputs": [],
      "stateMutability": "nonpayable",
      "type": "function"
    },
    {
      "inputs": [
        {
          "internalType": "address",
          "name": "",
          "type": "address"
        },
        {
          "internalType": "uint256",
          "name": "",
          "type": "uint256"
        },
        {
          "internalType": "address",
          "name": "",
          "type": "address"
        }
      ],
      "name": "companyOneTimePayIdAddressAmount",
      "outputs": [
        {
          "internalType": "uint256",
          "name": "",
          "type": "uint256"
        }
      ],
      "stateMutability": "view",
      "type": "function"
    },
    {
      "inputs": [
        {
          "internalType": "address",
          "name": "_employee",
          "type": "address"
        }
      ],
      "name": "getEmployeeEmployers",
      "outputs": [
        {
          "internalType": "address[]",
          "name": "",
          "type": "address[]"
        }
      ],
      "stateMutability": "view",
      "type": "function"
    },
    {
      "inputs": [
        {
          "internalType": "address",
          "name": "_company",
          "type": "address"
        },
        {
          "internalType": "address",
          "name": "_employee",
          "type": "address"
        }
      ],
      "name": "getEmployeeFlowRate",
      "outputs": [
        {
          "internalType": "int96",
          "name": "",
          "type": "int96"
        }
      ],
      "stateMutability": "view",
      "type": "function"
    },
    {
      "inputs": [
        {
          "internalType": "address",
          "name": "_employee",
          "type": "address"
        }
      ],
      "name": "getEmployeeIndex",
      "outputs": [
        {
          "internalType": "uint256",
          "name": "index",
          "type": "uint256"
        }
      ],
      "stateMutability": "view",
      "type": "function"
    },
    {
      "inputs": [
        {
          "internalType": "address",
          "name": "_employee",
          "type": "address"
        }
      ],
      "name": "getNetFlow",
      "outputs": [
        {
          "internalType": "int96",
          "name": "",
          "type": "int96"
        }
      ],
      "stateMutability": "view",
      "type": "function"
    },
    {
      "inputs": [],
      "name": "getPeriodicEmployee",
      "outputs": [
        {
          "internalType": "uint256",
          "name": "len",
          "type": "uint256"
        }
      ],
      "stateMutability": "view",
      "type": "function"
    },
    {
      "inputs": [
        {
          "internalType": "address",
          "name": "_company",
          "type": "address"
        }
      ],
      "name": "getTotalCompanyEmployees",
      "outputs": [
        {
          "internalType": "uint256",
          "name": "",
          "type": "uint256"
        }
      ],
      "stateMutability": "view",
      "type": "function"
    },
    {
      "inputs": [
        {
          "internalType": "address",
          "name": "_company",
          "type": "address"
        }
      ],
      "name": "getTotalPaying",
      "outputs": [
        {
          "internalType": "uint256",
          "name": "",
          "type": "uint256"
        }
      ],
      "stateMutability": "view",
      "type": "function"
    },
    {
      "inputs": [
        {
          "internalType": "address",
          "name": "_employer",
          "type": "address"
        }
      ],
      "name": "getUpdateables",
      "outputs": [
        {
          "components": [
            {
              "internalType": "bool",
              "name": "isUpdatable",
              "type": "bool"
            },
            {
              "internalType": "address[]",
              "name": "_addresses",
              "type": "address[]"
            },
            {
              "internalType": "int96[]",
              "name": "_updates",
              "type": "int96[]"
            }
          ],
          "internalType": "struct TrustCFA.Updateables",
          "name": "_updates",
          "type": "tuple"
        }
      ],
      "stateMutability": "view",
      "type": "function"
    },
    {
      "inputs": [
        {
          "internalType": "address",
          "name": "_companyAddress",
          "type": "address"
        }
      ],
      "name": "isActiveCompany",
      "outputs": [
        {
          "internalType": "bool",
          "name": "",
          "type": "bool"
        }
      ],
      "stateMutability": "view",
      "type": "function"
    },
    {
      "inputs": [],
      "name": "makePayment",
      "outputs": [],
      "stateMutability": "nonpayable",
      "type": "function"
    },
    {
      "inputs": [
        {
          "internalType": "address",
          "name": "",
          "type": "address"
        }
      ],
      "name": "oneTimeUserTotalPay",
      "outputs": [
        {
          "internalType": "uint256",
          "name": "",
          "type": "uint256"
        }
      ],
      "stateMutability": "view",
      "type": "function"
    },
    {
      "inputs": [
        {
          "internalType": "address",
          "name": "_to",
          "type": "address"
        },
        {
          "internalType": "int96",
          "name": "_flowRate",
          "type": "int96"
        }
      ],
      "name": "openStream",
      "outputs": [],
      "stateMutability": "nonpayable",
      "type": "function"
    },
    {
      "inputs": [],
      "name": "owner",
      "outputs": [
        {
          "internalType": "address",
          "name": "",
          "type": "address"
        }
      ],
      "stateMutability": "view",
      "type": "function"
    },
    {
      "inputs": [
        {
          "internalType": "address",
          "name": "to",
          "type": "address"
        },
        {
          "internalType": "int96",
          "name": "flowRate",
          "type": "int96"
        }
      ],
      "name": "reduceFlow",
      "outputs": [],
      "stateMutability": "nonpayable",
      "type": "function"
    },
    {
      "inputs": [
        {
          "internalType": "address",
          "name": "_employee",
          "type": "address"
        }
      ],
      "name": "removeEmployee",
      "outputs": [],
      "stateMutability": "nonpayable",
      "type": "function"
    },
    {
      "inputs": [],
      "name": "renounceOwnership",
      "outputs": [],
      "stateMutability": "nonpayable",
      "type": "function"
    },
    {
      "inputs": [
        {
          "internalType": "string",
          "name": "",
          "type": "string"
        }
      ],
      "name": "s_assetAddress",
      "outputs": [
        {
          "internalType": "address",
          "name": "",
          "type": "address"
        }
      ],
      "stateMutability": "view",
      "type": "function"
    },
    {
      "inputs": [
        {
          "internalType": "address",
          "name": "",
          "type": "address"
        },
        {
          "internalType": "uint256",
          "name": "",
          "type": "uint256"
        }
      ],
      "name": "s_companyEmployees",
      "outputs": [
        {
          "internalType": "address",
          "name": "",
          "type": "address"
        }
      ],
      "stateMutability": "view",
      "type": "function"
    },
    {
      "inputs": [
        {
          "internalType": "address",
          "name": "",
          "type": "address"
        }
      ],
      "name": "s_companyInfo",
      "outputs": [
        {
          "internalType": "address",
          "name": "_address",
          "type": "address"
        },
        {
          "internalType": "bool",
          "name": "status",
          "type": "bool"
        },
        {
          "internalType": "bool",
          "name": "payingInstram",
          "type": "bool"
        },
        {
          "internalType": "bool",
          "name": "payingPeriodically",
          "type": "bool"
        },
        {
          "internalType": "bool",
          "name": "payingOneTime",
          "type": "bool"
        },
        {
          "internalType": "uint256",
          "name": "totalPaying",
          "type": "uint256"
        },
        {
          "internalType": "uint256",
          "name": "totalperiodicPaid",
          "type": "uint256"
        },
        {
          "internalType": "uint256",
          "name": "streamStart",
          "type": "uint256"
        }
      ],
      "stateMutability": "view",
      "type": "function"
    },
    {
      "inputs": [
        {
          "internalType": "address",
          "name": "newOwner",
          "type": "address"
        }
      ],
      "name": "transferOwnership",
      "outputs": [],
      "stateMutability": "nonpayable",
      "type": "function"
    },
    {
      "inputs": [
        {
          "internalType": "address",
          "name": "_company",
          "type": "address"
        }
      ],
      "name": "viewCompanyEmployees",
      "outputs": [
        {
          "internalType": "address[]",
          "name": "fullList",
          "type": "address[]"
        }
      ],
      "stateMutability": "view",
      "type": "function"
    },
    {
      "inputs": [
        {
          "internalType": "address",
          "name": "_company",
          "type": "address"
        }
      ],
      "name": "viewCompanyInfo",
      "outputs": [
        {
          "components": [
            {
              "internalType": "address",
              "name": "_address",
              "type": "address"
            },
            {
              "internalType": "bool",
              "name": "status",
              "type": "bool"
            },
            {
              "internalType": "bool",
              "name": "payingInstram",
              "type": "bool"
            },
            {
              "internalType": "bool",
              "name": "payingPeriodically",
              "type": "bool"
            },
            {
              "internalType": "bool",
              "name": "payingOneTime",
              "type": "bool"
            },
            {
              "internalType": "uint256",
              "name": "totalPaying",
              "type": "uint256"
            },
            {
              "internalType": "uint256",
              "name": "totalperiodicPaid",
              "type": "uint256"
            },
            {
              "internalType": "uint256",
              "name": "streamStart",
              "type": "uint256"
            }
          ],
          "internalType": "struct TrustCFA.Company",
          "name": "",
          "type": "tuple"
        }
      ],
      "stateMutability": "view",
      "type": "function"
    },
    {
      "inputs": [
        {
          "internalType": "address",
          "name": "_company",
          "type": "address"
        },
        {
          "internalType": "address",
          "name": "_employee",
          "type": "address"
        }
      ],
      "name": "viewEmployeeInfo",
      "outputs": [
        {
          "components": [
            {
              "internalType": "bool",
              "name": "isActive",
              "type": "bool"
            },
            {
              "internalType": "uint256",
              "name": "monthlyIncome",
              "type": "uint256"
            },
            {
              "internalType": "uint256",
              "name": "startTime",
              "type": "uint256"
            },
            {
              "internalType": "uint256",
              "name": "paymentInterval",
              "type": "uint256"
            },
            {
              "internalType": "uint256",
              "name": "endTime",
              "type": "uint256"
            },
            {
              "internalType": "uint256",
              "name": "totalpaid",
              "type": "uint256"
            },
            {
              "internalType": "bool",
              "name": "isStreamed",
              "type": "bool"
            },
            {
              "internalType": "bool",
              "name": "isPeriodic",
              "type": "bool"
            },
            {
              "internalType": "bool",
              "name": "isOneTime",
              "type": "bool"
            }
          ],
          "internalType": "struct TrustCFA.EmployeeInfo",
          "name": "",
          "type": "tuple"
        }
      ],
      "stateMutability": "view",
      "type": "function"
    }
  ],
  "bytecode": {
    "object": "0x60806040523480156200001157600080fd5b50604051620025da380380620025da8339810160408190526200003491620000de565b6200003f3362000071565b600280546001600160a01b039384166001600160a01b0319918216179091556001805492909316911617905562000116565b600080546001600160a01b038381166001600160a01b0319831681178455604051919092169283917f8be0079c531659141344cd1fd0a4f28419497f9722a3daafe3b4186f6b6457e09190a35050565b80516001600160a01b0381168114620000d957600080fd5b919050565b60008060408385031215620000f257600080fd5b620000fd83620000c1565b91506200010d60208401620000c1565b90509250929050565b6124b480620001266000396000f3fe608060405234801561001057600080fd5b50600436106101ef5760003560e01c8063a2bae4af1161010f578063e3f20180116100a2578063f97f266b11610071578063f97f266b1461073b578063fcb835751461075b578063fda9d6c51461078c578063ff4b39ae1461079f57600080fd5b8063e3f201801461064c578063ede4668c14610702578063edfdda8814610715578063f2fde38b1461072857600080fd5b8063d108177a116100de578063d108177a14610527578063d8d797001461060b578063de4b9e9314610613578063de64815c1461062657600080fd5b8063a2bae4af146104d0578063a6d6f37f146104d8578063d0c68a4c146104eb578063d0e8bfcc1461051457600080fd5b80638b54e09d116101875780639850811611610156578063985081161461039857806399a8906a146103ab5780639d5800ce146103be5780639eea3ede146104b057600080fd5b80638b54e09d1461030a5780638be1e996146103485780638c2229be146103745780638da5cb5b1461038757600080fd5b806370480275116101c357806370480275146102aa578063715018a6146102dc578063724e60ef146102e45780638752f83f146102f757600080fd5b8062776919146101f45780630ef4790a1461021d578063126d7b92146102695780631c5145a81461028a575b600080fd5b610207610202366004611c84565b6107b2565b6040516102149190611ca6565b60405180910390f35b61025161022b366004611d62565b80516020818301810180516005825292820191909301209152546001600160a01b031681565b6040516001600160a01b039091168152602001610214565b61027c610277366004611c84565b610828565b604051908152602001610214565b61029d610298366004611de2565b6108a7565b6040516102149190611e15565b6102da6102b8366004611c84565b600f80546001600160a01b0319166001600160a01b0392909216919091179055565b005b6102da6109a1565b6102da6102f2366004611e87565b6109b5565b6102da610305366004611c84565b610e65565b610338610318366004611c84565b6001600160a01b0390811660009081526008602052604090205416151590565b6040519015158152602001610214565b61027c610356366004611c84565b6001600160a01b031660009081526008602052604090206001015490565b6102da610382366004611c84565b610ee5565b6000546001600160a01b0316610251565b6102da6103a6366004611f6b565b610f0f565b6102516103b936600461202b565b6110a9565b6104a36103cc366004611c84565b6040805161010081018252600080825260208201819052918101829052606081018290526080810182905260a0810182905260c0810182905260e0810191909152506001600160a01b039081166000908152600860209081526040918290208251610100810184528154948516815260ff600160a01b86048116151593820193909352600160a81b85048316151593810193909352600160b01b8404821615156060840152600160b81b9093041615156080820152600182015460a0820152600282015460c082015260039091015460e082015290565b6040516102149190612055565b61027c6104be366004611c84565b600d6020526000908152604090205481565b600b5461027c565b6102da6104e63660046120c4565b6110e1565b61027c6104f9366004611c84565b6001600160a01b031660009081526007602052604090205490565b6102da6105223660046120e7565b61138a565b6102da610535366004611c84565b604080516101208101825260008082526020808301828152838501838152606085018481526080860185815260a0870186815260c0880187815260e08901888152610100808b018a8152338b52600e8a528c8b206001600160a01b039e909e168b529c909852999097209751885460ff191690151517885593516001880155915160028701555160038601555160048501555160058401559051600690920180549351945161ffff1990941692151561ff00191692909217931515029290921762ff000019166201000091151591909102179055565b6102da6113af565b6102da610621366004611c84565b611571565b610639610634366004611de2565b611592565b604051600b9190910b8152602001610214565b6106b561065a366004611c84565b60086020526000908152604090208054600182015460028301546003909301546001600160a01b0383169360ff600160a01b8504811694600160a81b8104821694600160b01b8204831694600160b81b909204909216929088565b604080516001600160a01b03909916895296151560208901529415159587019590955291151560608601521515608085015260a084015260c083019190915260e082015261010001610214565b6102da610710366004611c84565b6115d8565b610639610723366004611c84565b611602565b6102da610736366004611c84565b61168f565b61074e610749366004611c84565b611705565b604051610214919061215c565b61027c6107693660046121de565b600660209081526000938452604080852082529284528284209052825290205481565b6102da61079a3660046120e7565b61183b565b6102076107ad366004611c84565b61185c565b6001600160a01b03811660009081526007602090815260409182902080548351818402810184019094528084526060939283018282801561081c57602002820191906000526020600020905b81546001600160a01b031681526001909101906020018083116107fe575b50505050509050919050565b3360009081526007602052604081205460005b818111156108a05733600090815260076020526040902080546001600160a01b0386169190839081106108705761087061221a565b6000918252602090912001546001600160a01b03160361088e578092505b8061089881612246565b91505061083b565b5050919050565b6108fe60405180610120016040528060001515815260200160008152602001600081526020016000815260200160008152602001600081526020016000151581526020016000151581526020016000151581525090565b506001600160a01b039182166000908152600e60209081526040808320939094168252918252829020825161012081018452815460ff908116151582526001830154938201939093526002820154938101939093526003810154606084015260048101546080840152600581015460a084015260060154808216151560c08401526101008082048316151560e08501526201000090910490911615159082015290565b6109a96118d0565b6109b3600061192a565b565b3360009081526008602052604090208054600160a01b900460ff161515600114610a135760405162461bcd60e51b815260206004820152600a6024820152696e6f742061637469766560b01b60448201526064015b60405180910390fd5b81600003610c1c576040518061012001604052806000151581526020018681526020014281526020018581526020018481526020016000815260200160011515815260200160001515815260200160001515815250600e6000336001600160a01b03166001600160a01b031681526020019081526020016000206000886001600160a01b03166001600160a01b0316815260200190815260200160002060008201518160000160006101000a81548160ff0219169083151502179055506020820151816001015560408201518160020155606082015181600301556080820151816004015560a0820151816005015560c08201518160060160006101000a81548160ff02191690831515021790555060e08201518160060160016101000a81548160ff0219169083151502179055506101008201518160060160026101000a81548160ff0219169083151502179055509050508460086000336001600160a01b03166001600160a01b031681526020019081526020016000206001016000828254610b9e919061225f565b9091555050336000908152600760209081526040822080546001818101835591845291832090910180546001600160a01b038a166001600160a01b03199182168117909255600c805493840181559093527fdf6966c971051c3d54ec59162606531493a51404a002842f56009d7e5cf4a8c790910180549092161790555b81600103610e25576040518061012001604052806000151581526020018681526020014281526020018581526020018481526020016000815260200160001515815260200160011515815260200160001515815250600e6000336001600160a01b03166001600160a01b031681526020019081526020016000206000886001600160a01b03166001600160a01b0316815260200190815260200160002060008201518160000160006101000a81548160ff0219169083151502179055506020820151816001015560408201518160020155606082015181600301556080820151816004015560a0820151816005015560c08201518160060160006101000a81548160ff02191690831515021790555060e08201518160060160016101000a81548160ff0219169083151502179055506101008201518160060160026101000a81548160ff0219169083151502179055509050508460086000336001600160a01b03166001600160a01b031681526020019081526020016000206001016000828254610da7919061225f565b9091555050336000908152600760209081526040822080546001818101835591845291832090910180546001600160a01b038a166001600160a01b03199182168117909255600b805493840181559093527f0175b7a638427703f0dbe7bb9bbf987a2551717b34e79f33b5b1008d1fa01db990910180549092161790555b5050506001600160a01b039092166000908152600a602090815260408220805460018101825590835291200180546001600160a01b031916331790555050565b6040805160608082018352600080835260208084018381528486018490526001600160a01b038716835260098252949091208351815460ff19169015151781559351805192948594939092610ec1926001850192910190611b3c565b5060408201518051610edd916002840191602090910190611ba1565b505050505050565b610eed6118d0565b601080546001600160a01b0319166001600160a01b0392909216919091179055565b8051825114610f4d5760405162461bcd60e51b815260206004820152600a6024820152696172726179732021657160b01b6044820152606401610a0a565b80513360009081526007602052604090205480821115610f6c57600080fd5b6000805b83811015611008576000868281518110610f8c57610f8c61221a565b6020026020010151905060005b84811015610ffe5733600090815260076020526040902080546001600160a01b038416919083908110610fce57610fce61221a565b6000918252602090912001546001600160a01b031603610ff657610ff360018561225f565b93505b600101610f99565b5050600101610f70565b5082810361108657604080516060810182526001808252602080830189815283850189905233600090815260098352949094208351815460ff191690151517815593518051939493611061938501929190910190611b3c565b506040820151805161107d916002840191602090910190611ba1565b509050506110a2565b604051600162d149c360e01b0319815260040160405180910390fd5b5050505050565b600760205281600052604060002081815481106110c557600080fd5b6000918252602090912001546001600160a01b03169150829050565b8060ff166000036111c857604080516101008101825233808252600160208084018281528486018381526000606087018181526080880182815260a0890183815260c08a0184815260e08b018581529985526008909752999092209751885494519351915192511515600160b81b0260ff60b81b19931515600160b01b0260ff60b01b19931515600160a81b029390931661ffff60a81b19951515600160a01b026001600160a81b03199097166001600160a01b03939093169290921795909517939093169290921791909117161784559351908301559151600282015590516003909101555b8060ff166001036112ae57604080516101008101825233808252600160208084018281526000858701818152606087018581526080880183815260a0890184815260c08a0185815260e08b018681529986526008909752999093209751885494519251915193511515600160b81b0260ff60b81b19941515600160b01b0260ff60b01b19931515600160a81b029390931661ffff60a81b19941515600160a01b026001600160a81b03199097166001600160a01b039390931692909217959095179290921691909117171617845593519083015591516002820155905160039091015550565b604080516101008101825233808252600160208084018281526000858701818152606087018281526080880186815260a0890184815260c08a0185815260e08b018681529986526008909752999093209751885494519251915193511515600160b81b0260ff60b81b19941515600160b01b0260ff60b01b19931515600160a81b029390931661ffff60a81b19941515600160a01b026001600160a81b03199097166001600160a01b03939093169290921795909517929092169190911717161784559351908301559151600282015590516003909101555b50565b6010546001600160a01b031633146113a157600080fd5b6113ab828261197a565b5050565b33600090815260076020526040902054806113c957600080fd5b6003546004543360008181526008602052604081206001015490936001600160a01b03908116936323b872dd93929116906040516001600160e01b031960e086901b1681526001600160a01b03938416600482015292909116602483015260448201526064016020604051808303816000875af115801561144e573d6000803e3d6000fd5b505050506040513d601f19601f820116820180604052508101906114729190612277565b9050806114b35760405162461bcd60e51b815260206004820152600f60248201526e1d1c985b9cd9995c8819985a5b1959608a1b6044820152606401610a0a565b60005b8281101561156c573360009081526007602052604081208054839081106114df576114df61221a565b6000918252602090912001546004805460405163024b48f360e61b815233928101929092526001600160a01b0392831660248301819052935091909116906392d23cc090604401600060405180830381600087803b15801561154057600080fd5b505af1158015611554573d6000803e3d6000fd5b5050505050808061156490612246565b9150506114b6565b505050565b6010546001600160a01b0316331461158857600080fd5b6113873082611a99565b6001600160a01b038083166000908152600e60209081526040808320938516835292905290812060010154816115cb62278d0083612299565b9050805b95945050505050565b6115e06118d0565b600480546001600160a01b0319166001600160a01b0392909216919091179055565b600154600354604051631cd43d1160e31b81526001600160a01b03918216600482015230602482015283821660448201526000928392169063e6a1e88890606401608060405180830381865afa158015611660573d6000803e3d6000fd5b505050506040513d601f19601f8201168201806040525081019061168491906122bb565b509095945050505050565b6116976118d0565b6001600160a01b0381166116fc5760405162461bcd60e51b815260206004820152602660248201527f4f776e61626c653a206e6577206f776e657220697320746865207a65726f206160448201526564647265737360d01b6064820152608401610a0a565b6113878161192a565b61172b604051806060016040528060001515815260200160608152602001606081525090565b6001600160a01b0382166000908152600960209081526040918290208251606081018452815460ff1615158152600182018054855181860281018601909652808652919492938581019392908301828280156117b057602002820191906000526020600020905b81546001600160a01b03168152600190910190602001808311611792575b505050505081526020016002820180548060200260200160405190810160405280929190818152602001828054801561182b57602002820191906000526020600020906000905b825461010083900a9004600b0b815260206017830181900493840193600103600c9093019290920291018084116117f75790505b5050505050815250509050919050565b6010546001600160a01b0316331461185257600080fd5b6113ab8282611ae4565b6001600160a01b0381166000908152600a602090815260409182902080548351818402810184019094528084526060939283018282801561081c576020028201919060005260206000209081546001600160a01b031681526001909101906020018083116107fe5750505050509050919050565b6000546001600160a01b031633146109b35760405162461bcd60e51b815260206004820181905260248201527f4f776e61626c653a2063616c6c6572206973206e6f7420746865206f776e65726044820152606401610a0a565b600080546001600160a01b038381166001600160a01b0319831681178455604051919092169283917f8be0079c531659141344cd1fd0a4f28419497f9722a3daafe3b4186f6b6457e09190a35050565b6001600160a01b03821630148061199857506001600160a01b038216155b156119a1575050565b6002546001546003546001600160a01b03928316926339255d5b9281169163317e182f60e11b9116868660005b6040519080825280601f01601f1916602001820160405280156119f8576020820181803683370190505b50604051602401611a0c9493929190612355565b60408051601f198184030181529181526020820180516001600160e01b03166001600160e01b03199485161790525160e085901b9092168252611a529291600401612395565b6000604051808303816000875af1158015611a71573d6000803e3d6000fd5b505050506040513d6000823e601f3d908101601f1916820160405261156c91908101906123dc565b6002546001546003546040805160008152602081019091526001600160a01b03938416936339255d5b93811692635a5999e360e11b92611a0c9290911690889088906044810161244a565b6001600160a01b038216301480611b0257506001600160a01b038216155b15611b0b575050565b6002546001546003546001600160a01b03928316926339255d5b928116916328104d3160e11b9116868660006119ce565b828054828255906000526020600020908101928215611b91579160200282015b82811115611b9157825182546001600160a01b0319166001600160a01b03909116178255602090920191600190910190611b5c565b50611b9d929150611c53565b5090565b82805482825590600052602060002090600101600290048101928215611b915791602002820160005b83821115611c1757835183826101000a8154816001600160601b030219169083600b0b6001600160601b031602179055509260200192600c01602081600b01049283019260010302611bca565b8015611c4a5782816101000a8154906001600160601b030219169055600c01602081600b01049283019260010302611c17565b5050611b9d9291505b5b80821115611b9d5760008155600101611c54565b80356001600160a01b0381168114611c7f57600080fd5b919050565b600060208284031215611c9657600080fd5b611c9f82611c68565b9392505050565b6020808252825182820181905260009190848201906040850190845b81811015611ce75783516001600160a01b031683529284019291840191600101611cc2565b50909695505050505050565b634e487b7160e01b600052604160045260246000fd5b604051601f8201601f1916810167ffffffffffffffff81118282101715611d3257611d32611cf3565b604052919050565b600067ffffffffffffffff821115611d5457611d54611cf3565b50601f01601f191660200190565b600060208284031215611d7457600080fd5b813567ffffffffffffffff811115611d8b57600080fd5b8201601f81018413611d9c57600080fd5b8035611daf611daa82611d3a565b611d09565b818152856020838501011115611dc457600080fd5b81602084016020830137600091810160200191909152949350505050565b60008060408385031215611df557600080fd5b611dfe83611c68565b9150611e0c60208401611c68565b90509250929050565b6000610120820190508251151582526020830151602083015260408301516040830152606083015160608301526080830151608083015260a083015160a083015260c0830151151560c083015260e0830151611e7560e084018215159052565b50610100928301511515919092015290565b600080600080600060a08688031215611e9f57600080fd5b611ea886611c68565b97602087013597506040870135966060810135965060800135945092505050565b600067ffffffffffffffff821115611ee357611ee3611cf3565b5060051b60200190565b80600b0b811461138757600080fd5b600082601f830112611f0d57600080fd5b81356020611f1d611daa83611ec9565b82815260059290921b84018101918181019086841115611f3c57600080fd5b8286015b84811015611f60578035611f5381611eed565b8352918301918301611f40565b509695505050505050565b60008060408385031215611f7e57600080fd5b823567ffffffffffffffff80821115611f9657600080fd5b818501915085601f830112611faa57600080fd5b81356020611fba611daa83611ec9565b82815260059290921b84018101918181019089841115611fd957600080fd5b948201945b83861015611ffe57611fef86611c68565b82529482019490820190611fde565b9650508601359250508082111561201457600080fd5b5061202185828601611efc565b9150509250929050565b6000806040838503121561203e57600080fd5b61204783611c68565b946020939093013593505050565b81516001600160a01b0316815260208083015115159082015260408083015115159082015260608083015115159082015260808083015161010083019161209f9084018215159052565b5060a083015160a083015260c083015160c083015260e083015160e083015292915050565b6000602082840312156120d657600080fd5b813560ff81168114611c9f57600080fd5b600080604083850312156120fa57600080fd5b61210383611c68565b9150602083013561211381611eed565b809150509250929050565b600081518084526020808501945080840160005b83811015612151578151600b0b87529582019590820190600101612132565b509495945050505050565b60208082528251151582820152828101516060604084015280516080840181905260009291820190839060a08601905b808310156121b55783516001600160a01b0316825292840192600192909201919084019061218c565b506040870151868203601f1901606088015293506121d3818561211e565b979650505050505050565b6000806000606084860312156121f357600080fd5b6121fc84611c68565b92506020840135915061221160408501611c68565b90509250925092565b634e487b7160e01b600052603260045260246000fd5b634e487b7160e01b600052601160045260246000fd5b60006001820161225857612258612230565b5060010190565b6000821982111561227257612272612230565b500190565b60006020828403121561228957600080fd5b81518015158114611c9f57600080fd5b6000826122b657634e487b7160e01b600052601260045260246000fd5b500490565b600080600080608085870312156122d157600080fd5b8451935060208501516122e381611eed565b6040860151606090960151949790965092505050565b60005b838110156123145781810151838201526020016122fc565b83811115612323576000848401525b50505050565b600081518084526123418160208601602086016122f9565b601f01601f19169290920160200192915050565b6001600160a01b03858116825284166020820152600b83900b604082015260806060820181905260009061238b90830184612329565b9695505050505050565b6001600160a01b03831681526060602082018190526000906123b990830184612329565b8281036040938401526002815261060f60f31b6020820152919091019392505050565b6000602082840312156123ee57600080fd5b815167ffffffffffffffff81111561240557600080fd5b8201601f8101841361241657600080fd5b8051612424611daa82611d3a565b81815285602083850101111561243957600080fd5b6115cf8260208301602086016122f9565b6001600160a01b03858116825284811660208301528316604082015260806060820181905260009061238b9083018461232956fea2646970667358221220588c963fa3ea80627373c028c622954e2731d4b44c0868396a5389b6cc932a4564736f6c634300080f0033",
    "linkReferences": {}
  },
  "methodIdentifiers": {
    "_addemployee(address,uint256,uint256,uint256,uint256)": "724e60ef",
    "_completeUpdate(address)": "8752f83f",
    "_createCompany(uint8)": "a6d6f37f",
    "_prepareStreamUpdate(address[],int96[])": "98508116",
    "addAdmin(address)": "70480275",
    "addIdaContract(address)": "ede4668c",
    "addUserContract(address)": "8c2229be",
    "closeStream(address)": "de4b9e93",
    "companyOneTimePayIdAddressAmount(address,uint256,address)": "fcb83575",
    "getEmployeeEmployers(address)": "ff4b39ae",
    "getEmployeeFlowRate(address,address)": "de64815c",
    "getEmployeeIndex(address)": "126d7b92",
    "getNetFlow(address)": "edfdda88",
    "getPeriodicEmployee()": "a2bae4af",
    "getTotalCompanyEmployees(address)": "d0c68a4c",
    "getTotalPaying(address)": "8be1e996",
    "getUpdateables(address)": "f97f266b",
    "isActiveCompany(address)": "8b54e09d",
    "makePayment()": "d8d79700",
    "oneTimeUserTotalPay(address)": "9eea3ede",
    "openStream(address,int96)": "d0e8bfcc",
    "owner()": "8da5cb5b",
    "reduceFlow(address,int96)": "fda9d6c5",
    "removeEmployee(address)": "d108177a",
    "renounceOwnership()": "715018a6",
    "s_assetAddress(string)": "0ef4790a",
    "s_companyEmployees(address,uint256)": "99a8906a",
    "s_companyInfo(address)": "e3f20180",
    "transferOwnership(address)": "f2fde38b",
    "viewCompanyEmployees(address)": "00776919",
    "viewCompanyInfo(address)": "9d5800ce",
    "viewEmployeeInfo(address,address)": "1c5145a8"
  },
  "id": 19
}