{
  "abi": [
    {
      "inputs": [
        {
          "internalType": "address",
          "name": "_trustContract",
          "type": "address"
        },
        {
          "internalType": "address",
          "name": "_trustIda",
          "type": "address"
        }
      ],
      "stateMutability": "nonpayable",
      "type": "constructor"
    },
    {
      "inputs": [
        {
          "internalType": "bytes",
          "name": "",
          "type": "bytes"
        }
      ],
      "name": "checkUpkeep",
      "outputs": [
        {
          "internalType": "bool",
          "name": "upkeepNeeded",
          "type": "bool"
        },
        {
          "internalType": "bytes",
          "name": "performData",
          "type": "bytes"
        }
      ],
      "stateMutability": "view",
      "type": "function"
    },
    {
      "inputs": [
        {
          "internalType": "bytes",
          "name": "performData",
          "type": "bytes"
        }
      ],
      "name": "performUpkeep",
      "outputs": [],
      "stateMutability": "nonpayable",
      "type": "function"
    }
  ],
  "bytecode": {
    "object": "0x608060405234801561001057600080fd5b5060405161048038038061048083398101604081905261002f916100ce565b600180546001600160a01b038381166001600160a01b031992831617909255600080549285169290911682179055604051637048027560e01b8152306004820152637048027590602401600060405180830381600087803b15801561009357600080fd5b505af11580156100a7573d6000803e3d6000fd5b505050505050610101565b80516001600160a01b03811681146100c957600080fd5b919050565b600080604083850312156100e157600080fd5b6100ea836100b2565b91506100f8602084016100b2565b90509250929050565b610370806101106000396000f3fe608060405234801561001057600080fd5b50600436106100365760003560e01c80634585e33b1461003b5780636e04ff0d14610050575b600080fd5b61004e61004936600461020e565b61007a565b005b61006361005e36600461020e565b61016c565b604051610071929190610280565b60405180910390f35b6000610088828401846102df565b600154604051636a6a536160e11b8152600481018390529192506000916001600160a01b039091169063d4d4a6c290602401602060405180830381865afa1580156100d7573d6000803e3d6000fd5b505050506040513d601f19601f820116820180604052508101906100fb91906102f8565b600154604051633b129c8d60e11b81526004810183905263ffffffff851660248201529192506001600160a01b031690637625391a90604401600060405180830381600087803b15801561014e57600080fd5b505af1158015610162573d6000803e3d6000fd5b5050505050505050565b600154604051636061ffd360e11b815242600482018190526000926060926001600160a01b039091169063c0c3ffa690602401602060405180830381865afa1580156101bc573d6000803e3d6000fd5b505050506040513d601f19601f820116820180604052508101906101e09190610311565b9250806040516020016101f591815260200190565b6040516020818303038152906040529150509250929050565b6000806020838503121561022157600080fd5b823567ffffffffffffffff8082111561023957600080fd5b818501915085601f83011261024d57600080fd5b81358181111561025c57600080fd5b86602082850101111561026e57600080fd5b60209290920196919550909350505050565b821515815260006020604081840152835180604085015260005b818110156102b65785810183015185820160600152820161029a565b818111156102c8576000606083870101525b50601f01601f191692909201606001949350505050565b6000602082840312156102f157600080fd5b5035919050565b60006020828403121561030a57600080fd5b5051919050565b60006020828403121561032357600080fd5b8151801515811461033357600080fd5b939250505056fea264697066735822122066770806005b000abf22fd5ac2002071b3ce05e7b443e2d5b2b5066b0b81815164736f6c634300080f0033",
    "linkReferences": {}
  },
  "methodIdentifiers": {
    "checkUpkeep(bytes)": "6e04ff0d",
    "performUpkeep(bytes)": "4585e33b"
  },
  "id": 26
}