{
  "abi": [
    {
      "inputs": [
        {
          "internalType": "address",
          "name": "trust",
          "type": "address"
        }
      ],
      "stateMutability": "nonpayable",
      "type": "constructor"
    },
    {
      "inputs": [
        {
          "internalType": "address",
          "name": "_employer",
          "type": "address"
        },
        {
          "internalType": "uint32",
          "name": "numberOfMileStones",
          "type": "uint32"
        },
        {
          "internalType": "uint256[]",
          "name": "_amountPerMilestone",
          "type": "uint256[]"
        }
      ],
      "name": "requestMilestonePay",
      "outputs": [],
      "stateMutability": "nonpayable",
      "type": "function"
    },
    {
      "inputs": [
        {
          "internalType": "address",
          "name": "_employer",
          "type": "address"
        },
        {
          "internalType": "uint256",
          "name": "amount",
          "type": "uint256"
        }
      ],
      "name": "requestOneTimePayment",
      "outputs": [],
      "stateMutability": "nonpayable",
      "type": "function"
    },
    {
      "inputs": [],
      "name": "stake",
      "outputs": [],
      "stateMutability": "nonpayable",
      "type": "function"
    },
    {
      "inputs": [
        {
          "internalType": "int96",
          "name": "_toReduce",
          "type": "int96"
        }
      ],
      "name": "streamInvestment",
      "outputs": [],
      "stateMutability": "nonpayable",
      "type": "function"
    },
    {
      "inputs": [],
      "name": "trustContract",
      "outputs": [
        {
          "internalType": "contract ITrust",
          "name": "",
          "type": "address"
        }
      ],
      "stateMutability": "view",
      "type": "function"
    },
    {
      "inputs": [
        {
          "internalType": "address",
          "name": "",
          "type": "address"
        }
      ],
      "name": "userActivePayTypes",
      "outputs": [
        {
          "internalType": "bool",
          "name": "stream",
          "type": "bool"
        },
        {
          "internalType": "bool",
          "name": "periodic",
          "type": "bool"
        },
        {
          "internalType": "bool",
          "name": "oneTimePending",
          "type": "bool"
        }
      ],
      "stateMutability": "view",
      "type": "function"
    }
  ],
  "bytecode": {
    "object": "0x608060405234801561001057600080fd5b5060405161080a38038061080a83398101604081905261002f91610054565b600080546001600160a01b0319166001600160a01b0392909216919091179055610084565b60006020828403121561006657600080fd5b81516001600160a01b038116811461007d57600080fd5b9392505050565b610777806100936000396000f3fe608060405234801561001057600080fd5b50600436106100625760003560e01c806333561ca5146100675780633a4b66f11461007a57806350a772bf1461007c578063542f8ca71461008f57806395a853d4146100e9578063fe4bb9a314610114575b600080fd5b61007a6100753660046104ea565b610127565b005b61007a61008a3660046105c0565b610265565b6100c561009d3660046105ec565b60016020526000908152604090205460ff808216916101008104821691620100009091041683565b60408051931515845291151560208401521515908201526060015b60405180910390f35b6000546100fc906001600160a01b031681565b6040516001600160a01b0390911681526020016100e0565b61007a61012236600461061f565b6102d5565b80518263ffffffff16146101825760405162461bcd60e51b815260206004820152601a60248201527f756e64657465726d696e6564206d696c6573746f6e652070617900000000000060448201526064015b60405180910390fd5b600054604051638b54e09d60e01b81526001600160a01b03858116600483015290911690638b54e09d90602401602060405180830381865afa1580156101cc573d6000803e3d6000fd5b505050506040513d601f19601f820116820180604052508101906101f09190610651565b50600054604051638b54e09d60e01b81526001600160a01b03858116600483015290911690638b54e09d90602401602060405180830381865afa15801561023b573d6000803e3d6000fd5b505050506040513d601f19601f8201168201806040525081019061025f9190610651565b50505050565b60008054604051634eac006760e11b81526001600160a01b03858116600483015290911690639d5800ce9060240161010060405180830381865afa1580156102b1573d6000803e3d6000fd5b505050506040513d601f19601f8201168201806040525081019061025f919061066c565b336000908152600160209081526040918290208251606081018452905460ff80821615158084526101008304821615159484019490945262010000909104161515928101929092526103695760405162461bcd60e51b815260206004820152601960248201527f6e6f7420726563696576696e6720616e792073747265616d73000000000000006044820152606401610179565b600054604051631dbfbb5160e31b8152336004820152600b84900b916001600160a01b03169063edfdda88906024016020604051808303816000875af11580156103b7573d6000803e3d6000fd5b505050506040513d601f19601f820116820180604052508101906103db9190610724565b600b0b136104205760405162461bcd60e51b81526020600482015260126024820152714e6f7420656e6f756768742053747265616d60701b6044820152606401610179565b60005460405163fda9d6c560e01b8152336004820152600b84900b60248201526001600160a01b039091169063fda9d6c590604401600060405180830381600087803b15801561046f57600080fd5b505af1158015610483573d6000803e3d6000fd5b505050505050565b6001600160a01b03811681146104a057600080fd5b50565b634e487b7160e01b600052604160045260246000fd5b604051601f8201601f1916810167ffffffffffffffff811182821017156104e2576104e26104a3565b604052919050565b6000806000606084860312156104ff57600080fd5b833561050a8161048b565b925060208481013563ffffffff8116811461052457600080fd5b9250604085013567ffffffffffffffff8082111561054157600080fd5b818701915087601f83011261055557600080fd5b813581811115610567576105676104a3565b8060051b91506105788483016104b9565b818152918301840191848101908a84111561059257600080fd5b938501935b838510156105b057843582529385019390850190610597565b8096505050505050509250925092565b600080604083850312156105d357600080fd5b82356105de8161048b565b946020939093013593505050565b6000602082840312156105fe57600080fd5b81356106098161048b565b9392505050565b80600b0b81146104a057600080fd5b60006020828403121561063157600080fd5b813561060981610610565b8051801515811461064c57600080fd5b919050565b60006020828403121561066357600080fd5b6106098261063c565b600061010080838503121561068057600080fd5b6040519081019067ffffffffffffffff821181831017156106a3576106a36104a3565b81604052835191506106b48261048b565b8181526106c36020850161063c565b60208201526106d46040850161063c565b60408201526106e56060850161063c565b60608201526106f66080850161063c565b608082015260a084015160a082015260c084015160c082015260e084015160e0820152809250505092915050565b60006020828403121561073657600080fd5b81516106098161061056fea26469706673582212207eb20ae1056e9f7cea5e8333fb32de3cd735086b0dc712d8aec77eea943cca8364736f6c634300080f0033",
    "linkReferences": {}
  },
  "methodIdentifiers": {
    "requestMilestonePay(address,uint32,uint256[])": "33561ca5",
    "requestOneTimePayment(address,uint256)": "50a772bf",
    "stake()": "3a4b66f1",
    "streamInvestment(int96)": "fe4bb9a3",
    "trustContract()": "95a853d4",
    "userActivePayTypes(address)": "542f8ca7"
  },
  "id": 28
}