{
  "abi": [
    {
      "inputs": [
        {
          "internalType": "contract ISuperfluid",
          "name": "host",
          "type": "address"
        },
        {
          "internalType": "contract IConstantFlowAgreementV1",
          "name": "cfa",
          "type": "address"
        },
        {
          "internalType": "contract ISuperToken",
          "name": "acceptedToken",
          "type": "address"
        },
        {
          "internalType": "address",
          "name": "_addr",
          "type": "address"
        }
      ],
      "stateMutability": "nonpayable",
      "type": "constructor"
    },
    {
      "inputs": [
        {
          "internalType": "contract ISuperToken",
          "name": "_superToken",
          "type": "address"
        },
        {
          "internalType": "address",
          "name": "_agreementClass",
          "type": "address"
        },
        {
          "internalType": "bytes32",
          "name": "",
          "type": "bytes32"
        },
        {
          "internalType": "bytes",
          "name": "",
          "type": "bytes"
        },
        {
          "internalType": "bytes",
          "name": "",
          "type": "bytes"
        },
        {
          "internalType": "bytes",
          "name": "_ctx",
          "type": "bytes"
        }
      ],
      "name": "afterAgreementCreated",
      "outputs": [
        {
          "internalType": "bytes",
          "name": "newCtx",
          "type": "bytes"
        }
      ],
      "stateMutability": "nonpayable",
      "type": "function"
    },
    {
      "inputs": [
        {
          "internalType": "contract ISuperToken",
          "name": "_superToken",
          "type": "address"
        },
        {
          "internalType": "address",
          "name": "_agreementClass",
          "type": "address"
        },
        {
          "internalType": "bytes32",
          "name": "",
          "type": "bytes32"
        },
        {
          "internalType": "bytes",
          "name": "",
          "type": "bytes"
        },
        {
          "internalType": "bytes",
          "name": "",
          "type": "bytes"
        },
        {
          "internalType": "bytes",
          "name": "_ctx",
          "type": "bytes"
        }
      ],
      "name": "afterAgreementTerminated",
      "outputs": [
        {
          "internalType": "bytes",
          "name": "newCtx",
          "type": "bytes"
        }
      ],
      "stateMutability": "nonpayable",
      "type": "function"
    },
    {
      "inputs": [
        {
          "internalType": "contract ISuperToken",
          "name": "_superToken",
          "type": "address"
        },
        {
          "internalType": "address",
          "name": "_agreementClass",
          "type": "address"
        },
        {
          "internalType": "bytes32",
          "name": "",
          "type": "bytes32"
        },
        {
          "internalType": "bytes",
          "name": "",
          "type": "bytes"
        },
        {
          "internalType": "bytes",
          "name": "",
          "type": "bytes"
        },
        {
          "internalType": "bytes",
          "name": "_ctx",
          "type": "bytes"
        }
      ],
      "name": "afterAgreementUpdated",
      "outputs": [
        {
          "internalType": "bytes",
          "name": "newCtx",
          "type": "bytes"
        }
      ],
      "stateMutability": "nonpayable",
      "type": "function"
    },
    {
      "inputs": [
        {
          "internalType": "contract ISuperToken",
          "name": "",
          "type": "address"
        },
        {
          "internalType": "address",
          "name": "",
          "type": "address"
        },
        {
          "internalType": "bytes32",
          "name": "",
          "type": "bytes32"
        },
        {
          "internalType": "bytes",
          "name": "",
          "type": "bytes"
        },
        {
          "internalType": "bytes",
          "name": "_ctx",
          "type": "bytes"
        }
      ],
      "name": "beforeAgreementCreated",
      "outputs": [
        {
          "internalType": "bytes",
          "name": "",
          "type": "bytes"
        }
      ],
      "stateMutability": "view",
      "type": "function"
    },
    {
      "inputs": [
        {
          "internalType": "contract ISuperToken",
          "name": "",
          "type": "address"
        },
        {
          "internalType": "address",
          "name": "",
          "type": "address"
        },
        {
          "internalType": "bytes32",
          "name": "",
          "type": "bytes32"
        },
        {
          "internalType": "bytes",
          "name": "",
          "type": "bytes"
        },
        {
          "internalType": "bytes",
          "name": "",
          "type": "bytes"
        }
      ],
      "name": "beforeAgreementTerminated",
      "outputs": [
        {
          "internalType": "bytes",
          "name": "",
          "type": "bytes"
        }
      ],
      "stateMutability": "view",
      "type": "function"
    },
    {
      "inputs": [
        {
          "internalType": "contract ISuperToken",
          "name": "",
          "type": "address"
        },
        {
          "internalType": "address",
          "name": "",
          "type": "address"
        },
        {
          "internalType": "bytes32",
          "name": "",
          "type": "bytes32"
        },
        {
          "internalType": "bytes",
          "name": "",
          "type": "bytes"
        },
        {
          "internalType": "bytes",
          "name": "",
          "type": "bytes"
        }
      ],
      "name": "beforeAgreementUpdated",
      "outputs": [
        {
          "internalType": "bytes",
          "name": "",
          "type": "bytes"
        }
      ],
      "stateMutability": "view",
      "type": "function"
    },
    {
      "inputs": [],
      "name": "currentReceiver",
      "outputs": [
        {
          "internalType": "uint256",
          "name": "startTime",
          "type": "uint256"
        },
        {
          "internalType": "address",
          "name": "receiver",
          "type": "address"
        },
        {
          "internalType": "int96",
          "name": "flowRate",
          "type": "int96"
        }
      ],
      "stateMutability": "view",
      "type": "function"
    }
  ],
  "bytecode": {
    "object": "0x60806040523480156200001157600080fd5b5060405162001c8338038062001c8383398101604081905262000034916200010f565b6001600081905580546001600160a01b038087166001600160a01b0319928316811790935560028054878316908416179055600380548683169084161790556005805491851691831682179055600480549092161781556040516315a722b960e31b8152641500000001929163ad3915c891620000b79185910190815260200190565b600060405180830381600087803b158015620000d257600080fd5b505af1158015620000e7573d6000803e3d6000fd5b50505050505050505062000177565b6001600160a01b03811681146200010c57600080fd5b50565b600080600080608085870312156200012657600080fd5b84516200013381620000f6565b60208601519094506200014681620000f6565b60408601519093506200015981620000f6565b60608601519092506200016c81620000f6565b939692955090935050565b611afc80620001876000396000f3fe608060405234801561001057600080fd5b506004361061007d5760003560e01c806353c11f991161005b57806353c11f99146100ec5780635f9e7d77146100ff578063884d1f4014610112578063d86ed3e51461012557600080fd5b8063230dbd291461008257806328d2bf94146100ab57806330d9c915146100d9575b600080fd5b6100956100903660046111c4565b610138565b6040516100a291906112eb565b60405180910390f35b6100b3610449565b604080519384526001600160a01b039092166020840152600b0b908201526060016100a2565b6100956100e7366004611305565b610501565b6100956100fa3660046111c4565b610650565b61009561010d366004611305565b6108eb565b610095610120366004611305565b610952565b6100956101333660046111c4565b6109b5565b60608989610154826003546001600160a01b0391821691161490565b6101a55760405162461bcd60e51b815260206004820152601f60248201527f5265646972656374416c6c3a206e6f7420616363657074656420746f6b656e0060448201526064015b60405180910390fd5b6101ae81610d55565b6101ca5760405162461bcd60e51b815260040161019c906113a4565b6001546001600160a01b031633146101f45760405162461bcd60e51b815260040161019c906113e5565b600154604051631fb6491d60e11b81526000916001600160a01b031690633f6c923a906102279089908990600401611427565b600060405180830381865afa158015610244573d6000803e3d6000fd5b505050506040513d6000823e601f3d908101601f1916820160405261026c919081019061158f565b606081015160055460405163f97f266b60e01b81526001600160a01b038084166004830152939450919260009291169063f97f266b90602401600060405180830381865afa1580156102c2573d6000803e3d6000fd5b505050506040513d6000823e601f3d908101601f191682016040526102ea9190810190611735565b80519091501561042c5760208101516040820151815160005b818110156103c857600083828151811061031f5761031f61183b565b60200260200101519050600085838151811061033d5761033d61183b565b602090810291909101015160055460405163343a2ff360e21b81526001600160a01b038084166004830152600b86900b602483015292935091169063d0e8bfcc90604401600060405180830381600087803b15801561039b57600080fd5b505af11580156103af573d6000803e3d6000fd5b50505050505080806103c090611867565b915050610303565b50600554604051638752f83f60e01b81526001600160a01b03878116600483015290911690638752f83f90602401600060405180830381600087803b15801561041057600080fd5b505af1158015610424573d6000803e3d6000fd5b505050505050505b6104368888610de1565b9f9e505050505050505050505050505050565b600454600090819081906001600160a01b0316156104fc5760025460035460048054604051631cd43d1160e31b81526001600160a01b03938416928101929092523060248301528216604482015291169063e6a1e88890606401608060405180830381865afa1580156104c0573d6000803e3d6000fd5b505050506040513d601f19601f820116820180604052508101906104e49190611880565b50506004549194506001600160a01b03909116925090505b909192565b600154604051631fb6491d60e11b81526060916000916001600160a01b0390911690633f6c923a906105399087908790600401611427565b600060405180830381865afa158015610556573d6000803e3d6000fd5b505050506040513d6000823e601f3d908101601f1916820160405261057e919081019061158f565b6060810151600554604051633431a29360e21b81526001600160a01b0380841660048301529394509192169063d0c68a4c90602401602060405180830381865afa1580156105d0573d6000803e3d6000fd5b505050506040513d601f19601f820116820180604052508101906105f491906118bc565b6000036106435760405162461bcd60e51b815260206004820152601f60248201527f41646420656d706c6f7965657320746f20747275737420636f6e747261637400604482015260640161019c565b5050979650505050505050565b6001546060906001600160a01b0316331461067d5760405162461bcd60e51b815260040161019c906113e5565b6003546001600160a01b038b811691161415806106a0575061069e89610d55565b155b156106e45782828080601f0160208091040260200160405190810160405280939291908181526020018383808284376000920191909152509293506108de92505050565b600154604051631fb6491d60e11b81526000916001600160a01b031690633f6c923a906107179087908790600401611427565b600060405180830381865afa158015610734573d6000803e3d6000fd5b505050506040513d6000823e601f3d908101601f1916820160405261075c919081019061158f565b6060810151600554604051633431a29360e21b81526001600160a01b038084166004830152939450919260009291169063d0c68a4c90602401602060405180830381865afa1580156107b2573d6000803e3d6000fd5b505050506040513d601f19601f820116820180604052508101906107d691906118bc565b905080156108ce5760005b818110156108cc57600554604051630962c55760e41b8152600481018390526000916001600160a01b03169063962c557090602401602060405180830381865afa158015610833573d6000803e3d6000fd5b505050506040513d601f19601f8201168201806040525081019061085791906118d5565b60055460405163de4b9e9360e01b81526001600160a01b03808416600483015292935091169063de4b9e9390602401600060405180830381600087803b1580156108a057600080fd5b505af11580156108b4573d6000803e3d6000fd5b505050505080806108c490611867565b9150506107e1565b505b6108d88686610de1565b93505050505b9998505050505050505050565b60405162461bcd60e51b815260206004820152603360248201527f556e737570706f727465642063616c6c6261636b202d20204265666f7265204160448201527219dc99595b595b9d0815195c9b5a5b985d1959606a1b606482015260609060840161019c565b60405162461bcd60e51b815260206004820152602f60248201527f556e737570706f727465642063616c6c6261636b202d204265666f726520416760448201526e1c99595b595b9d081d5c19185d1959608a1b606482015260609060840161019c565b606089896109d1826003546001600160a01b0391821691161490565b610a1d5760405162461bcd60e51b815260206004820152601f60248201527f5265646972656374416c6c3a206e6f7420616363657074656420746f6b656e00604482015260640161019c565b610a2681610d55565b610a425760405162461bcd60e51b815260040161019c906113a4565b6001546001600160a01b03163314610a6c5760405162461bcd60e51b815260040161019c906113e5565b600154604051631fb6491d60e11b81526000916001600160a01b031690633f6c923a90610a9f9089908990600401611427565b600060405180830381865afa158015610abc573d6000803e3d6000fd5b505050506040513d6000823e601f3d908101601f19168201604052610ae4919081019061158f565b6060810151600554604051633431a29360e21b81526001600160a01b038084166004830152939450919260009291169063d0c68a4c90602401602060405180830381865afa158015610b3a573d6000803e3d6000fd5b505050506040513d601f19601f82011682018060405250810190610b5e91906118bc565b6005546040516277691960e01b81526001600160a01b038581166004830152929350600092909116906277691990602401600060405180830381865afa158015610bac573d6000803e3d6000fd5b505050506040513d6000823e601f3d908101601f19168201604052610bd491908101906118f2565b905060005b82811015610d355760055482516000916001600160a01b03169063de64815c908790869086908110610c0d57610c0d61183b565b60200260200101516040518363ffffffff1660e01b8152600401610c479291906001600160a01b0392831681529116602082015260400190565b602060405180830381865afa158015610c64573d6000803e3d6000fd5b505050506040513d601f19601f82011682018060405250810190610c889190611927565b60055484519192506001600160a01b03169063d0e8bfcc90859085908110610cb257610cb261183b565b6020026020010151836040518363ffffffff1660e01b8152600401610cef9291906001600160a01b03929092168252600b0b602082015260400190565b600060405180830381600087803b158015610d0957600080fd5b505af1158015610d1d573d6000803e3d6000fd5b50505050508080610d2d90611867565b915050610bd9565b50610d408989610de1565b96505050505050509998505050505050505050565b60007fa9214cc96615e0085d3bb077758db69497dc2dce3b2b1e97bc93c3d18d83efd3826001600160a01b0316637730599e6040518163ffffffff1660e01b8152600401602060405180830381865afa158015610db6573d6000803e3d6000fd5b505050506040513d601f19601f82011682018060405250810190610dda91906118bc565b1492915050565b606082828080601f016020809104026020016040519081016040528093929190818152602001838380828437600092018290525060025460035460405163e8e7e2d160e01b81526001600160a01b03918216600482015230602482015296975091959116935063e8e7e2d192506044019050602060405180830381865afa158015610e70573d6000803e3d6000fd5b505050506040513d601f19601f82011682018060405250810190610e949190611927565b60025460035460048054604051631cd43d1160e31b81526001600160a01b03938416928101929092523060248301528216604482015292935060009291169063e6a1e88890606401608060405180830381865afa158015610ef9573d6000803e3d6000fd5b505050506040513d601f19601f82011682018060405250810190610f1d9190611880565b505091505060008183610f309190611942565b9050600b81900b611021576001546002546003546004546040805160008152602081019091526001600160a01b0394851694634329d29394811693635a5999e360e11b93610f8a939183169230929116906044810161199b565b60408051601f198184030181529181526020820180516001600160e01b03166001600160e01b03199485161790525160e085901b9092168252610fd2929189906004016119d9565b6000604051808303816000875af1158015610ff1573d6000803e3d6000fd5b505050506040513d6000823e601f3d908101601f191682016040526110199190810190611a2c565b50935061115a565b600b82900b15611079576001546002546003546004546040805160008152602081019091526001600160a01b0394851694634329d293948116936328104d3160e11b93610f8a93918316921690889060448101611a90565b6001546002546003546004546040805160008152602081019091526001600160a01b0394851694634329d2939481169363317e182f60e11b936110c793918316921690889060448101611a90565b60408051601f198184030181529181526020820180516001600160e01b03166001600160e01b03199485161790525160e085901b909216825261110f929189906004016119d9565b6000604051808303816000875af115801561112e573d6000803e3d6000fd5b505050506040513d6000823e601f3d908101601f191682016040526111569190810190611a2c565b5093505b50505092915050565b6001600160a01b038116811461117857600080fd5b50565b60008083601f84011261118d57600080fd5b50813567ffffffffffffffff8111156111a557600080fd5b6020830191508360208285010111156111bd57600080fd5b9250929050565b600080600080600080600080600060c08a8c0312156111e257600080fd5b89356111ed81611163565b985060208a01356111fd81611163565b975060408a0135965060608a013567ffffffffffffffff8082111561122157600080fd5b61122d8d838e0161117b565b909850965060808c013591508082111561124657600080fd5b6112528d838e0161117b565b909650945060a08c013591508082111561126b57600080fd5b506112788c828d0161117b565b915080935050809150509295985092959850929598565b60005b838110156112aa578181015183820152602001611292565b838111156112b9576000848401525b50505050565b600081518084526112d781602086016020860161128f565b601f01601f19169290920160200192915050565b6020815260006112fe60208301846112bf565b9392505050565b600080600080600080600060a0888a03121561132057600080fd5b873561132b81611163565b9650602088013561133b81611163565b955060408801359450606088013567ffffffffffffffff8082111561135f57600080fd5b61136b8b838c0161117b565b909650945060808a013591508082111561138457600080fd5b506113918a828b0161117b565b989b979a50959850939692959293505050565b60208082526021908201527f5265646972656374416c6c3a206f6e6c7920434641763120737570706f7274656040820152601960fa1b606082015260800190565b60208082526022908201527f5265646972656374416c6c3a20737570706f7274206f6e6c79206f6e6520686f6040820152611cdd60f21b606082015260800190565b60208152816020820152818360408301376000818301604090810191909152601f909201601f19160101919050565b634e487b7160e01b600052604160045260246000fd5b604051610160810167ffffffffffffffff8111828210171561149057611490611456565b60405290565b6040516060810167ffffffffffffffff8111828210171561149057611490611456565b604051601f8201601f1916810167ffffffffffffffff811182821017156114e2576114e2611456565b604052919050565b805160ff811681146114fb57600080fd5b919050565b80516114fb81611163565b80516001600160e01b0319811681146114fb57600080fd5b600082601f83011261153457600080fd5b815167ffffffffffffffff81111561154e5761154e611456565b611561601f8201601f19166020016114b9565b81815284602083860101111561157657600080fd5b61158782602083016020870161128f565b949350505050565b6000602082840312156115a157600080fd5b815167ffffffffffffffff808211156115b957600080fd5b9083019061016082860312156115ce57600080fd5b6115d661146c565b6115df836114ea565b81526115ed602084016114ea565b60208201526040830151604082015261160860608401611500565b60608201526116196080840161150b565b608082015260a08301518281111561163057600080fd5b61163c87828601611523565b60a08301525060c083015160c082015260e083015160e0820152610100915081830151828201526101209150611673828401611500565b828201526101409150611687828401611500565b91810191909152949350505050565b600067ffffffffffffffff8211156116b0576116b0611456565b5060051b60200190565b600082601f8301126116cb57600080fd5b815160206116e06116db83611696565b6114b9565b82815260059290921b840181019181810190868411156116ff57600080fd5b8286015b8481101561115657805161171681611163565b8352918301918301611703565b8051600b81900b81146114fb57600080fd5b6000602080838503121561174857600080fd5b825167ffffffffffffffff8082111561176057600080fd5b908401906060828703121561177457600080fd5b61177c611496565b8251801515811461178c57600080fd5b8152828401518281111561179f57600080fd5b6117ab888286016116ba565b85830152506040830151828111156117c257600080fd5b80840193505086601f8401126117d757600080fd5b825191506117e76116db83611696565b82815260059290921b8301840191848101908884111561180657600080fd5b938501935b8385101561182b5761181c85611723565b8252938501939085019061180b565b6040830152509695505050505050565b634e487b7160e01b600052603260045260246000fd5b634e487b7160e01b600052601160045260246000fd5b60006001820161187957611879611851565b5060010190565b6000806000806080858703121561189657600080fd5b845193506118a660208601611723565b6040860151606090960151949790965092505050565b6000602082840312156118ce57600080fd5b5051919050565b6000602082840312156118e757600080fd5b81516112fe81611163565b60006020828403121561190457600080fd5b815167ffffffffffffffff81111561191b57600080fd5b611587848285016116ba565b60006020828403121561193957600080fd5b6112fe82611723565b600081600b0b83600b0b60008212826b7fffffffffffffffffffffff0382138115161561197157611971611851565b826b7fffffffffffffffffffffff1903821281161561199257611992611851565b50019392505050565b6001600160a01b0385811682528481166020830152831660408201526080606082018190526000906119cf908301846112bf565b9695505050505050565b6001600160a01b03841681526080602082018190526000906119fd908301856112bf565b8281038060408501526002825261060f60f31b6020830152604081016060850152506119cf60408201856112bf565b60008060408385031215611a3f57600080fd5b825167ffffffffffffffff80821115611a5757600080fd5b611a6386838701611523565b93506020850151915080821115611a7957600080fd5b50611a8685828601611523565b9150509250929050565b6001600160a01b03858116825284166020820152600b83900b60408201526080606082018190526000906119cf908301846112bf56fea2646970667358221220ae74d0378887955c3ed142f8afa1a32bea468ad06deb0b021b70b02aa06bf21b64736f6c634300080f0033",
    "linkReferences": {}
  },
  "methodIdentifiers": {
    "afterAgreementCreated(address,address,bytes32,bytes,bytes,bytes)": "d86ed3e5",
    "afterAgreementTerminated(address,address,bytes32,bytes,bytes,bytes)": "53c11f99",
    "afterAgreementUpdated(address,address,bytes32,bytes,bytes,bytes)": "230dbd29",
    "beforeAgreementCreated(address,address,bytes32,bytes,bytes)": "30d9c915",
    "beforeAgreementTerminated(address,address,bytes32,bytes,bytes)": "5f9e7d77",
    "beforeAgreementUpdated(address,address,bytes32,bytes,bytes)": "884d1f40",
    "currentReceiver()": "28d2bf94"
  },
  "id": 27
}