{
  "abi": [
    {
      "inputs": [
        {
          "internalType": "address",
          "name": "host",
          "type": "address"
        },
        {
          "internalType": "address",
          "name": "cfa",
          "type": "address"
        }
      ],
      "stateMutability": "nonpayable",
      "type": "constructor"
    },
    {
      "anonymous": false,
      "inputs": [
        {
          "indexed": true,
          "internalType": "address",
          "name": "previousOwner",
          "type": "address"
        },
        {
          "indexed": true,
          "internalType": "address",
          "name": "newOwner",
          "type": "address"
        }
      ],
      "name": "OwnershipTransferred",
      "type": "event"
    },
    {
      "inputs": [
        {
          "internalType": "address",
          "name": "_employeeAddress",
          "type": "address"
        },
        {
          "internalType": "uint256",
          "name": "_salary",
          "type": "uint256"
        },
        {
          "internalType": "uint256",
          "name": "_paymentInterval",
          "type": "uint256"
        },
        {
          "internalType": "uint256",
          "name": "_endOfContract",
          "type": "uint256"
        },
        {
          "internalType": "uint256",
          "name": "_payType",
          "type": "uint256"
        }
      ],
      "name": "_addemployee",
      "outputs": [],
      "stateMutability": "nonpayable",
      "type": "function"
    },
    {
      "inputs": [
        {
          "internalType": "uint8",
          "name": "_payType",
          "type": "uint8"
        },
        {
          "internalType": "address",
          "name": "_companyAddress",
          "type": "address"
        }
      ],
      "name": "_createCompany",
      "outputs": [],
      "stateMutability": "nonpayable",
      "type": "function"
    },
    {
      "inputs": [
        {
          "internalType": "address",
          "name": "_keeper",
          "type": "address"
        }
      ],
      "name": "addAdmin",
      "outputs": [],
      "stateMutability": "nonpayable",
      "type": "function"
    },
    {
      "inputs": [
        {
          "internalType": "address",
          "name": "_idaCon",
          "type": "address"
        }
      ],
      "name": "addIdaContract",
      "outputs": [],
      "stateMutability": "nonpayable",
      "type": "function"
    },
    {
      "inputs": [
        {
          "internalType": "address",
          "name": "_to",
          "type": "address"
        }
      ],
      "name": "closeStream",
      "outputs": [],
      "stateMutability": "nonpayable",
      "type": "function"
    },
    {
      "inputs": [
        {
          "internalType": "address",
          "name": "",
          "type": "address"
        },
        {
          "internalType": "uint256",
          "name": "",
          "type": "uint256"
        },
        {
          "internalType": "address",
          "name": "",
          "type": "address"
        }
      ],
      "name": "companyOneTimePayIdAddressAmount",
      "outputs": [
        {
          "internalType": "uint256",
          "name": "",
          "type": "uint256"
        }
      ],
      "stateMutability": "view",
      "type": "function"
    },
    {
      "inputs": [
        {
          "internalType": "address",
          "name": "_employee",
          "type": "address"
        }
      ],
      "name": "getEmployeeEmployers",
      "outputs": [
        {
          "internalType": "address[]",
          "name": "",
          "type": "address[]"
        }
      ],
      "stateMutability": "view",
      "type": "function"
    },
    {
      "inputs": [
        {
          "internalType": "address",
          "name": "_company",
          "type": "address"
        },
        {
          "internalType": "address",
          "name": "_employee",
          "type": "address"
        }
      ],
      "name": "getEmployeeFlowRate",
      "outputs": [
        {
          "internalType": "int96",
          "name": "",
          "type": "int96"
        }
      ],
      "stateMutability": "view",
      "type": "function"
    },
    {
      "inputs": [
        {
          "internalType": "address",
          "name": "_employee",
          "type": "address"
        }
      ],
      "name": "getEmployeeIndex",
      "outputs": [
        {
          "internalType": "uint256",
          "name": "index",
          "type": "uint256"
        }
      ],
      "stateMutability": "view",
      "type": "function"
    },
    {
      "inputs": [],
      "name": "getPeriodicEmployee",
      "outputs": [
        {
          "internalType": "uint256",
          "name": "len",
          "type": "uint256"
        }
      ],
      "stateMutability": "view",
      "type": "function"
    },
    {
      "inputs": [
        {
          "internalType": "address",
          "name": "_company",
          "type": "address"
        }
      ],
      "name": "getTotalCompanyEmployees",
      "outputs": [
        {
          "internalType": "uint256",
          "name": "",
          "type": "uint256"
        }
      ],
      "stateMutability": "view",
      "type": "function"
    },
    {
      "inputs": [
        {
          "internalType": "address",
          "name": "_company",
          "type": "address"
        }
      ],
      "name": "getTotalPaying",
      "outputs": [
        {
          "internalType": "uint256",
          "name": "",
          "type": "uint256"
        }
      ],
      "stateMutability": "view",
      "type": "function"
    },
    {
      "inputs": [
        {
          "internalType": "address",
          "name": "_companyAddress",
          "type": "address"
        }
      ],
      "name": "isActiveCompany",
      "outputs": [
        {
          "internalType": "bool",
          "name": "",
          "type": "bool"
        }
      ],
      "stateMutability": "view",
      "type": "function"
    },
    {
      "inputs": [],
      "name": "makePayment",
      "outputs": [],
      "stateMutability": "nonpayable",
      "type": "function"
    },
    {
      "inputs": [
        {
          "internalType": "address",
          "name": "",
          "type": "address"
        }
      ],
      "name": "oneTimeUserTotalPay",
      "outputs": [
        {
          "internalType": "uint256",
          "name": "",
          "type": "uint256"
        }
      ],
      "stateMutability": "view",
      "type": "function"
    },
    {
      "inputs": [
        {
          "internalType": "address",
          "name": "_to",
          "type": "address"
        },
        {
          "internalType": "int96",
          "name": "_flowRate",
          "type": "int96"
        }
      ],
      "name": "openStream",
      "outputs": [],
      "stateMutability": "nonpayable",
      "type": "function"
    },
    {
      "inputs": [],
      "name": "owner",
      "outputs": [
        {
          "internalType": "address",
          "name": "",
          "type": "address"
        }
      ],
      "stateMutability": "view",
      "type": "function"
    },
    {
      "inputs": [
        {
          "internalType": "address",
          "name": "to",
          "type": "address"
        },
        {
          "internalType": "int96",
          "name": "flowRate",
          "type": "int96"
        }
      ],
      "name": "reduceFlow",
      "outputs": [],
      "stateMutability": "nonpayable",
      "type": "function"
    },
    {
      "inputs": [
        {
          "internalType": "address",
          "name": "_employee",
          "type": "address"
        }
      ],
      "name": "removeEmployee",
      "outputs": [],
      "stateMutability": "nonpayable",
      "type": "function"
    },
    {
      "inputs": [],
      "name": "renounceOwnership",
      "outputs": [],
      "stateMutability": "nonpayable",
      "type": "function"
    },
    {
      "inputs": [
        {
          "internalType": "string",
          "name": "",
          "type": "string"
        }
      ],
      "name": "s_assetAddress",
      "outputs": [
        {
          "internalType": "address",
          "name": "",
          "type": "address"
        }
      ],
      "stateMutability": "view",
      "type": "function"
    },
    {
      "inputs": [
        {
          "internalType": "address",
          "name": "",
          "type": "address"
        },
        {
          "internalType": "uint256",
          "name": "",
          "type": "uint256"
        }
      ],
      "name": "s_companyEmployees",
      "outputs": [
        {
          "internalType": "address",
          "name": "",
          "type": "address"
        }
      ],
      "stateMutability": "view",
      "type": "function"
    },
    {
      "inputs": [
        {
          "internalType": "address",
          "name": "",
          "type": "address"
        }
      ],
      "name": "s_companyInfo",
      "outputs": [
        {
          "internalType": "address",
          "name": "_address",
          "type": "address"
        },
        {
          "internalType": "bool",
          "name": "status",
          "type": "bool"
        },
        {
          "internalType": "bool",
          "name": "payingInstram",
          "type": "bool"
        },
        {
          "internalType": "bool",
          "name": "payingPeriodically",
          "type": "bool"
        },
        {
          "internalType": "bool",
          "name": "payingOneTime",
          "type": "bool"
        },
        {
          "internalType": "uint256",
          "name": "totalPaying",
          "type": "uint256"
        },
        {
          "internalType": "uint256",
          "name": "totalperiodicPaid",
          "type": "uint256"
        },
        {
          "internalType": "uint256",
          "name": "streamStart",
          "type": "uint256"
        }
      ],
      "stateMutability": "view",
      "type": "function"
    },
    {
      "inputs": [
        {
          "internalType": "address",
          "name": "newOwner",
          "type": "address"
        }
      ],
      "name": "transferOwnership",
      "outputs": [],
      "stateMutability": "nonpayable",
      "type": "function"
    },
    {
      "inputs": [
        {
          "internalType": "address",
          "name": "_company",
          "type": "address"
        }
      ],
      "name": "viewCompanyEmployees",
      "outputs": [
        {
          "internalType": "address[]",
          "name": "fullList",
          "type": "address[]"
        }
      ],
      "stateMutability": "view",
      "type": "function"
    },
    {
      "inputs": [
        {
          "internalType": "address",
          "name": "_company",
          "type": "address"
        }
      ],
      "name": "viewCompanyInfo",
      "outputs": [
        {
          "components": [
            {
              "internalType": "address",
              "name": "_address",
              "type": "address"
            },
            {
              "internalType": "bool",
              "name": "status",
              "type": "bool"
            },
            {
              "internalType": "bool",
              "name": "payingInstram",
              "type": "bool"
            },
            {
              "internalType": "bool",
              "name": "payingPeriodically",
              "type": "bool"
            },
            {
              "internalType": "bool",
              "name": "payingOneTime",
              "type": "bool"
            },
            {
              "internalType": "uint256",
              "name": "totalPaying",
              "type": "uint256"
            },
            {
              "internalType": "uint256",
              "name": "totalperiodicPaid",
              "type": "uint256"
            },
            {
              "internalType": "uint256",
              "name": "streamStart",
              "type": "uint256"
            }
          ],
          "internalType": "struct TrustCFA.Company",
          "name": "",
          "type": "tuple"
        }
      ],
      "stateMutability": "view",
      "type": "function"
    },
    {
      "inputs": [
        {
          "internalType": "address",
          "name": "_company",
          "type": "address"
        },
        {
          "internalType": "address",
          "name": "_employee",
          "type": "address"
        }
      ],
      "name": "viewEmployeeInfo",
      "outputs": [
        {
          "components": [
            {
              "internalType": "bool",
              "name": "isActive",
              "type": "bool"
            },
            {
              "internalType": "uint256",
              "name": "monthlyIncome",
              "type": "uint256"
            },
            {
              "internalType": "uint256",
              "name": "startTime",
              "type": "uint256"
            },
            {
              "internalType": "uint256",
              "name": "paymentInterval",
              "type": "uint256"
            },
            {
              "internalType": "uint256",
              "name": "endTime",
              "type": "uint256"
            },
            {
              "internalType": "uint256",
              "name": "totalpaid",
              "type": "uint256"
            },
            {
              "internalType": "bool",
              "name": "isStreamed",
              "type": "bool"
            },
            {
              "internalType": "bool",
              "name": "isPeriodic",
              "type": "bool"
            },
            {
              "internalType": "bool",
              "name": "isOneTime",
              "type": "bool"
            }
          ],
          "internalType": "struct TrustCFA.EmployeeInfo",
          "name": "",
          "type": "tuple"
        }
      ],
      "stateMutability": "view",
      "type": "function"
    }
  ],
  "bytecode": "60806040523480156200001157600080fd5b5060405162001db638038062001db68339810160408190526200003491620000de565b6200003f3362000071565b600280546001600160a01b039384166001600160a01b0319918216179091556001805492909316911617905562000116565b600080546001600160a01b038381166001600160a01b0319831681178455604051919092169283917f8be0079c531659141344cd1fd0a4f28419497f9722a3daafe3b4186f6b6457e09190a35050565b80516001600160a01b0381168114620000d957600080fd5b919050565b60008060408385031215620000f257600080fd5b620000fd83620000c1565b91506200010d60208401620000c1565b90509250929050565b611c9080620001266000396000f3fe608060405234801561001057600080fd5b50600436106101a85760003560e01c8063a2bae4af116100f9578063de64815c11610097578063f2fde38b11610071578063f2fde38b14610695578063fcb83575146106a8578063fda9d6c5146106d9578063ff4b39ae146106ec57600080fd5b8063de64815c146105a6578063e3f20180146105cc578063ede4668c1461068257600080fd5b8063d108177a116100d3578063d108177a14610494578063d8d7970014610578578063da78ec8a14610580578063de4b9e931461059357600080fd5b8063a2bae4af14610450578063d0c68a4c14610458578063d0e8bfcc1461048157600080fd5b8063724e60ef116101665780638da5cb5b116101405780638da5cb5b1461031a57806399a8906a1461032b5780639d5800ce1461033e5780639eea3ede1461043057600080fd5b8063724e60ef1461029d5780638b54e09d146102b05780638be1e996146102ee57600080fd5b8062776919146101ad5780630ef4790a146101d6578063126d7b92146102225780631c5145a8146102435780637048027514610263578063715018a614610295575b600080fd5b6101c06101bb366004611684565b6106ff565b6040516101cd91906116a6565b60405180910390f35b61020a6101e4366004611762565b80516020818301810180516005825292820191909301209152546001600160a01b031681565b6040516001600160a01b0390911681526020016101cd565b610235610230366004611684565b610775565b6040519081526020016101cd565b6102566102513660046117e2565b6107f4565b6040516101cd9190611815565b610293610271366004611684565b600e80546001600160a01b0319166001600160a01b0392909216919091179055565b005b6102936108ee565b6102936102ab366004611887565b61092d565b6102de6102be366004611684565b6001600160a01b0390811660009081526008602052604090205416151590565b60405190151581526020016101cd565b6102356102fc366004611684565b6001600160a01b031660009081526008602052604090206001015490565b6000546001600160a01b031661020a565b61020a6103393660046118c9565b610dd8565b61042361034c366004611684565b6040805161010081018252600080825260208201819052918101829052606081018290526080810182905260a0810182905260c0810182905260e0810191909152506001600160a01b039081166000908152600860209081526040918290208251610100810184528154948516815260ff600160a01b86048116151593820193909352600160a81b85048316151593810193909352600160b01b8404821615156060840152600160b81b9093041615156080820152600182015460a0820152600282015460c082015260039091015460e082015290565b6040516101cd91906118f3565b61023561043e366004611684565b600c6020526000908152604090205481565b600a54610235565b610235610466366004611684565b6001600160a01b031660009081526007602052604090205490565b61029361048f366004611962565b610e10565b6102936104a2366004611684565b604080516101208101825260008082526020808301828152838501838152606085018481526080860185815260a0870186815260c0880187815260e08901888152610100808b018a8152338b52600d8a528c8b206001600160a01b039e909e168b529c909852999097209751885460ff191690151517885593516001880155915160028701555160038601555160048501555160058401559051600690920180549351945161ffff1990941692151561ff00191692909217931515029290921762ff000019166201000091151591909102179055565b610293610e1e565b61029361058e36600461199f565b610fe0565b6102936105a1366004611684565b6112a1565b6105b96105b43660046117e2565b6112ae565b604051600b9190910b81526020016101cd565b6106356105da366004611684565b60086020526000908152604090208054600182015460028301546003909301546001600160a01b0383169360ff600160a01b8504811694600160a81b8104821694600160b01b8204831694600160b81b909204909216929088565b604080516001600160a01b03909916895296151560208901529415159587019590955291151560608601521515608085015260a084015260c083019190915260e0820152610100016101cd565b610293610690366004611684565b6112f4565b6102936106a3366004611684565b611340565b6102356106b63660046119c3565b600660209081526000938452604080852082529284528284209052825290205481565b6102936106e7366004611962565b6113d8565b6101c06106fa366004611684565b6113e2565b6001600160a01b03811660009081526007602090815260409182902080548351818402810184019094528084526060939283018282801561076957602002820191906000526020600020905b81546001600160a01b0316815260019091019060200180831161074b575b50505050509050919050565b3360009081526007602052604081205460005b818111156107ed5733600090815260076020526040902080546001600160a01b0386169190839081106107bd576107bd6119ff565b6000918252602090912001546001600160a01b0316036107db578092505b806107e581611a2b565b915050610788565b5050919050565b61084b60405180610120016040528060001515815260200160008152602001600081526020016000815260200160008152602001600081526020016000151581526020016000151581526020016000151581525090565b506001600160a01b039182166000908152600d60209081526040808320939094168252918252829020825161012081018452815460ff908116151582526001830154938201939093526002820154938101939093526003810154606084015260048101546080840152600581015460a084015260060154808216151560c08401526101008082048316151560e08501526201000090910490911615159082015290565b6000546001600160a01b031633146109215760405162461bcd60e51b815260040161091890611a44565b60405180910390fd5b61092b6000611456565b565b3360009081526008602052604090208054600160a01b900460ff1615156001146109865760405162461bcd60e51b815260206004820152600a6024820152696e6f742061637469766560b01b6044820152606401610918565b81600003610b8f576040518061012001604052806000151581526020018681526020014281526020018581526020018481526020016000815260200160011515815260200160001515815260200160001515815250600d6000336001600160a01b03166001600160a01b031681526020019081526020016000206000886001600160a01b03166001600160a01b0316815260200190815260200160002060008201518160000160006101000a81548160ff0219169083151502179055506020820151816001015560408201518160020155606082015181600301556080820151816004015560a0820151816005015560c08201518160060160006101000a81548160ff02191690831515021790555060e08201518160060160016101000a81548160ff0219169083151502179055506101008201518160060160026101000a81548160ff0219169083151502179055509050508460086000336001600160a01b03166001600160a01b031681526020019081526020016000206001016000828254610b119190611a79565b9091555050336000908152600760209081526040822080546001818101835591845291832090910180546001600160a01b038a166001600160a01b03199182168117909255600b805493840181559093527f0175b7a638427703f0dbe7bb9bbf987a2551717b34e79f33b5b1008d1fa01db990910180549092161790555b81600103610d98576040518061012001604052806000151581526020018681526020014281526020018581526020018481526020016000815260200160001515815260200160011515815260200160001515815250600d6000336001600160a01b03166001600160a01b031681526020019081526020016000206000886001600160a01b03166001600160a01b0316815260200190815260200160002060008201518160000160006101000a81548160ff0219169083151502179055506020820151816001015560408201518160020155606082015181600301556080820151816004015560a0820151816005015560c08201518160060160006101000a81548160ff02191690831515021790555060e08201518160060160016101000a81548160ff0219169083151502179055506101008201518160060160026101000a81548160ff0219169083151502179055509050508460086000336001600160a01b03166001600160a01b031681526020019081526020016000206001016000828254610d1a9190611a79565b9091555050336000908152600760209081526040822080546001818101835591845291832090910180546001600160a01b038a166001600160a01b03199182168117909255600a805493840181559093527fc65a7bb8d6351c1cf70c95a316cc6a92839c986682d98bc35f958f4883f9d2a890910180549092161790555b5050506001600160a01b0390921660009081526009602090815260408220805460018101825590835291200180546001600160a01b031916331790555050565b60076020528160005260406000208181548110610df457600080fd5b6000918252602090912001546001600160a01b03169150829050565b610e1a82826114a6565b5050565b3360009081526007602052604090205480610e3857600080fd5b6003546004543360008181526008602052604081206001015490936001600160a01b03908116936323b872dd93929116906040516001600160e01b031960e086901b1681526001600160a01b03938416600482015292909116602483015260448201526064016020604051808303816000875af1158015610ebd573d6000803e3d6000fd5b505050506040513d601f19601f82011682018060405250810190610ee19190611a91565b905080610f225760405162461bcd60e51b815260206004820152600f60248201526e1d1c985b9cd9995c8819985a5b1959608a1b6044820152606401610918565b60005b82811015610fdb57336000908152600760205260408120805483908110610f4e57610f4e6119ff565b6000918252602090912001546004805460405163024b48f360e61b815233928101929092526001600160a01b0392831660248301819052935091909116906392d23cc090604401600060405180830381600087803b158015610faf57600080fd5b505af1158015610fc3573d6000803e3d6000fd5b50505050508080610fd390611a2b565b915050610f25565b505050565b8160ff166000036110ce5760408051610100810182526001600160a01b03808416808352600160208085018281528587018381526000606088018181526080890182815260a08a0183815260c08b0184815260e08c0185815299855260089097529a9092209851895494519351915192511515600160b81b0260ff60b81b19931515600160b01b0260ff60b01b19931515600160a81b029390931661ffff60a81b19951515600160a01b026001600160a81b031990971692909a1691909117949094179290921696909617179490941693909317845593519383019390935551600282015590516003909101555b8160ff166001036111bd5760408051610100810182526001600160a01b03928316808252600160208084018281526000858701818152606087018581526080880183815260a0890184815260c08a0185815260e08b018681529986526008909752999093209751885494519251915193519a166001600160a81b031990941693909317600160a01b911515919091021761ffff60a81b1916600160a81b9215159290920260ff60b01b191691909117600160b01b911515919091021760ff60b81b1916600160b81b96151596909602959095178355925192820192909255915160028301555160039091015550565b60408051610100810182526001600160a01b03928316808252600160208084018281526000858701818152606087018281526080880186815260a0890184815260c08a0185815260e08b018681529986526008909752999093209751885494519251915193519a166001600160a81b031990941693909317600160a01b911515919091021761ffff60a81b1916600160a81b9215159290920260ff60b01b191691909117600160b01b911515919091021760ff60b81b1916600160b81b96151596909602959095178355925192820192909255915160028301555160039091015550565b6112ab30826115c5565b50565b6001600160a01b038083166000908152600d60209081526040808320938516835292905290812060010154816112e762278d0083611ab3565b9050805b95945050505050565b6000546001600160a01b0316331461131e5760405162461bcd60e51b815260040161091890611a44565b600480546001600160a01b0319166001600160a01b0392909216919091179055565b6000546001600160a01b0316331461136a5760405162461bcd60e51b815260040161091890611a44565b6001600160a01b0381166113cf5760405162461bcd60e51b815260206004820152602660248201527f4f776e61626c653a206e6577206f776e657220697320746865207a65726f206160448201526564647265737360d01b6064820152608401610918565b6112ab81611456565b610e1a8282611610565b6001600160a01b038116600090815260096020908152604091829020805483518184028101840190945280845260609392830182828015610769576020028201919060005260206000209081546001600160a01b0316815260019091019060200180831161074b5750505050509050919050565b600080546001600160a01b038381166001600160a01b0319831681178455604051919092169283917f8be0079c531659141344cd1fd0a4f28419497f9722a3daafe3b4186f6b6457e09190a35050565b6001600160a01b0382163014806114c457506001600160a01b038216155b156114cd575050565b6002546001546003546001600160a01b03928316926339255d5b9281169163317e182f60e11b9116868660005b6040519080825280601f01601f191660200182016040528015611524576020820181803683370190505b506040516024016115389493929190611b31565b60408051601f198184030181529181526020820180516001600160e01b03166001600160e01b03199485161790525160e085901b909216825261157e9291600401611b71565b6000604051808303816000875af115801561159d573d6000803e3d6000fd5b505050506040513d6000823e601f3d908101601f19168201604052610fdb9190810190611bb8565b6002546001546003546040805160008152602081019091526001600160a01b03938416936339255d5b93811692635a5999e360e11b9261153892909116908890889060448101611c26565b6001600160a01b03821630148061162e57506001600160a01b038216155b15611637575050565b6002546001546003546001600160a01b03928316926339255d5b928116916328104d3160e11b9116868660006114fa565b80356001600160a01b038116811461167f57600080fd5b919050565b60006020828403121561169657600080fd5b61169f82611668565b9392505050565b6020808252825182820181905260009190848201906040850190845b818110156116e75783516001600160a01b0316835292840192918401916001016116c2565b50909695505050505050565b634e487b7160e01b600052604160045260246000fd5b604051601f8201601f1916810167ffffffffffffffff81118282101715611732576117326116f3565b604052919050565b600067ffffffffffffffff821115611754576117546116f3565b50601f01601f191660200190565b60006020828403121561177457600080fd5b813567ffffffffffffffff81111561178b57600080fd5b8201601f8101841361179c57600080fd5b80356117af6117aa8261173a565b611709565b8181528560208385010111156117c457600080fd5b81602084016020830137600091810160200191909152949350505050565b600080604083850312156117f557600080fd5b6117fe83611668565b915061180c60208401611668565b90509250929050565b6000610120820190508251151582526020830151602083015260408301516040830152606083015160608301526080830151608083015260a083015160a083015260c0830151151560c083015260e083015161187560e084018215159052565b50610100928301511515919092015290565b600080600080600060a0868803121561189f57600080fd5b6118a886611668565b97602087013597506040870135966060810135965060800135945092505050565b600080604083850312156118dc57600080fd5b6118e583611668565b946020939093013593505050565b81516001600160a01b0316815260208083015115159082015260408083015115159082015260608083015115159082015260808083015161010083019161193d9084018215159052565b5060a083015160a083015260c083015160c083015260e083015160e083015292915050565b6000806040838503121561197557600080fd5b61197e83611668565b9150602083013580600b0b811461199457600080fd5b809150509250929050565b600080604083850312156119b257600080fd5b823560ff811681146117fe57600080fd5b6000806000606084860312156119d857600080fd5b6119e184611668565b9250602084013591506119f660408501611668565b90509250925092565b634e487b7160e01b600052603260045260246000fd5b634e487b7160e01b600052601160045260246000fd5b600060018201611a3d57611a3d611a15565b5060010190565b6020808252818101527f4f776e61626c653a2063616c6c6572206973206e6f7420746865206f776e6572604082015260600190565b60008219821115611a8c57611a8c611a15565b500190565b600060208284031215611aa357600080fd5b8151801515811461169f57600080fd5b600082611ad057634e487b7160e01b600052601260045260246000fd5b500490565b60005b83811015611af0578181015183820152602001611ad8565b83811115611aff576000848401525b50505050565b60008151808452611b1d816020860160208601611ad5565b601f01601f19169290920160200192915050565b6001600160a01b03858116825284166020820152600b83900b6040820152608060608201819052600090611b6790830184611b05565b9695505050505050565b6001600160a01b0383168152606060208201819052600090611b9590830184611b05565b8281036040938401526002815261060f60f31b6020820152919091019392505050565b600060208284031215611bca57600080fd5b815167ffffffffffffffff811115611be157600080fd5b8201601f81018413611bf257600080fd5b8051611c006117aa8261173a565b818152856020838501011115611c1557600080fd5b6112eb826020830160208601611ad5565b6001600160a01b038581168252848116602083015283166040820152608060608201819052600090611b6790830184611b0556fea2646970667358221220dd11919fa8549852f91eab66b0e9e0cd4db060e6cb6156db68f32b5a10e39fdc64736f6c634300080d0033",
  "bytecodeSha1": "20f2fdd55c9b46a7d82da4a90085985eb02ec973",
  "compiler": {
    "evm_version": "istanbul",
    "optimizer": {
      "enabled": true,
      "runs": 200
    },
    "version": "0.8.13+commit.abaa5c0e"
  },
  "contractName": "TrustCFA",
  "language": "Solidity",
  "natspec": {
    "kind": "dev",
    "methods": {
      "_addemployee(address,uint256,uint256,uint256,uint256)": {
        "details": "only callable by an active employer",
        "notice": "add an employer to the platform",
        "params": {
          "_employeeAddress": ": address of the employer",
          "_paymentInterval": ": the interval to which the employee receives the pay",
          "_salary": ": the employee salary"
        }
      },
      "_createCompany(uint8,address)": {
        "details": "only callable by the contract admin",
        "notice": "add a compny to the platform",
        "params": {
          "_companyAddress": ": the address of the company",
          "_payType": ": the type of payment the company gives ie. Installments or stream"
        }
      },
      "owner()": {
        "details": "Returns the address of the current owner."
      },
      "renounceOwnership()": {
        "details": "Leaves the contract without owner. It will not be possible to call `onlyOwner` functions anymore. Can only be called by the current owner. NOTE: Renouncing ownership will leave the contract without an owner, thereby removing any functionality that is only available to the owner."
      },
      "transferOwnership(address)": {
        "details": "Transfers ownership of the contract to a new account (`newOwner`). Can only be called by the current owner."
      },
      "viewCompanyInfo(address)": {
        "notice": "get an employer's infor",
        "params": {
          "_company": ": employee address"
        }
      },
      "viewEmployeeInfo(address,address)": {
        "notice": "get an employee's infor",
        "params": {
          "_employee": ": employee address"
        }
      }
    },
    "version": 1
  },
  "opcodes": "PUSH1 0x80 PUSH1 0x40 MSTORE CALLVALUE DUP1 ISZERO PUSH2 0x10 JUMPI PUSH1 0x0 DUP1 REVERT JUMPDEST POP PUSH1 0x4 CALLDATASIZE LT PUSH2 0x1A8 JUMPI PUSH1 0x0 CALLDATALOAD PUSH1 0xE0 SHR DUP1 PUSH4 0xA2BAE4AF GT PUSH2 0xF9 JUMPI DUP1 PUSH4 0xDE64815C GT PUSH2 0x97 JUMPI DUP1 PUSH4 0xF2FDE38B GT PUSH2 0x71 JUMPI DUP1 PUSH4 0xF2FDE38B EQ PUSH2 0x695 JUMPI DUP1 PUSH4 0xFCB83575 EQ PUSH2 0x6A8 JUMPI DUP1 PUSH4 0xFDA9D6C5 EQ PUSH2 0x6D9 JUMPI DUP1 PUSH4 0xFF4B39AE EQ PUSH2 0x6EC JUMPI PUSH1 0x0 DUP1 REVERT JUMPDEST DUP1 PUSH4 0xDE64815C EQ PUSH2 0x5A6 JUMPI DUP1 PUSH4 0xE3F20180 EQ PUSH2 0x5CC JUMPI DUP1 PUSH4 0xEDE4668C EQ PUSH2 0x682 JUMPI PUSH1 0x0 DUP1 REVERT JUMPDEST DUP1 PUSH4 0xD108177A GT PUSH2 0xD3 JUMPI DUP1 PUSH4 0xD108177A EQ PUSH2 0x494 JUMPI DUP1 PUSH4 0xD8D79700 EQ PUSH2 0x578 JUMPI DUP1 PUSH4 0xDA78EC8A EQ PUSH2 0x580 JUMPI DUP1 PUSH4 0xDE4B9E93 EQ PUSH2 0x593 JUMPI PUSH1 0x0 DUP1 REVERT JUMPDEST DUP1 PUSH4 0xA2BAE4AF EQ PUSH2 0x450 JUMPI DUP1 PUSH4 0xD0C68A4C EQ PUSH2 0x458 JUMPI DUP1 PUSH4 0xD0E8BFCC EQ PUSH2 0x481 JUMPI PUSH1 0x0 DUP1 REVERT JUMPDEST DUP1 PUSH4 0x724E60EF GT PUSH2 0x166 JUMPI DUP1 PUSH4 0x8DA5CB5B GT PUSH2 0x140 JUMPI DUP1 PUSH4 0x8DA5CB5B EQ PUSH2 0x31A JUMPI DUP1 PUSH4 0x99A8906A EQ PUSH2 0x32B JUMPI DUP1 PUSH4 0x9D5800CE EQ PUSH2 0x33E JUMPI DUP1 PUSH4 0x9EEA3EDE EQ PUSH2 0x430 JUMPI PUSH1 0x0 DUP1 REVERT JUMPDEST DUP1 PUSH4 0x724E60EF EQ PUSH2 0x29D JUMPI DUP1 PUSH4 0x8B54E09D EQ PUSH2 0x2B0 JUMPI DUP1 PUSH4 0x8BE1E996 EQ PUSH2 0x2EE JUMPI PUSH1 0x0 DUP1 REVERT JUMPDEST DUP1 PUSH3 0x776919 EQ PUSH2 0x1AD JUMPI DUP1 PUSH4 0xEF4790A EQ PUSH2 0x1D6 JUMPI DUP1 PUSH4 0x126D7B92 EQ PUSH2 0x222 JUMPI DUP1 PUSH4 0x1C5145A8 EQ PUSH2 0x243 JUMPI DUP1 PUSH4 0x70480275 EQ PUSH2 0x263 JUMPI DUP1 PUSH4 0x715018A6 EQ PUSH2 0x295 JUMPI JUMPDEST PUSH1 0x0 DUP1 REVERT JUMPDEST PUSH2 0x1C0 PUSH2 0x1BB CALLDATASIZE PUSH1 0x4 PUSH2 0x1684 JUMP JUMPDEST PUSH2 0x6FF JUMP JUMPDEST PUSH1 0x40 MLOAD PUSH2 0x1CD SWAP2 SWAP1 PUSH2 0x16A6 JUMP JUMPDEST PUSH1 0x40 MLOAD DUP1 SWAP2 SUB SWAP1 RETURN JUMPDEST PUSH2 0x20A PUSH2 0x1E4 CALLDATASIZE PUSH1 0x4 PUSH2 0x1762 JUMP JUMPDEST DUP1 MLOAD PUSH1 0x20 DUP2 DUP4 ADD DUP2 ADD DUP1 MLOAD PUSH1 0x5 DUP3 MSTORE SWAP3 DUP3 ADD SWAP2 SWAP1 SWAP4 ADD KECCAK256 SWAP2 MSTORE SLOAD PUSH1 0x1 PUSH1 0x1 PUSH1 0xA0 SHL SUB AND DUP2 JUMP JUMPDEST PUSH1 0x40 MLOAD PUSH1 0x1 PUSH1 0x1 PUSH1 0xA0 SHL SUB SWAP1 SWAP2 AND DUP2 MSTORE PUSH1 0x20 ADD PUSH2 0x1CD JUMP JUMPDEST PUSH2 0x235 PUSH2 0x230 CALLDATASIZE PUSH1 0x4 PUSH2 0x1684 JUMP JUMPDEST PUSH2 0x775 JUMP JUMPDEST PUSH1 0x40 MLOAD SWAP1 DUP2 MSTORE PUSH1 0x20 ADD PUSH2 0x1CD JUMP JUMPDEST PUSH2 0x256 PUSH2 0x251 CALLDATASIZE PUSH1 0x4 PUSH2 0x17E2 JUMP JUMPDEST PUSH2 0x7F4 JUMP JUMPDEST PUSH1 0x40 MLOAD PUSH2 0x1CD SWAP2 SWAP1 PUSH2 0x1815 JUMP JUMPDEST PUSH2 0x293 PUSH2 0x271 CALLDATASIZE PUSH1 0x4 PUSH2 0x1684 JUMP JUMPDEST PUSH1 0xE DUP1 SLOAD PUSH1 0x1 PUSH1 0x1 PUSH1 0xA0 SHL SUB NOT AND PUSH1 0x1 PUSH1 0x1 PUSH1 0xA0 SHL SUB SWAP3 SWAP1 SWAP3 AND SWAP2 SWAP1 SWAP2 OR SWAP1 SSTORE JUMP JUMPDEST STOP JUMPDEST PUSH2 0x293 PUSH2 0x8EE JUMP JUMPDEST PUSH2 0x293 PUSH2 0x2AB CALLDATASIZE PUSH1 0x4 PUSH2 0x1887 JUMP JUMPDEST PUSH2 0x92D JUMP JUMPDEST PUSH2 0x2DE PUSH2 0x2BE CALLDATASIZE PUSH1 0x4 PUSH2 0x1684 JUMP JUMPDEST PUSH1 0x1 PUSH1 0x1 PUSH1 0xA0 SHL SUB SWAP1 DUP2 AND PUSH1 0x0 SWAP1 DUP2 MSTORE PUSH1 0x8 PUSH1 0x20 MSTORE PUSH1 0x40 SWAP1 KECCAK256 SLOAD AND ISZERO ISZERO SWAP1 JUMP JUMPDEST PUSH1 0x40 MLOAD SWAP1 ISZERO ISZERO DUP2 MSTORE PUSH1 0x20 ADD PUSH2 0x1CD JUMP JUMPDEST PUSH2 0x235 PUSH2 0x2FC CALLDATASIZE PUSH1 0x4 PUSH2 0x1684 JUMP JUMPDEST PUSH1 0x1 PUSH1 0x1 PUSH1 0xA0 SHL SUB AND PUSH1 0x0 SWAP1 DUP2 MSTORE PUSH1 0x8 PUSH1 0x20 MSTORE PUSH1 0x40 SWAP1 KECCAK256 PUSH1 0x1 ADD SLOAD SWAP1 JUMP JUMPDEST PUSH1 0x0 SLOAD PUSH1 0x1 PUSH1 0x1 PUSH1 0xA0 SHL SUB AND PUSH2 0x20A JUMP JUMPDEST PUSH2 0x20A PUSH2 0x339 CALLDATASIZE PUSH1 0x4 PUSH2 0x18C9 JUMP JUMPDEST PUSH2 0xDD8 JUMP JUMPDEST PUSH2 0x423 PUSH2 0x34C CALLDATASIZE PUSH1 0x4 PUSH2 0x1684 JUMP JUMPDEST PUSH1 0x40 DUP1 MLOAD PUSH2 0x100 DUP2 ADD DUP3 MSTORE PUSH1 0x0 DUP1 DUP3 MSTORE PUSH1 0x20 DUP3 ADD DUP2 SWAP1 MSTORE SWAP2 DUP2 ADD DUP3 SWAP1 MSTORE PUSH1 0x60 DUP2 ADD DUP3 SWAP1 MSTORE PUSH1 0x80 DUP2 ADD DUP3 SWAP1 MSTORE PUSH1 0xA0 DUP2 ADD DUP3 SWAP1 MSTORE PUSH1 0xC0 DUP2 ADD DUP3 SWAP1 MSTORE PUSH1 0xE0 DUP2 ADD SWAP2 SWAP1 SWAP2 MSTORE POP PUSH1 0x1 PUSH1 0x1 PUSH1 0xA0 SHL SUB SWAP1 DUP2 AND PUSH1 0x0 SWAP1 DUP2 MSTORE PUSH1 0x8 PUSH1 0x20 SWAP1 DUP2 MSTORE PUSH1 0x40 SWAP2 DUP3 SWAP1 KECCAK256 DUP3 MLOAD PUSH2 0x100 DUP2 ADD DUP5 MSTORE DUP2 SLOAD SWAP5 DUP6 AND DUP2 MSTORE PUSH1 0xFF PUSH1 0x1 PUSH1 0xA0 SHL DUP7 DIV DUP2 AND ISZERO ISZERO SWAP4 DUP3 ADD SWAP4 SWAP1 SWAP4 MSTORE PUSH1 0x1 PUSH1 0xA8 SHL DUP6 DIV DUP4 AND ISZERO ISZERO SWAP4 DUP2 ADD SWAP4 SWAP1 SWAP4 MSTORE PUSH1 0x1 PUSH1 0xB0 SHL DUP5 DIV DUP3 AND ISZERO ISZERO PUSH1 0x60 DUP5 ADD MSTORE PUSH1 0x1 PUSH1 0xB8 SHL SWAP1 SWAP4 DIV AND ISZERO ISZERO PUSH1 0x80 DUP3 ADD MSTORE PUSH1 0x1 DUP3 ADD SLOAD PUSH1 0xA0 DUP3 ADD MSTORE PUSH1 0x2 DUP3 ADD SLOAD PUSH1 0xC0 DUP3 ADD MSTORE PUSH1 0x3 SWAP1 SWAP2 ADD SLOAD PUSH1 0xE0 DUP3 ADD MSTORE SWAP1 JUMP JUMPDEST PUSH1 0x40 MLOAD PUSH2 0x1CD SWAP2 SWAP1 PUSH2 0x18F3 JUMP JUMPDEST PUSH2 0x235 PUSH2 0x43E CALLDATASIZE PUSH1 0x4 PUSH2 0x1684 JUMP JUMPDEST PUSH1 0xC PUSH1 0x20 MSTORE PUSH1 0x0 SWAP1 DUP2 MSTORE PUSH1 0x40 SWAP1 KECCAK256 SLOAD DUP2 JUMP JUMPDEST PUSH1 0xA SLOAD PUSH2 0x235 JUMP JUMPDEST PUSH2 0x235 PUSH2 0x466 CALLDATASIZE PUSH1 0x4 PUSH2 0x1684 JUMP JUMPDEST PUSH1 0x1 PUSH1 0x1 PUSH1 0xA0 SHL SUB AND PUSH1 0x0 SWAP1 DUP2 MSTORE PUSH1 0x7 PUSH1 0x20 MSTORE PUSH1 0x40 SWAP1 KECCAK256 SLOAD SWAP1 JUMP JUMPDEST PUSH2 0x293 PUSH2 0x48F CALLDATASIZE PUSH1 0x4 PUSH2 0x1962 JUMP JUMPDEST PUSH2 0xE10 JUMP JUMPDEST PUSH2 0x293 PUSH2 0x4A2 CALLDATASIZE PUSH1 0x4 PUSH2 0x1684 JUMP JUMPDEST PUSH1 0x40 DUP1 MLOAD PUSH2 0x120 DUP2 ADD DUP3 MSTORE PUSH1 0x0 DUP1 DUP3 MSTORE PUSH1 0x20 DUP1 DUP4 ADD DUP3 DUP2 MSTORE DUP4 DUP6 ADD DUP4 DUP2 MSTORE PUSH1 0x60 DUP6 ADD DUP5 DUP2 MSTORE PUSH1 0x80 DUP7 ADD DUP6 DUP2 MSTORE PUSH1 0xA0 DUP8 ADD DUP7 DUP2 MSTORE PUSH1 0xC0 DUP9 ADD DUP8 DUP2 MSTORE PUSH1 0xE0 DUP10 ADD DUP9 DUP2 MSTORE PUSH2 0x100 DUP1 DUP12 ADD DUP11 DUP2 MSTORE CALLER DUP12 MSTORE PUSH1 0xD DUP11 MSTORE DUP13 DUP12 KECCAK256 PUSH1 0x1 PUSH1 0x1 PUSH1 0xA0 SHL SUB SWAP15 SWAP1 SWAP15 AND DUP12 MSTORE SWAP13 SWAP1 SWAP9 MSTORE SWAP10 SWAP1 SWAP8 KECCAK256 SWAP8 MLOAD DUP9 SLOAD PUSH1 0xFF NOT AND SWAP1 ISZERO ISZERO OR DUP9 SSTORE SWAP4 MLOAD PUSH1 0x1 DUP9 ADD SSTORE SWAP2 MLOAD PUSH1 0x2 DUP8 ADD SSTORE MLOAD PUSH1 0x3 DUP7 ADD SSTORE MLOAD PUSH1 0x4 DUP6 ADD SSTORE MLOAD PUSH1 0x5 DUP5 ADD SSTORE SWAP1 MLOAD PUSH1 0x6 SWAP1 SWAP3 ADD DUP1 SLOAD SWAP4 MLOAD SWAP5 MLOAD PUSH2 0xFFFF NOT SWAP1 SWAP5 AND SWAP3 ISZERO ISZERO PUSH2 0xFF00 NOT AND SWAP3 SWAP1 SWAP3 OR SWAP4 ISZERO ISZERO MUL SWAP3 SWAP1 SWAP3 OR PUSH3 0xFF0000 NOT AND PUSH3 0x10000 SWAP2 ISZERO ISZERO SWAP2 SWAP1 SWAP2 MUL OR SWAP1 SSTORE JUMP JUMPDEST PUSH2 0x293 PUSH2 0xE1E JUMP JUMPDEST PUSH2 0x293 PUSH2 0x58E CALLDATASIZE PUSH1 0x4 PUSH2 0x199F JUMP JUMPDEST PUSH2 0xFE0 JUMP JUMPDEST PUSH2 0x293 PUSH2 0x5A1 CALLDATASIZE PUSH1 0x4 PUSH2 0x1684 JUMP JUMPDEST PUSH2 0x12A1 JUMP JUMPDEST PUSH2 0x5B9 PUSH2 0x5B4 CALLDATASIZE PUSH1 0x4 PUSH2 0x17E2 JUMP JUMPDEST PUSH2 0x12AE JUMP JUMPDEST PUSH1 0x40 MLOAD PUSH1 0xB SWAP2 SWAP1 SWAP2 SIGNEXTEND DUP2 MSTORE PUSH1 0x20 ADD PUSH2 0x1CD JUMP JUMPDEST PUSH2 0x635 PUSH2 0x5DA CALLDATASIZE PUSH1 0x4 PUSH2 0x1684 JUMP JUMPDEST PUSH1 0x8 PUSH1 0x20 MSTORE PUSH1 0x0 SWAP1 DUP2 MSTORE PUSH1 0x40 SWAP1 KECCAK256 DUP1 SLOAD PUSH1 0x1 DUP3 ADD SLOAD PUSH1 0x2 DUP4 ADD SLOAD PUSH1 0x3 SWAP1 SWAP4 ADD SLOAD PUSH1 0x1 PUSH1 0x1 PUSH1 0xA0 SHL SUB DUP4 AND SWAP4 PUSH1 0xFF PUSH1 0x1 PUSH1 0xA0 SHL DUP6 DIV DUP2 AND SWAP5 PUSH1 0x1 PUSH1 0xA8 SHL DUP2 DIV DUP3 AND SWAP5 PUSH1 0x1 PUSH1 0xB0 SHL DUP3 DIV DUP4 AND SWAP5 PUSH1 0x1 PUSH1 0xB8 SHL SWAP1 SWAP3 DIV SWAP1 SWAP3 AND SWAP3 SWAP1 DUP9 JUMP JUMPDEST PUSH1 0x40 DUP1 MLOAD PUSH1 0x1 PUSH1 0x1 PUSH1 0xA0 SHL SUB SWAP1 SWAP10 AND DUP10 MSTORE SWAP7 ISZERO ISZERO PUSH1 0x20 DUP10 ADD MSTORE SWAP5 ISZERO ISZERO SWAP6 DUP8 ADD SWAP6 SWAP1 SWAP6 MSTORE SWAP2 ISZERO ISZERO PUSH1 0x60 DUP7 ADD MSTORE ISZERO ISZERO PUSH1 0x80 DUP6 ADD MSTORE PUSH1 0xA0 DUP5 ADD MSTORE PUSH1 0xC0 DUP4 ADD SWAP2 SWAP1 SWAP2 MSTORE PUSH1 0xE0 DUP3 ADD MSTORE PUSH2 0x100 ADD PUSH2 0x1CD JUMP JUMPDEST PUSH2 0x293 PUSH2 0x690 CALLDATASIZE PUSH1 0x4 PUSH2 0x1684 JUMP JUMPDEST PUSH2 0x12F4 JUMP JUMPDEST PUSH2 0x293 PUSH2 0x6A3 CALLDATASIZE PUSH1 0x4 PUSH2 0x1684 JUMP JUMPDEST PUSH2 0x1340 JUMP JUMPDEST PUSH2 0x235 PUSH2 0x6B6 CALLDATASIZE PUSH1 0x4 PUSH2 0x19C3 JUMP JUMPDEST PUSH1 0x6 PUSH1 0x20 SWAP1 DUP2 MSTORE PUSH1 0x0 SWAP4 DUP5 MSTORE PUSH1 0x40 DUP1 DUP6 KECCAK256 DUP3 MSTORE SWAP3 DUP5 MSTORE DUP3 DUP5 KECCAK256 SWAP1 MSTORE DUP3 MSTORE SWAP1 KECCAK256 SLOAD DUP2 JUMP JUMPDEST PUSH2 0x293 PUSH2 0x6E7 CALLDATASIZE PUSH1 0x4 PUSH2 0x1962 JUMP JUMPDEST PUSH2 0x13D8 JUMP JUMPDEST PUSH2 0x1C0 PUSH2 0x6FA CALLDATASIZE PUSH1 0x4 PUSH2 0x1684 JUMP JUMPDEST PUSH2 0x13E2 JUMP JUMPDEST PUSH1 0x1 PUSH1 0x1 PUSH1 0xA0 SHL SUB DUP2 AND PUSH1 0x0 SWAP1 DUP2 MSTORE PUSH1 0x7 PUSH1 0x20 SWAP1 DUP2 MSTORE PUSH1 0x40 SWAP2 DUP3 SWAP1 KECCAK256 DUP1 SLOAD DUP4 MLOAD DUP2 DUP5 MUL DUP2 ADD DUP5 ADD SWAP1 SWAP5 MSTORE DUP1 DUP5 MSTORE PUSH1 0x60 SWAP4 SWAP3 DUP4 ADD DUP3 DUP3 DUP1 ISZERO PUSH2 0x769 JUMPI PUSH1 0x20 MUL DUP3 ADD SWAP2 SWAP1 PUSH1 0x0 MSTORE PUSH1 0x20 PUSH1 0x0 KECCAK256 SWAP1 JUMPDEST DUP2 SLOAD PUSH1 0x1 PUSH1 0x1 PUSH1 0xA0 SHL SUB AND DUP2 MSTORE PUSH1 0x1 SWAP1 SWAP2 ADD SWAP1 PUSH1 0x20 ADD DUP1 DUP4 GT PUSH2 0x74B JUMPI JUMPDEST POP POP POP POP POP SWAP1 POP SWAP2 SWAP1 POP JUMP JUMPDEST CALLER PUSH1 0x0 SWAP1 DUP2 MSTORE PUSH1 0x7 PUSH1 0x20 MSTORE PUSH1 0x40 DUP2 KECCAK256 SLOAD PUSH1 0x0 JUMPDEST DUP2 DUP2 GT ISZERO PUSH2 0x7ED JUMPI CALLER PUSH1 0x0 SWAP1 DUP2 MSTORE PUSH1 0x7 PUSH1 0x20 MSTORE PUSH1 0x40 SWAP1 KECCAK256 DUP1 SLOAD PUSH1 0x1 PUSH1 0x1 PUSH1 0xA0 SHL SUB DUP7 AND SWAP2 SWAP1 DUP4 SWAP1 DUP2 LT PUSH2 0x7BD JUMPI PUSH2 0x7BD PUSH2 0x19FF JUMP JUMPDEST PUSH1 0x0 SWAP2 DUP3 MSTORE PUSH1 0x20 SWAP1 SWAP2 KECCAK256 ADD SLOAD PUSH1 0x1 PUSH1 0x1 PUSH1 0xA0 SHL SUB AND SUB PUSH2 0x7DB JUMPI DUP1 SWAP3 POP JUMPDEST DUP1 PUSH2 0x7E5 DUP2 PUSH2 0x1A2B JUMP JUMPDEST SWAP2 POP POP PUSH2 0x788 JUMP JUMPDEST POP POP SWAP2 SWAP1 POP JUMP JUMPDEST PUSH2 0x84B PUSH1 0x40 MLOAD DUP1 PUSH2 0x120 ADD PUSH1 0x40 MSTORE DUP1 PUSH1 0x0 ISZERO ISZERO DUP2 MSTORE PUSH1 0x20 ADD PUSH1 0x0 DUP2 MSTORE PUSH1 0x20 ADD PUSH1 0x0 DUP2 MSTORE PUSH1 0x20 ADD PUSH1 0x0 DUP2 MSTORE PUSH1 0x20 ADD PUSH1 0x0 DUP2 MSTORE PUSH1 0x20 ADD PUSH1 0x0 DUP2 MSTORE PUSH1 0x20 ADD PUSH1 0x0 ISZERO ISZERO DUP2 MSTORE PUSH1 0x20 ADD PUSH1 0x0 ISZERO ISZERO DUP2 MSTORE PUSH1 0x20 ADD PUSH1 0x0 ISZERO ISZERO DUP2 MSTORE POP SWAP1 JUMP JUMPDEST POP PUSH1 0x1 PUSH1 0x1 PUSH1 0xA0 SHL SUB SWAP2 DUP3 AND PUSH1 0x0 SWAP1 DUP2 MSTORE PUSH1 0xD PUSH1 0x20 SWAP1 DUP2 MSTORE PUSH1 0x40 DUP1 DUP4 KECCAK256 SWAP4 SWAP1 SWAP5 AND DUP3 MSTORE SWAP2 DUP3 MSTORE DUP3 SWAP1 KECCAK256 DUP3 MLOAD PUSH2 0x120 DUP2 ADD DUP5 MSTORE DUP2 SLOAD PUSH1 0xFF SWAP1 DUP2 AND ISZERO ISZERO DUP3 MSTORE PUSH1 0x1 DUP4 ADD SLOAD SWAP4 DUP3 ADD SWAP4 SWAP1 SWAP4 MSTORE PUSH1 0x2 DUP3 ADD SLOAD SWAP4 DUP2 ADD SWAP4 SWAP1 SWAP4 MSTORE PUSH1 0x3 DUP2 ADD SLOAD PUSH1 0x60 DUP5 ADD MSTORE PUSH1 0x4 DUP2 ADD SLOAD PUSH1 0x80 DUP5 ADD MSTORE PUSH1 0x5 DUP2 ADD SLOAD PUSH1 0xA0 DUP5 ADD MSTORE PUSH1 0x6 ADD SLOAD DUP1 DUP3 AND ISZERO ISZERO PUSH1 0xC0 DUP5 ADD MSTORE PUSH2 0x100 DUP1 DUP3 DIV DUP4 AND ISZERO ISZERO PUSH1 0xE0 DUP6 ADD MSTORE PUSH3 0x10000 SWAP1 SWAP2 DIV SWAP1 SWAP2 AND ISZERO ISZERO SWAP1 DUP3 ADD MSTORE SWAP1 JUMP JUMPDEST PUSH1 0x0 SLOAD PUSH1 0x1 PUSH1 0x1 PUSH1 0xA0 SHL SUB AND CALLER EQ PUSH2 0x921 JUMPI PUSH1 0x40 MLOAD PUSH3 0x461BCD PUSH1 0xE5 SHL DUP2 MSTORE PUSH1 0x4 ADD PUSH2 0x918 SWAP1 PUSH2 0x1A44 JUMP JUMPDEST PUSH1 0x40 MLOAD DUP1 SWAP2 SUB SWAP1 REVERT JUMPDEST PUSH2 0x92B PUSH1 0x0 PUSH2 0x1456 JUMP JUMPDEST JUMP JUMPDEST CALLER PUSH1 0x0 SWAP1 DUP2 MSTORE PUSH1 0x8 PUSH1 0x20 MSTORE PUSH1 0x40 SWAP1 KECCAK256 DUP1 SLOAD PUSH1 0x1 PUSH1 0xA0 SHL SWAP1 DIV PUSH1 0xFF AND ISZERO ISZERO PUSH1 0x1 EQ PUSH2 0x986 JUMPI PUSH1 0x40 MLOAD PUSH3 0x461BCD PUSH1 0xE5 SHL DUP2 MSTORE PUSH1 0x20 PUSH1 0x4 DUP3 ADD MSTORE PUSH1 0xA PUSH1 0x24 DUP3 ADD MSTORE PUSH10 0x6E6F7420616374697665 PUSH1 0xB0 SHL PUSH1 0x44 DUP3 ADD MSTORE PUSH1 0x64 ADD PUSH2 0x918 JUMP JUMPDEST DUP2 PUSH1 0x0 SUB PUSH2 0xB8F JUMPI PUSH1 0x40 MLOAD DUP1 PUSH2 0x120 ADD PUSH1 0x40 MSTORE DUP1 PUSH1 0x0 ISZERO ISZERO DUP2 MSTORE PUSH1 0x20 ADD DUP7 DUP2 MSTORE PUSH1 0x20 ADD TIMESTAMP DUP2 MSTORE PUSH1 0x20 ADD DUP6 DUP2 MSTORE PUSH1 0x20 ADD DUP5 DUP2 MSTORE PUSH1 0x20 ADD PUSH1 0x0 DUP2 MSTORE PUSH1 0x20 ADD PUSH1 0x1 ISZERO ISZERO DUP2 MSTORE PUSH1 0x20 ADD PUSH1 0x0 ISZERO ISZERO DUP2 MSTORE PUSH1 0x20 ADD PUSH1 0x0 ISZERO ISZERO DUP2 MSTORE POP PUSH1 0xD PUSH1 0x0 CALLER PUSH1 0x1 PUSH1 0x1 PUSH1 0xA0 SHL SUB AND PUSH1 0x1 PUSH1 0x1 PUSH1 0xA0 SHL SUB AND DUP2 MSTORE PUSH1 0x20 ADD SWAP1 DUP2 MSTORE PUSH1 0x20 ADD PUSH1 0x0 KECCAK256 PUSH1 0x0 DUP9 PUSH1 0x1 PUSH1 0x1 PUSH1 0xA0 SHL SUB AND PUSH1 0x1 PUSH1 0x1 PUSH1 0xA0 SHL SUB AND DUP2 MSTORE PUSH1 0x20 ADD SWAP1 DUP2 MSTORE PUSH1 0x20 ADD PUSH1 0x0 KECCAK256 PUSH1 0x0 DUP3 ADD MLOAD DUP2 PUSH1 0x0 ADD PUSH1 0x0 PUSH2 0x100 EXP DUP2 SLOAD DUP2 PUSH1 0xFF MUL NOT AND SWAP1 DUP4 ISZERO ISZERO MUL OR SWAP1 SSTORE POP PUSH1 0x20 DUP3 ADD MLOAD DUP2 PUSH1 0x1 ADD SSTORE PUSH1 0x40 DUP3 ADD MLOAD DUP2 PUSH1 0x2 ADD SSTORE PUSH1 0x60 DUP3 ADD MLOAD DUP2 PUSH1 0x3 ADD SSTORE PUSH1 0x80 DUP3 ADD MLOAD DUP2 PUSH1 0x4 ADD SSTORE PUSH1 0xA0 DUP3 ADD MLOAD DUP2 PUSH1 0x5 ADD SSTORE PUSH1 0xC0 DUP3 ADD MLOAD DUP2 PUSH1 0x6 ADD PUSH1 0x0 PUSH2 0x100 EXP DUP2 SLOAD DUP2 PUSH1 0xFF MUL NOT AND SWAP1 DUP4 ISZERO ISZERO MUL OR SWAP1 SSTORE POP PUSH1 0xE0 DUP3 ADD MLOAD DUP2 PUSH1 0x6 ADD PUSH1 0x1 PUSH2 0x100 EXP DUP2 SLOAD DUP2 PUSH1 0xFF MUL NOT AND SWAP1 DUP4 ISZERO ISZERO MUL OR SWAP1 SSTORE POP PUSH2 0x100 DUP3 ADD MLOAD DUP2 PUSH1 0x6 ADD PUSH1 0x2 PUSH2 0x100 EXP DUP2 SLOAD DUP2 PUSH1 0xFF MUL NOT AND SWAP1 DUP4 ISZERO ISZERO MUL OR SWAP1 SSTORE POP SWAP1 POP POP DUP5 PUSH1 0x8 PUSH1 0x0 CALLER PUSH1 0x1 PUSH1 0x1 PUSH1 0xA0 SHL SUB AND PUSH1 0x1 PUSH1 0x1 PUSH1 0xA0 SHL SUB AND DUP2 MSTORE PUSH1 0x20 ADD SWAP1 DUP2 MSTORE PUSH1 0x20 ADD PUSH1 0x0 KECCAK256 PUSH1 0x1 ADD PUSH1 0x0 DUP3 DUP3 SLOAD PUSH2 0xB11 SWAP2 SWAP1 PUSH2 0x1A79 JUMP JUMPDEST SWAP1 SWAP2 SSTORE POP POP CALLER PUSH1 0x0 SWAP1 DUP2 MSTORE PUSH1 0x7 PUSH1 0x20 SWAP1 DUP2 MSTORE PUSH1 0x40 DUP3 KECCAK256 DUP1 SLOAD PUSH1 0x1 DUP2 DUP2 ADD DUP4 SSTORE SWAP2 DUP5 MSTORE SWAP2 DUP4 KECCAK256 SWAP1 SWAP2 ADD DUP1 SLOAD PUSH1 0x1 PUSH1 0x1 PUSH1 0xA0 SHL SUB DUP11 AND PUSH1 0x1 PUSH1 0x1 PUSH1 0xA0 SHL SUB NOT SWAP2 DUP3 AND DUP2 OR SWAP1 SWAP3 SSTORE PUSH1 0xB DUP1 SLOAD SWAP4 DUP5 ADD DUP2 SSTORE SWAP1 SWAP4 MSTORE PUSH32 0x175B7A638427703F0DBE7BB9BBF987A2551717B34E79F33B5B1008D1FA01DB9 SWAP1 SWAP2 ADD DUP1 SLOAD SWAP1 SWAP3 AND OR SWAP1 SSTORE JUMPDEST DUP2 PUSH1 0x1 SUB PUSH2 0xD98 JUMPI PUSH1 0x40 MLOAD DUP1 PUSH2 0x120 ADD PUSH1 0x40 MSTORE DUP1 PUSH1 0x0 ISZERO ISZERO DUP2 MSTORE PUSH1 0x20 ADD DUP7 DUP2 MSTORE PUSH1 0x20 ADD TIMESTAMP DUP2 MSTORE PUSH1 0x20 ADD DUP6 DUP2 MSTORE PUSH1 0x20 ADD DUP5 DUP2 MSTORE PUSH1 0x20 ADD PUSH1 0x0 DUP2 MSTORE PUSH1 0x20 ADD PUSH1 0x0 ISZERO ISZERO DUP2 MSTORE PUSH1 0x20 ADD PUSH1 0x1 ISZERO ISZERO DUP2 MSTORE PUSH1 0x20 ADD PUSH1 0x0 ISZERO ISZERO DUP2 MSTORE POP PUSH1 0xD PUSH1 0x0 CALLER PUSH1 0x1 PUSH1 0x1 PUSH1 0xA0 SHL SUB AND PUSH1 0x1 PUSH1 0x1 PUSH1 0xA0 SHL SUB AND DUP2 MSTORE PUSH1 0x20 ADD SWAP1 DUP2 MSTORE PUSH1 0x20 ADD PUSH1 0x0 KECCAK256 PUSH1 0x0 DUP9 PUSH1 0x1 PUSH1 0x1 PUSH1 0xA0 SHL SUB AND PUSH1 0x1 PUSH1 0x1 PUSH1 0xA0 SHL SUB AND DUP2 MSTORE PUSH1 0x20 ADD SWAP1 DUP2 MSTORE PUSH1 0x20 ADD PUSH1 0x0 KECCAK256 PUSH1 0x0 DUP3 ADD MLOAD DUP2 PUSH1 0x0 ADD PUSH1 0x0 PUSH2 0x100 EXP DUP2 SLOAD DUP2 PUSH1 0xFF MUL NOT AND SWAP1 DUP4 ISZERO ISZERO MUL OR SWAP1 SSTORE POP PUSH1 0x20 DUP3 ADD MLOAD DUP2 PUSH1 0x1 ADD SSTORE PUSH1 0x40 DUP3 ADD MLOAD DUP2 PUSH1 0x2 ADD SSTORE PUSH1 0x60 DUP3 ADD MLOAD DUP2 PUSH1 0x3 ADD SSTORE PUSH1 0x80 DUP3 ADD MLOAD DUP2 PUSH1 0x4 ADD SSTORE PUSH1 0xA0 DUP3 ADD MLOAD DUP2 PUSH1 0x5 ADD SSTORE PUSH1 0xC0 DUP3 ADD MLOAD DUP2 PUSH1 0x6 ADD PUSH1 0x0 PUSH2 0x100 EXP DUP2 SLOAD DUP2 PUSH1 0xFF MUL NOT AND SWAP1 DUP4 ISZERO ISZERO MUL OR SWAP1 SSTORE POP PUSH1 0xE0 DUP3 ADD MLOAD DUP2 PUSH1 0x6 ADD PUSH1 0x1 PUSH2 0x100 EXP DUP2 SLOAD DUP2 PUSH1 0xFF MUL NOT AND SWAP1 DUP4 ISZERO ISZERO MUL OR SWAP1 SSTORE POP PUSH2 0x100 DUP3 ADD MLOAD DUP2 PUSH1 0x6 ADD PUSH1 0x2 PUSH2 0x100 EXP DUP2 SLOAD DUP2 PUSH1 0xFF MUL NOT AND SWAP1 DUP4 ISZERO ISZERO MUL OR SWAP1 SSTORE POP SWAP1 POP POP DUP5 PUSH1 0x8 PUSH1 0x0 CALLER PUSH1 0x1 PUSH1 0x1 PUSH1 0xA0 SHL SUB AND PUSH1 0x1 PUSH1 0x1 PUSH1 0xA0 SHL SUB AND DUP2 MSTORE PUSH1 0x20 ADD SWAP1 DUP2 MSTORE PUSH1 0x20 ADD PUSH1 0x0 KECCAK256 PUSH1 0x1 ADD PUSH1 0x0 DUP3 DUP3 SLOAD PUSH2 0xD1A SWAP2 SWAP1 PUSH2 0x1A79 JUMP JUMPDEST SWAP1 SWAP2 SSTORE POP POP CALLER PUSH1 0x0 SWAP1 DUP2 MSTORE PUSH1 0x7 PUSH1 0x20 SWAP1 DUP2 MSTORE PUSH1 0x40 DUP3 KECCAK256 DUP1 SLOAD PUSH1 0x1 DUP2 DUP2 ADD DUP4 SSTORE SWAP2 DUP5 MSTORE SWAP2 DUP4 KECCAK256 SWAP1 SWAP2 ADD DUP1 SLOAD PUSH1 0x1 PUSH1 0x1 PUSH1 0xA0 SHL SUB DUP11 AND PUSH1 0x1 PUSH1 0x1 PUSH1 0xA0 SHL SUB NOT SWAP2 DUP3 AND DUP2 OR SWAP1 SWAP3 SSTORE PUSH1 0xA DUP1 SLOAD SWAP4 DUP5 ADD DUP2 SSTORE SWAP1 SWAP4 MSTORE PUSH32 0xC65A7BB8D6351C1CF70C95A316CC6A92839C986682D98BC35F958F4883F9D2A8 SWAP1 SWAP2 ADD DUP1 SLOAD SWAP1 SWAP3 AND OR SWAP1 SSTORE JUMPDEST POP POP POP PUSH1 0x1 PUSH1 0x1 PUSH1 0xA0 SHL SUB SWAP1 SWAP3 AND PUSH1 0x0 SWAP1 DUP2 MSTORE PUSH1 0x9 PUSH1 0x20 SWAP1 DUP2 MSTORE PUSH1 0x40 DUP3 KECCAK256 DUP1 SLOAD PUSH1 0x1 DUP2 ADD DUP3 SSTORE SWAP1 DUP4 MSTORE SWAP2 KECCAK256 ADD DUP1 SLOAD PUSH1 0x1 PUSH1 0x1 PUSH1 0xA0 SHL SUB NOT AND CALLER OR SWAP1 SSTORE POP POP JUMP JUMPDEST PUSH1 0x7 PUSH1 0x20 MSTORE DUP2 PUSH1 0x0 MSTORE PUSH1 0x40 PUSH1 0x0 KECCAK256 DUP2 DUP2 SLOAD DUP2 LT PUSH2 0xDF4 JUMPI PUSH1 0x0 DUP1 REVERT JUMPDEST PUSH1 0x0 SWAP2 DUP3 MSTORE PUSH1 0x20 SWAP1 SWAP2 KECCAK256 ADD SLOAD PUSH1 0x1 PUSH1 0x1 PUSH1 0xA0 SHL SUB AND SWAP2 POP DUP3 SWAP1 POP JUMP JUMPDEST PUSH2 0xE1A DUP3 DUP3 PUSH2 0x14A6 JUMP JUMPDEST POP POP JUMP JUMPDEST CALLER PUSH1 0x0 SWAP1 DUP2 MSTORE PUSH1 0x7 PUSH1 0x20 MSTORE PUSH1 0x40 SWAP1 KECCAK256 SLOAD DUP1 PUSH2 0xE38 JUMPI PUSH1 0x0 DUP1 REVERT JUMPDEST PUSH1 0x3 SLOAD PUSH1 0x4 SLOAD CALLER PUSH1 0x0 DUP2 DUP2 MSTORE PUSH1 0x8 PUSH1 0x20 MSTORE PUSH1 0x40 DUP2 KECCAK256 PUSH1 0x1 ADD SLOAD SWAP1 SWAP4 PUSH1 0x1 PUSH1 0x1 PUSH1 0xA0 SHL SUB SWAP1 DUP2 AND SWAP4 PUSH4 0x23B872DD SWAP4 SWAP3 SWAP2 AND SWAP1 PUSH1 0x40 MLOAD PUSH1 0x1 PUSH1 0x1 PUSH1 0xE0 SHL SUB NOT PUSH1 0xE0 DUP7 SWAP1 SHL AND DUP2 MSTORE PUSH1 0x1 PUSH1 0x1 PUSH1 0xA0 SHL SUB SWAP4 DUP5 AND PUSH1 0x4 DUP3 ADD MSTORE SWAP3 SWAP1 SWAP2 AND PUSH1 0x24 DUP4 ADD MSTORE PUSH1 0x44 DUP3 ADD MSTORE PUSH1 0x64 ADD PUSH1 0x20 PUSH1 0x40 MLOAD DUP1 DUP4 SUB DUP2 PUSH1 0x0 DUP8 GAS CALL ISZERO DUP1 ISZERO PUSH2 0xEBD JUMPI RETURNDATASIZE PUSH1 0x0 DUP1 RETURNDATACOPY RETURNDATASIZE PUSH1 0x0 REVERT JUMPDEST POP POP POP POP PUSH1 0x40 MLOAD RETURNDATASIZE PUSH1 0x1F NOT PUSH1 0x1F DUP3 ADD AND DUP3 ADD DUP1 PUSH1 0x40 MSTORE POP DUP2 ADD SWAP1 PUSH2 0xEE1 SWAP2 SWAP1 PUSH2 0x1A91 JUMP JUMPDEST SWAP1 POP DUP1 PUSH2 0xF22 JUMPI PUSH1 0x40 MLOAD PUSH3 0x461BCD PUSH1 0xE5 SHL DUP2 MSTORE PUSH1 0x20 PUSH1 0x4 DUP3 ADD MSTORE PUSH1 0xF PUSH1 0x24 DUP3 ADD MSTORE PUSH15 0x1D1C985B9CD9995C8819985A5B1959 PUSH1 0x8A SHL PUSH1 0x44 DUP3 ADD MSTORE PUSH1 0x64 ADD PUSH2 0x918 JUMP JUMPDEST PUSH1 0x0 JUMPDEST DUP3 DUP2 LT ISZERO PUSH2 0xFDB JUMPI CALLER PUSH1 0x0 SWAP1 DUP2 MSTORE PUSH1 0x7 PUSH1 0x20 MSTORE PUSH1 0x40 DUP2 KECCAK256 DUP1 SLOAD DUP4 SWAP1 DUP2 LT PUSH2 0xF4E JUMPI PUSH2 0xF4E PUSH2 0x19FF JUMP JUMPDEST PUSH1 0x0 SWAP2 DUP3 MSTORE PUSH1 0x20 SWAP1 SWAP2 KECCAK256 ADD SLOAD PUSH1 0x4 DUP1 SLOAD PUSH1 0x40 MLOAD PUSH4 0x24B48F3 PUSH1 0xE6 SHL DUP2 MSTORE CALLER SWAP3 DUP2 ADD SWAP3 SWAP1 SWAP3 MSTORE PUSH1 0x1 PUSH1 0x1 PUSH1 0xA0 SHL SUB SWAP3 DUP4 AND PUSH1 0x24 DUP4 ADD DUP2 SWAP1 MSTORE SWAP4 POP SWAP2 SWAP1 SWAP2 AND SWAP1 PUSH4 0x92D23CC0 SWAP1 PUSH1 0x44 ADD PUSH1 0x0 PUSH1 0x40 MLOAD DUP1 DUP4 SUB DUP2 PUSH1 0x0 DUP8 DUP1 EXTCODESIZE ISZERO DUP1 ISZERO PUSH2 0xFAF JUMPI PUSH1 0x0 DUP1 REVERT JUMPDEST POP GAS CALL ISZERO DUP1 ISZERO PUSH2 0xFC3 JUMPI RETURNDATASIZE PUSH1 0x0 DUP1 RETURNDATACOPY RETURNDATASIZE PUSH1 0x0 REVERT JUMPDEST POP POP POP POP POP DUP1 DUP1 PUSH2 0xFD3 SWAP1 PUSH2 0x1A2B JUMP JUMPDEST SWAP2 POP POP PUSH2 0xF25 JUMP JUMPDEST POP POP POP JUMP JUMPDEST DUP2 PUSH1 0xFF AND PUSH1 0x0 SUB PUSH2 0x10CE JUMPI PUSH1 0x40 DUP1 MLOAD PUSH2 0x100 DUP2 ADD DUP3 MSTORE PUSH1 0x1 PUSH1 0x1 PUSH1 0xA0 SHL SUB DUP1 DUP5 AND DUP1 DUP4 MSTORE PUSH1 0x1 PUSH1 0x20 DUP1 DUP6 ADD DUP3 DUP2 MSTORE DUP6 DUP8 ADD DUP4 DUP2 MSTORE PUSH1 0x0 PUSH1 0x60 DUP9 ADD DUP2 DUP2 MSTORE PUSH1 0x80 DUP10 ADD DUP3 DUP2 MSTORE PUSH1 0xA0 DUP11 ADD DUP4 DUP2 MSTORE PUSH1 0xC0 DUP12 ADD DUP5 DUP2 MSTORE PUSH1 0xE0 DUP13 ADD DUP6 DUP2 MSTORE SWAP10 DUP6 MSTORE PUSH1 0x8 SWAP1 SWAP8 MSTORE SWAP11 SWAP1 SWAP3 KECCAK256 SWAP9 MLOAD DUP10 SLOAD SWAP5 MLOAD SWAP4 MLOAD SWAP2 MLOAD SWAP3 MLOAD ISZERO ISZERO PUSH1 0x1 PUSH1 0xB8 SHL MUL PUSH1 0xFF PUSH1 0xB8 SHL NOT SWAP4 ISZERO ISZERO PUSH1 0x1 PUSH1 0xB0 SHL MUL PUSH1 0xFF PUSH1 0xB0 SHL NOT SWAP4 ISZERO ISZERO PUSH1 0x1 PUSH1 0xA8 SHL MUL SWAP4 SWAP1 SWAP4 AND PUSH2 0xFFFF PUSH1 0xA8 SHL NOT SWAP6 ISZERO ISZERO PUSH1 0x1 PUSH1 0xA0 SHL MUL PUSH1 0x1 PUSH1 0x1 PUSH1 0xA8 SHL SUB NOT SWAP1 SWAP8 AND SWAP3 SWAP1 SWAP11 AND SWAP2 SWAP1 SWAP2 OR SWAP5 SWAP1 SWAP5 OR SWAP3 SWAP1 SWAP3 AND SWAP7 SWAP1 SWAP7 OR OR SWAP5 SWAP1 SWAP5 AND SWAP4 SWAP1 SWAP4 OR DUP5 SSTORE SWAP4 MLOAD SWAP4 DUP4 ADD SWAP4 SWAP1 SWAP4 SSTORE MLOAD PUSH1 0x2 DUP3 ADD SSTORE SWAP1 MLOAD PUSH1 0x3 SWAP1 SWAP2 ADD SSTORE JUMPDEST DUP2 PUSH1 0xFF AND PUSH1 0x1 SUB PUSH2 0x11BD JUMPI PUSH1 0x40 DUP1 MLOAD PUSH2 0x100 DUP2 ADD DUP3 MSTORE PUSH1 0x1 PUSH1 0x1 PUSH1 0xA0 SHL SUB SWAP3 DUP4 AND DUP1 DUP3 MSTORE PUSH1 0x1 PUSH1 0x20 DUP1 DUP5 ADD DUP3 DUP2 MSTORE PUSH1 0x0 DUP6 DUP8 ADD DUP2 DUP2 MSTORE PUSH1 0x60 DUP8 ADD DUP6 DUP2 MSTORE PUSH1 0x80 DUP9 ADD DUP4 DUP2 MSTORE PUSH1 0xA0 DUP10 ADD DUP5 DUP2 MSTORE PUSH1 0xC0 DUP11 ADD DUP6 DUP2 MSTORE PUSH1 0xE0 DUP12 ADD DUP7 DUP2 MSTORE SWAP10 DUP7 MSTORE PUSH1 0x8 SWAP1 SWAP8 MSTORE SWAP10 SWAP1 SWAP4 KECCAK256 SWAP8 MLOAD DUP9 SLOAD SWAP5 MLOAD SWAP3 MLOAD SWAP2 MLOAD SWAP4 MLOAD SWAP11 AND PUSH1 0x1 PUSH1 0x1 PUSH1 0xA8 SHL SUB NOT SWAP1 SWAP5 AND SWAP4 SWAP1 SWAP4 OR PUSH1 0x1 PUSH1 0xA0 SHL SWAP2 ISZERO ISZERO SWAP2 SWAP1 SWAP2 MUL OR PUSH2 0xFFFF PUSH1 0xA8 SHL NOT AND PUSH1 0x1 PUSH1 0xA8 SHL SWAP3 ISZERO ISZERO SWAP3 SWAP1 SWAP3 MUL PUSH1 0xFF PUSH1 0xB0 SHL NOT AND SWAP2 SWAP1 SWAP2 OR PUSH1 0x1 PUSH1 0xB0 SHL SWAP2 ISZERO ISZERO SWAP2 SWAP1 SWAP2 MUL OR PUSH1 0xFF PUSH1 0xB8 SHL NOT AND PUSH1 0x1 PUSH1 0xB8 SHL SWAP7 ISZERO ISZERO SWAP7 SWAP1 SWAP7 MUL SWAP6 SWAP1 SWAP6 OR DUP4 SSTORE SWAP3 MLOAD SWAP3 DUP3 ADD SWAP3 SWAP1 SWAP3 SSTORE SWAP2 MLOAD PUSH1 0x2 DUP4 ADD SSTORE MLOAD PUSH1 0x3 SWAP1 SWAP2 ADD SSTORE POP JUMP JUMPDEST PUSH1 0x40 DUP1 MLOAD PUSH2 0x100 DUP2 ADD DUP3 MSTORE PUSH1 0x1 PUSH1 0x1 PUSH1 0xA0 SHL SUB SWAP3 DUP4 AND DUP1 DUP3 MSTORE PUSH1 0x1 PUSH1 0x20 DUP1 DUP5 ADD DUP3 DUP2 MSTORE PUSH1 0x0 DUP6 DUP8 ADD DUP2 DUP2 MSTORE PUSH1 0x60 DUP8 ADD DUP3 DUP2 MSTORE PUSH1 0x80 DUP9 ADD DUP7 DUP2 MSTORE PUSH1 0xA0 DUP10 ADD DUP5 DUP2 MSTORE PUSH1 0xC0 DUP11 ADD DUP6 DUP2 MSTORE PUSH1 0xE0 DUP12 ADD DUP7 DUP2 MSTORE SWAP10 DUP7 MSTORE PUSH1 0x8 SWAP1 SWAP8 MSTORE SWAP10 SWAP1 SWAP4 KECCAK256 SWAP8 MLOAD DUP9 SLOAD SWAP5 MLOAD SWAP3 MLOAD SWAP2 MLOAD SWAP4 MLOAD SWAP11 AND PUSH1 0x1 PUSH1 0x1 PUSH1 0xA8 SHL SUB NOT SWAP1 SWAP5 AND SWAP4 SWAP1 SWAP4 OR PUSH1 0x1 PUSH1 0xA0 SHL SWAP2 ISZERO ISZERO SWAP2 SWAP1 SWAP2 MUL OR PUSH2 0xFFFF PUSH1 0xA8 SHL NOT AND PUSH1 0x1 PUSH1 0xA8 SHL SWAP3 ISZERO ISZERO SWAP3 SWAP1 SWAP3 MUL PUSH1 0xFF PUSH1 0xB0 SHL NOT AND SWAP2 SWAP1 SWAP2 OR PUSH1 0x1 PUSH1 0xB0 SHL SWAP2 ISZERO ISZERO SWAP2 SWAP1 SWAP2 MUL OR PUSH1 0xFF PUSH1 0xB8 SHL NOT AND PUSH1 0x1 PUSH1 0xB8 SHL SWAP7 ISZERO ISZERO SWAP7 SWAP1 SWAP7 MUL SWAP6 SWAP1 SWAP6 OR DUP4 SSTORE SWAP3 MLOAD SWAP3 DUP3 ADD SWAP3 SWAP1 SWAP3 SSTORE SWAP2 MLOAD PUSH1 0x2 DUP4 ADD SSTORE MLOAD PUSH1 0x3 SWAP1 SWAP2 ADD SSTORE POP JUMP JUMPDEST PUSH2 0x12AB ADDRESS DUP3 PUSH2 0x15C5 JUMP JUMPDEST POP JUMP JUMPDEST PUSH1 0x1 PUSH1 0x1 PUSH1 0xA0 SHL SUB DUP1 DUP4 AND PUSH1 0x0 SWAP1 DUP2 MSTORE PUSH1 0xD PUSH1 0x20 SWAP1 DUP2 MSTORE PUSH1 0x40 DUP1 DUP4 KECCAK256 SWAP4 DUP6 AND DUP4 MSTORE SWAP3 SWAP1 MSTORE SWAP1 DUP2 KECCAK256 PUSH1 0x1 ADD SLOAD DUP2 PUSH2 0x12E7 PUSH3 0x278D00 DUP4 PUSH2 0x1AB3 JUMP JUMPDEST SWAP1 POP DUP1 JUMPDEST SWAP6 SWAP5 POP POP POP POP POP JUMP JUMPDEST PUSH1 0x0 SLOAD PUSH1 0x1 PUSH1 0x1 PUSH1 0xA0 SHL SUB AND CALLER EQ PUSH2 0x131E JUMPI PUSH1 0x40 MLOAD PUSH3 0x461BCD PUSH1 0xE5 SHL DUP2 MSTORE PUSH1 0x4 ADD PUSH2 0x918 SWAP1 PUSH2 0x1A44 JUMP JUMPDEST PUSH1 0x4 DUP1 SLOAD PUSH1 0x1 PUSH1 0x1 PUSH1 0xA0 SHL SUB NOT AND PUSH1 0x1 PUSH1 0x1 PUSH1 0xA0 SHL SUB SWAP3 SWAP1 SWAP3 AND SWAP2 SWAP1 SWAP2 OR SWAP1 SSTORE JUMP JUMPDEST PUSH1 0x0 SLOAD PUSH1 0x1 PUSH1 0x1 PUSH1 0xA0 SHL SUB AND CALLER EQ PUSH2 0x136A JUMPI PUSH1 0x40 MLOAD PUSH3 0x461BCD PUSH1 0xE5 SHL DUP2 MSTORE PUSH1 0x4 ADD PUSH2 0x918 SWAP1 PUSH2 0x1A44 JUMP JUMPDEST PUSH1 0x1 PUSH1 0x1 PUSH1 0xA0 SHL SUB DUP2 AND PUSH2 0x13CF JUMPI PUSH1 0x40 MLOAD PUSH3 0x461BCD PUSH1 0xE5 SHL DUP2 MSTORE PUSH1 0x20 PUSH1 0x4 DUP3 ADD MSTORE PUSH1 0x26 PUSH1 0x24 DUP3 ADD MSTORE PUSH32 0x4F776E61626C653A206E6577206F776E657220697320746865207A65726F2061 PUSH1 0x44 DUP3 ADD MSTORE PUSH6 0x646472657373 PUSH1 0xD0 SHL PUSH1 0x64 DUP3 ADD MSTORE PUSH1 0x84 ADD PUSH2 0x918 JUMP JUMPDEST PUSH2 0x12AB DUP2 PUSH2 0x1456 JUMP JUMPDEST PUSH2 0xE1A DUP3 DUP3 PUSH2 0x1610 JUMP JUMPDEST PUSH1 0x1 PUSH1 0x1 PUSH1 0xA0 SHL SUB DUP2 AND PUSH1 0x0 SWAP1 DUP2 MSTORE PUSH1 0x9 PUSH1 0x20 SWAP1 DUP2 MSTORE PUSH1 0x40 SWAP2 DUP3 SWAP1 KECCAK256 DUP1 SLOAD DUP4 MLOAD DUP2 DUP5 MUL DUP2 ADD DUP5 ADD SWAP1 SWAP5 MSTORE DUP1 DUP5 MSTORE PUSH1 0x60 SWAP4 SWAP3 DUP4 ADD DUP3 DUP3 DUP1 ISZERO PUSH2 0x769 JUMPI PUSH1 0x20 MUL DUP3 ADD SWAP2 SWAP1 PUSH1 0x0 MSTORE PUSH1 0x20 PUSH1 0x0 KECCAK256 SWAP1 DUP2 SLOAD PUSH1 0x1 PUSH1 0x1 PUSH1 0xA0 SHL SUB AND DUP2 MSTORE PUSH1 0x1 SWAP1 SWAP2 ADD SWAP1 PUSH1 0x20 ADD DUP1 DUP4 GT PUSH2 0x74B JUMPI POP POP POP POP POP SWAP1 POP SWAP2 SWAP1 POP JUMP JUMPDEST PUSH1 0x0 DUP1 SLOAD PUSH1 0x1 PUSH1 0x1 PUSH1 0xA0 SHL SUB DUP4 DUP2 AND PUSH1 0x1 PUSH1 0x1 PUSH1 0xA0 SHL SUB NOT DUP4 AND DUP2 OR DUP5 SSTORE PUSH1 0x40 MLOAD SWAP2 SWAP1 SWAP3 AND SWAP3 DUP4 SWAP2 PUSH32 0x8BE0079C531659141344CD1FD0A4F28419497F9722A3DAAFE3B4186F6B6457E0 SWAP2 SWAP1 LOG3 POP POP JUMP JUMPDEST PUSH1 0x1 PUSH1 0x1 PUSH1 0xA0 SHL SUB DUP3 AND ADDRESS EQ DUP1 PUSH2 0x14C4 JUMPI POP PUSH1 0x1 PUSH1 0x1 PUSH1 0xA0 SHL SUB DUP3 AND ISZERO JUMPDEST ISZERO PUSH2 0x14CD JUMPI POP POP JUMP JUMPDEST PUSH1 0x2 SLOAD PUSH1 0x1 SLOAD PUSH1 0x3 SLOAD PUSH1 0x1 PUSH1 0x1 PUSH1 0xA0 SHL SUB SWAP3 DUP4 AND SWAP3 PUSH4 0x39255D5B SWAP3 DUP2 AND SWAP2 PUSH4 0x317E182F PUSH1 0xE1 SHL SWAP2 AND DUP7 DUP7 PUSH1 0x0 JUMPDEST PUSH1 0x40 MLOAD SWAP1 DUP1 DUP3 MSTORE DUP1 PUSH1 0x1F ADD PUSH1 0x1F NOT AND PUSH1 0x20 ADD DUP3 ADD PUSH1 0x40 MSTORE DUP1 ISZERO PUSH2 0x1524 JUMPI PUSH1 0x20 DUP3 ADD DUP2 DUP1 CALLDATASIZE DUP4 CALLDATACOPY ADD SWAP1 POP JUMPDEST POP PUSH1 0x40 MLOAD PUSH1 0x24 ADD PUSH2 0x1538 SWAP5 SWAP4 SWAP3 SWAP2 SWAP1 PUSH2 0x1B31 JUMP JUMPDEST PUSH1 0x40 DUP1 MLOAD PUSH1 0x1F NOT DUP2 DUP5 SUB ADD DUP2 MSTORE SWAP2 DUP2 MSTORE PUSH1 0x20 DUP3 ADD DUP1 MLOAD PUSH1 0x1 PUSH1 0x1 PUSH1 0xE0 SHL SUB AND PUSH1 0x1 PUSH1 0x1 PUSH1 0xE0 SHL SUB NOT SWAP5 DUP6 AND OR SWAP1 MSTORE MLOAD PUSH1 0xE0 DUP6 SWAP1 SHL SWAP1 SWAP3 AND DUP3 MSTORE PUSH2 0x157E SWAP3 SWAP2 PUSH1 0x4 ADD PUSH2 0x1B71 JUMP JUMPDEST PUSH1 0x0 PUSH1 0x40 MLOAD DUP1 DUP4 SUB DUP2 PUSH1 0x0 DUP8 GAS CALL ISZERO DUP1 ISZERO PUSH2 0x159D JUMPI RETURNDATASIZE PUSH1 0x0 DUP1 RETURNDATACOPY RETURNDATASIZE PUSH1 0x0 REVERT JUMPDEST POP POP POP POP PUSH1 0x40 MLOAD RETURNDATASIZE PUSH1 0x0 DUP3 RETURNDATACOPY PUSH1 0x1F RETURNDATASIZE SWAP1 DUP2 ADD PUSH1 0x1F NOT AND DUP3 ADD PUSH1 0x40 MSTORE PUSH2 0xFDB SWAP2 SWAP1 DUP2 ADD SWAP1 PUSH2 0x1BB8 JUMP JUMPDEST PUSH1 0x2 SLOAD PUSH1 0x1 SLOAD PUSH1 0x3 SLOAD PUSH1 0x40 DUP1 MLOAD PUSH1 0x0 DUP2 MSTORE PUSH1 0x20 DUP2 ADD SWAP1 SWAP2 MSTORE PUSH1 0x1 PUSH1 0x1 PUSH1 0xA0 SHL SUB SWAP4 DUP5 AND SWAP4 PUSH4 0x39255D5B SWAP4 DUP2 AND SWAP3 PUSH4 0x5A5999E3 PUSH1 0xE1 SHL SWAP3 PUSH2 0x1538 SWAP3 SWAP1 SWAP2 AND SWAP1 DUP9 SWAP1 DUP9 SWAP1 PUSH1 0x44 DUP2 ADD PUSH2 0x1C26 JUMP JUMPDEST PUSH1 0x1 PUSH1 0x1 PUSH1 0xA0 SHL SUB DUP3 AND ADDRESS EQ DUP1 PUSH2 0x162E JUMPI POP PUSH1 0x1 PUSH1 0x1 PUSH1 0xA0 SHL SUB DUP3 AND ISZERO JUMPDEST ISZERO PUSH2 0x1637 JUMPI POP POP JUMP JUMPDEST PUSH1 0x2 SLOAD PUSH1 0x1 SLOAD PUSH1 0x3 SLOAD PUSH1 0x1 PUSH1 0x1 PUSH1 0xA0 SHL SUB SWAP3 DUP4 AND SWAP3 PUSH4 0x39255D5B SWAP3 DUP2 AND SWAP2 PUSH4 0x28104D31 PUSH1 0xE1 SHL SWAP2 AND DUP7 DUP7 PUSH1 0x0 PUSH2 0x14FA JUMP JUMPDEST DUP1 CALLDATALOAD PUSH1 0x1 PUSH1 0x1 PUSH1 0xA0 SHL SUB DUP2 AND DUP2 EQ PUSH2 0x167F JUMPI PUSH1 0x0 DUP1 REVERT JUMPDEST SWAP2 SWAP1 POP JUMP JUMPDEST PUSH1 0x0 PUSH1 0x20 DUP3 DUP5 SUB SLT ISZERO PUSH2 0x1696 JUMPI PUSH1 0x0 DUP1 REVERT JUMPDEST PUSH2 0x169F DUP3 PUSH2 0x1668 JUMP JUMPDEST SWAP4 SWAP3 POP POP POP JUMP JUMPDEST PUSH1 0x20 DUP1 DUP3 MSTORE DUP3 MLOAD DUP3 DUP3 ADD DUP2 SWAP1 MSTORE PUSH1 0x0 SWAP2 SWAP1 DUP5 DUP3 ADD SWAP1 PUSH1 0x40 DUP6 ADD SWAP1 DUP5 JUMPDEST DUP2 DUP2 LT ISZERO PUSH2 0x16E7 JUMPI DUP4 MLOAD PUSH1 0x1 PUSH1 0x1 PUSH1 0xA0 SHL SUB AND DUP4 MSTORE SWAP3 DUP5 ADD SWAP3 SWAP2 DUP5 ADD SWAP2 PUSH1 0x1 ADD PUSH2 0x16C2 JUMP JUMPDEST POP SWAP1 SWAP7 SWAP6 POP POP POP POP POP POP JUMP JUMPDEST PUSH4 0x4E487B71 PUSH1 0xE0 SHL PUSH1 0x0 MSTORE PUSH1 0x41 PUSH1 0x4 MSTORE PUSH1 0x24 PUSH1 0x0 REVERT JUMPDEST PUSH1 0x40 MLOAD PUSH1 0x1F DUP3 ADD PUSH1 0x1F NOT AND DUP2 ADD PUSH8 0xFFFFFFFFFFFFFFFF DUP2 GT DUP3 DUP3 LT OR ISZERO PUSH2 0x1732 JUMPI PUSH2 0x1732 PUSH2 0x16F3 JUMP JUMPDEST PUSH1 0x40 MSTORE SWAP2 SWAP1 POP JUMP JUMPDEST PUSH1 0x0 PUSH8 0xFFFFFFFFFFFFFFFF DUP3 GT ISZERO PUSH2 0x1754 JUMPI PUSH2 0x1754 PUSH2 0x16F3 JUMP JUMPDEST POP PUSH1 0x1F ADD PUSH1 0x1F NOT AND PUSH1 0x20 ADD SWAP1 JUMP JUMPDEST PUSH1 0x0 PUSH1 0x20 DUP3 DUP5 SUB SLT ISZERO PUSH2 0x1774 JUMPI PUSH1 0x0 DUP1 REVERT JUMPDEST DUP2 CALLDATALOAD PUSH8 0xFFFFFFFFFFFFFFFF DUP2 GT ISZERO PUSH2 0x178B JUMPI PUSH1 0x0 DUP1 REVERT JUMPDEST DUP3 ADD PUSH1 0x1F DUP2 ADD DUP5 SGT PUSH2 0x179C JUMPI PUSH1 0x0 DUP1 REVERT JUMPDEST DUP1 CALLDATALOAD PUSH2 0x17AF PUSH2 0x17AA DUP3 PUSH2 0x173A JUMP JUMPDEST PUSH2 0x1709 JUMP JUMPDEST DUP2 DUP2 MSTORE DUP6 PUSH1 0x20 DUP4 DUP6 ADD ADD GT ISZERO PUSH2 0x17C4 JUMPI PUSH1 0x0 DUP1 REVERT JUMPDEST DUP2 PUSH1 0x20 DUP5 ADD PUSH1 0x20 DUP4 ADD CALLDATACOPY PUSH1 0x0 SWAP2 DUP2 ADD PUSH1 0x20 ADD SWAP2 SWAP1 SWAP2 MSTORE SWAP5 SWAP4 POP POP POP POP JUMP JUMPDEST PUSH1 0x0 DUP1 PUSH1 0x40 DUP4 DUP6 SUB SLT ISZERO PUSH2 0x17F5 JUMPI PUSH1 0x0 DUP1 REVERT JUMPDEST PUSH2 0x17FE DUP4 PUSH2 0x1668 JUMP JUMPDEST SWAP2 POP PUSH2 0x180C PUSH1 0x20 DUP5 ADD PUSH2 0x1668 JUMP JUMPDEST SWAP1 POP SWAP3 POP SWAP3 SWAP1 POP JUMP JUMPDEST PUSH1 0x0 PUSH2 0x120 DUP3 ADD SWAP1 POP DUP3 MLOAD ISZERO ISZERO DUP3 MSTORE PUSH1 0x20 DUP4 ADD MLOAD PUSH1 0x20 DUP4 ADD MSTORE PUSH1 0x40 DUP4 ADD MLOAD PUSH1 0x40 DUP4 ADD MSTORE PUSH1 0x60 DUP4 ADD MLOAD PUSH1 0x60 DUP4 ADD MSTORE PUSH1 0x80 DUP4 ADD MLOAD PUSH1 0x80 DUP4 ADD MSTORE PUSH1 0xA0 DUP4 ADD MLOAD PUSH1 0xA0 DUP4 ADD MSTORE PUSH1 0xC0 DUP4 ADD MLOAD ISZERO ISZERO PUSH1 0xC0 DUP4 ADD MSTORE PUSH1 0xE0 DUP4 ADD MLOAD PUSH2 0x1875 PUSH1 0xE0 DUP5 ADD DUP3 ISZERO ISZERO SWAP1 MSTORE JUMP JUMPDEST POP PUSH2 0x100 SWAP3 DUP4 ADD MLOAD ISZERO ISZERO SWAP2 SWAP1 SWAP3 ADD MSTORE SWAP1 JUMP JUMPDEST PUSH1 0x0 DUP1 PUSH1 0x0 DUP1 PUSH1 0x0 PUSH1 0xA0 DUP7 DUP9 SUB SLT ISZERO PUSH2 0x189F JUMPI PUSH1 0x0 DUP1 REVERT JUMPDEST PUSH2 0x18A8 DUP7 PUSH2 0x1668 JUMP JUMPDEST SWAP8 PUSH1 0x20 DUP8 ADD CALLDATALOAD SWAP8 POP PUSH1 0x40 DUP8 ADD CALLDATALOAD SWAP7 PUSH1 0x60 DUP2 ADD CALLDATALOAD SWAP7 POP PUSH1 0x80 ADD CALLDATALOAD SWAP5 POP SWAP3 POP POP POP JUMP JUMPDEST PUSH1 0x0 DUP1 PUSH1 0x40 DUP4 DUP6 SUB SLT ISZERO PUSH2 0x18DC JUMPI PUSH1 0x0 DUP1 REVERT JUMPDEST PUSH2 0x18E5 DUP4 PUSH2 0x1668 JUMP JUMPDEST SWAP5 PUSH1 0x20 SWAP4 SWAP1 SWAP4 ADD CALLDATALOAD SWAP4 POP POP POP JUMP JUMPDEST DUP2 MLOAD PUSH1 0x1 PUSH1 0x1 PUSH1 0xA0 SHL SUB AND DUP2 MSTORE PUSH1 0x20 DUP1 DUP4 ADD MLOAD ISZERO ISZERO SWAP1 DUP3 ADD MSTORE PUSH1 0x40 DUP1 DUP4 ADD MLOAD ISZERO ISZERO SWAP1 DUP3 ADD MSTORE PUSH1 0x60 DUP1 DUP4 ADD MLOAD ISZERO ISZERO SWAP1 DUP3 ADD MSTORE PUSH1 0x80 DUP1 DUP4 ADD MLOAD PUSH2 0x100 DUP4 ADD SWAP2 PUSH2 0x193D SWAP1 DUP5 ADD DUP3 ISZERO ISZERO SWAP1 MSTORE JUMP JUMPDEST POP PUSH1 0xA0 DUP4 ADD MLOAD PUSH1 0xA0 DUP4 ADD MSTORE PUSH1 0xC0 DUP4 ADD MLOAD PUSH1 0xC0 DUP4 ADD MSTORE PUSH1 0xE0 DUP4 ADD MLOAD PUSH1 0xE0 DUP4 ADD MSTORE SWAP3 SWAP2 POP POP JUMP JUMPDEST PUSH1 0x0 DUP1 PUSH1 0x40 DUP4 DUP6 SUB SLT ISZERO PUSH2 0x1975 JUMPI PUSH1 0x0 DUP1 REVERT JUMPDEST PUSH2 0x197E DUP4 PUSH2 0x1668 JUMP JUMPDEST SWAP2 POP PUSH1 0x20 DUP4 ADD CALLDATALOAD DUP1 PUSH1 0xB SIGNEXTEND DUP2 EQ PUSH2 0x1994 JUMPI PUSH1 0x0 DUP1 REVERT JUMPDEST DUP1 SWAP2 POP POP SWAP3 POP SWAP3 SWAP1 POP JUMP JUMPDEST PUSH1 0x0 DUP1 PUSH1 0x40 DUP4 DUP6 SUB SLT ISZERO PUSH2 0x19B2 JUMPI PUSH1 0x0 DUP1 REVERT JUMPDEST DUP3 CALLDATALOAD PUSH1 0xFF DUP2 AND DUP2 EQ PUSH2 0x17FE JUMPI PUSH1 0x0 DUP1 REVERT JUMPDEST PUSH1 0x0 DUP1 PUSH1 0x0 PUSH1 0x60 DUP5 DUP7 SUB SLT ISZERO PUSH2 0x19D8 JUMPI PUSH1 0x0 DUP1 REVERT JUMPDEST PUSH2 0x19E1 DUP5 PUSH2 0x1668 JUMP JUMPDEST SWAP3 POP PUSH1 0x20 DUP5 ADD CALLDATALOAD SWAP2 POP PUSH2 0x19F6 PUSH1 0x40 DUP6 ADD PUSH2 0x1668 JUMP JUMPDEST SWAP1 POP SWAP3 POP SWAP3 POP SWAP3 JUMP JUMPDEST PUSH4 0x4E487B71 PUSH1 0xE0 SHL PUSH1 0x0 MSTORE PUSH1 0x32 PUSH1 0x4 MSTORE PUSH1 0x24 PUSH1 0x0 REVERT JUMPDEST PUSH4 0x4E487B71 PUSH1 0xE0 SHL PUSH1 0x0 MSTORE PUSH1 0x11 PUSH1 0x4 MSTORE PUSH1 0x24 PUSH1 0x0 REVERT JUMPDEST PUSH1 0x0 PUSH1 0x1 DUP3 ADD PUSH2 0x1A3D JUMPI PUSH2 0x1A3D PUSH2 0x1A15 JUMP JUMPDEST POP PUSH1 0x1 ADD SWAP1 JUMP JUMPDEST PUSH1 0x20 DUP1 DUP3 MSTORE DUP2 DUP2 ADD MSTORE PUSH32 0x4F776E61626C653A2063616C6C6572206973206E6F7420746865206F776E6572 PUSH1 0x40 DUP3 ADD MSTORE PUSH1 0x60 ADD SWAP1 JUMP JUMPDEST PUSH1 0x0 DUP3 NOT DUP3 GT ISZERO PUSH2 0x1A8C JUMPI PUSH2 0x1A8C PUSH2 0x1A15 JUMP JUMPDEST POP ADD SWAP1 JUMP JUMPDEST PUSH1 0x0 PUSH1 0x20 DUP3 DUP5 SUB SLT ISZERO PUSH2 0x1AA3 JUMPI PUSH1 0x0 DUP1 REVERT JUMPDEST DUP2 MLOAD DUP1 ISZERO ISZERO DUP2 EQ PUSH2 0x169F JUMPI PUSH1 0x0 DUP1 REVERT JUMPDEST PUSH1 0x0 DUP3 PUSH2 0x1AD0 JUMPI PUSH4 0x4E487B71 PUSH1 0xE0 SHL PUSH1 0x0 MSTORE PUSH1 0x12 PUSH1 0x4 MSTORE PUSH1 0x24 PUSH1 0x0 REVERT JUMPDEST POP DIV SWAP1 JUMP JUMPDEST PUSH1 0x0 JUMPDEST DUP4 DUP2 LT ISZERO PUSH2 0x1AF0 JUMPI DUP2 DUP2 ADD MLOAD DUP4 DUP3 ADD MSTORE PUSH1 0x20 ADD PUSH2 0x1AD8 JUMP JUMPDEST DUP4 DUP2 GT ISZERO PUSH2 0x1AFF JUMPI PUSH1 0x0 DUP5 DUP5 ADD MSTORE JUMPDEST POP POP POP POP JUMP JUMPDEST PUSH1 0x0 DUP2 MLOAD DUP1 DUP5 MSTORE PUSH2 0x1B1D DUP2 PUSH1 0x20 DUP7 ADD PUSH1 0x20 DUP7 ADD PUSH2 0x1AD5 JUMP JUMPDEST PUSH1 0x1F ADD PUSH1 0x1F NOT AND SWAP3 SWAP1 SWAP3 ADD PUSH1 0x20 ADD SWAP3 SWAP2 POP POP JUMP JUMPDEST PUSH1 0x1 PUSH1 0x1 PUSH1 0xA0 SHL SUB DUP6 DUP2 AND DUP3 MSTORE DUP5 AND PUSH1 0x20 DUP3 ADD MSTORE PUSH1 0xB DUP4 SWAP1 SIGNEXTEND PUSH1 0x40 DUP3 ADD MSTORE PUSH1 0x80 PUSH1 0x60 DUP3 ADD DUP2 SWAP1 MSTORE PUSH1 0x0 SWAP1 PUSH2 0x1B67 SWAP1 DUP4 ADD DUP5 PUSH2 0x1B05 JUMP JUMPDEST SWAP7 SWAP6 POP POP POP POP POP POP JUMP JUMPDEST PUSH1 0x1 PUSH1 0x1 PUSH1 0xA0 SHL SUB DUP4 AND DUP2 MSTORE PUSH1 0x60 PUSH1 0x20 DUP3 ADD DUP2 SWAP1 MSTORE PUSH1 0x0 SWAP1 PUSH2 0x1B95 SWAP1 DUP4 ADD DUP5 PUSH2 0x1B05 JUMP JUMPDEST DUP3 DUP2 SUB PUSH1 0x40 SWAP4 DUP5 ADD MSTORE PUSH1 0x2 DUP2 MSTORE PUSH2 0x60F PUSH1 0xF3 SHL PUSH1 0x20 DUP3 ADD MSTORE SWAP2 SWAP1 SWAP2 ADD SWAP4 SWAP3 POP POP POP JUMP JUMPDEST PUSH1 0x0 PUSH1 0x20 DUP3 DUP5 SUB SLT ISZERO PUSH2 0x1BCA JUMPI PUSH1 0x0 DUP1 REVERT JUMPDEST DUP2 MLOAD PUSH8 0xFFFFFFFFFFFFFFFF DUP2 GT ISZERO PUSH2 0x1BE1 JUMPI PUSH1 0x0 DUP1 REVERT JUMPDEST DUP3 ADD PUSH1 0x1F DUP2 ADD DUP5 SGT PUSH2 0x1BF2 JUMPI PUSH1 0x0 DUP1 REVERT JUMPDEST DUP1 MLOAD PUSH2 0x1C00 PUSH2 0x17AA DUP3 PUSH2 0x173A JUMP JUMPDEST DUP2 DUP2 MSTORE DUP6 PUSH1 0x20 DUP4 DUP6 ADD ADD GT ISZERO PUSH2 0x1C15 JUMPI PUSH1 0x0 DUP1 REVERT JUMPDEST PUSH2 0x12EB DUP3 PUSH1 0x20 DUP4 ADD PUSH1 0x20 DUP7 ADD PUSH2 0x1AD5 JUMP JUMPDEST PUSH1 0x1 PUSH1 0x1 PUSH1 0xA0 SHL SUB DUP6 DUP2 AND DUP3 MSTORE DUP5 DUP2 AND PUSH1 0x20 DUP4 ADD MSTORE DUP4 AND PUSH1 0x40 DUP3 ADD MSTORE PUSH1 0x80 PUSH1 0x60 DUP3 ADD DUP2 SWAP1 MSTORE PUSH1 0x0 SWAP1 PUSH2 0x1B67 SWAP1 DUP4 ADD DUP5 PUSH2 0x1B05 JUMP INVALID LOG2 PUSH5 0x6970667358 0x22 SLT KECCAK256 0xDD GT SWAP2 SWAP16 0xA8 SLOAD SWAP9 MSTORE 0xF9 0x1E 0xAB PUSH7 0xB0E9E0CD4DB060 0xE6 0xCB PUSH2 0x56DB PUSH9 0xF32B5A10E39FDC6473 PUSH16 0x6C634300080D00330000000000000000 ",
  "sha1": "d0a68ceb8ece29aa9c1ce9490920a62982bba5dc",
  "source": "// SPDX-License-Identifier: MIT\npragma solidity ^0.8.0;\n\nimport {IConstantFlowAgreementV1} from \"@superfluid/interfaces/agreements/IConstantFlowAgreementV1.sol\";\nimport {ISuperTokenFactory} from \"@superfluid/interfaces/superfluid/ISuperTokenFactory.sol\";\nimport {ISuperfluid, ISuperToken, ISuperApp, ISuperAgreement, SuperAppDefinitions} from \"@superfluid/interfaces/superfluid/ISuperfluid.sol\";\nimport {Ownable} from \"@openzeppelin/contracts/access/Ownable.sol\";\nimport {IPoolAddressesProvider} from \"../interfaces/IPoolAddressesProvider.sol\";\nimport {IPool} from \"../interfaces/IPool.sol\";\nimport {ITrustIDA} from \"../interfaces/ITrustIDA.sol\";\n\nimport {IERC20} from \"@openzeppelin/contracts/token/ERC20/IERC20.sol\";\n\ncontract TrustCFA is Ownable {\n    IConstantFlowAgreementV1 private _cfa;\n    ISuperfluid private _host;\n    ISuperToken private _acceptedToken;\n    ITrustIDA idaContract;\n\n    //assets to invest\n    mapping(string => address) public s_assetAddress;\n\n    struct Company {\n        address _address;\n        bool status;\n        bool payingInstram;\n        bool payingPeriodically;\n        bool payingOneTime; //If they have added a onetime Payment ie employee\n        uint256 totalPaying; //Total amount they are paying\n        uint256 totalperiodicPaid; //Total paid in periodic payments\n        uint256 streamStart; //@dev: tracks the time when the stream begins for accountability\n    }\n\n    // company to a onetime payment Id to an recipient address to amount\n    mapping(address => mapping(uint256 => mapping(address => uint256)))\n        public companyOneTimePayIdAddressAmount;\n\n    mapping(address => address[]) public s_companyEmployees;\n\n    mapping(address => Company) public s_companyInfo;\n\n    struct EmployeeInfo {\n        bool isActive;\n        uint256 monthlyIncome;\n        uint256 startTime;\n        uint256 paymentInterval;\n        uint256 endTime;\n        uint256 totalpaid;\n        bool isStreamed;\n        bool isPeriodic;\n        bool isOneTime;\n    }\n\n    mapping(address => address[]) employeeEmployers; //people paying an address\n\n    //addresses of people paid periodically\n    address[] private periodicEmployees;\n    //addresses of users paid in streams\n    address[] private streamEmployees;\n\n    //the total amount paid to one time users.\n    mapping(address => uint256) public oneTimeUserTotalPay;\n\n    //employer to employee to information\n    mapping(address => mapping(address => EmployeeInfo)) private s_employeeinfo;\n\n    address private investmentKeeper;\n\n    modifier onlyAdmin() {\n        require(msg.sender == owner());\n        _;\n    }\n\n    modifier onlyInvestmentKeeper() {\n        require(msg.sender == investmentKeeper);\n        _;\n    }\n\n    constructor(address host, address cfa) {\n        _host = ISuperfluid(host);\n        _cfa = IConstantFlowAgreementV1(cfa);\n    }\n\n    /**\n     * @notice add a compny to the platform\n     * @dev only callable by the contract admin\n     * @param _payType: the type of payment the company gives ie. Installments or stream\n     * @param _companyAddress: the address of the company\n     */\n    function _createCompany(uint8 _payType, address _companyAddress) external {\n        if (_payType == 0) {\n            s_companyInfo[_companyAddress] = Company(\n                _companyAddress,\n                true,\n                true,\n                false,\n                false,\n                0,\n                0,\n                0\n            );\n        }\n        if (_payType == 1) {\n            s_companyInfo[_companyAddress] = Company(\n                _companyAddress,\n                true,\n                false,\n                true,\n                false,\n                0,\n                0,\n                0\n            );\n        } else {\n            s_companyInfo[_companyAddress] = Company(\n                _companyAddress,\n                true,\n                false,\n                false,\n                true,\n                0,\n                0,\n                0\n            );\n        }\n    }\n\n    /**\n     * @notice add an employer to the platform\n     * @dev only callable by an active employer\n     * @param _employeeAddress: address of the employer\n     * @param _salary: the employee salary\n     * @param _paymentInterval: the interval to which the employee receives the pay\n     */\n    function _addemployee(\n        address _employeeAddress,\n        uint256 _salary,\n        uint256 _paymentInterval,\n        uint256 _endOfContract,\n        uint256 _payType\n    ) external {\n        Company storage company = s_companyInfo[msg.sender];\n        require(company.status == true, \"not active\");\n        if (_payType == 0) {\n            s_employeeinfo[msg.sender][_employeeAddress] = EmployeeInfo(\n                false,\n                _salary,\n                block.timestamp,\n                _paymentInterval,\n                _endOfContract,\n                uint256(0),\n                true,\n                false,\n                false\n            );\n            s_companyInfo[msg.sender].totalPaying += _salary;\n            s_companyEmployees[msg.sender].push(_employeeAddress);\n            streamEmployees.push(_employeeAddress);\n        }\n\n        if (_payType == 1) {\n            s_employeeinfo[msg.sender][_employeeAddress] = EmployeeInfo(\n                false,\n                _salary,\n                block.timestamp,\n                _paymentInterval,\n                _endOfContract,\n                uint256(0),\n                false,\n                true,\n                false\n            );\n            s_companyInfo[msg.sender].totalPaying += _salary;\n            s_companyEmployees[msg.sender].push(_employeeAddress);\n            periodicEmployees.push(_employeeAddress);\n        }\n        employeeEmployers[_employeeAddress].push(msg.sender);\n    }\n\n    function getEmployeeIndex(address _employee)\n        public\n        view\n        returns (uint256 index)\n    {\n        uint256 size = getTotalCompanyEmployees(msg.sender);\n        for (uint256 i = 0; i > size; i++) {\n            if (s_companyEmployees[msg.sender][i] == _employee) {\n                index = i;\n            }\n        }\n    }\n\n    function removeEmployee(address _employee) external {\n        //require(msg.sender == s_employeeinfo[][_employee].employer);\n        //uint256 indexToremove = getEmployeeIndex(_employee);\n        //uint256 size = getTotalCompanyEmployees(msg.sender) - 1;\n        s_employeeinfo[msg.sender][_employee] = EmployeeInfo(\n            false,\n            0,\n            0,\n            0,\n            0,\n            0,\n            false,\n            false,\n            false\n        );\n        //if (s_companyInfo[msg.sender].isPeriodic == true) {\n        //    //remove employee from IDA\n        //    idaContract.removeAddress(_employee);\n        //}\n        //if (indexToremove == size) {\n        //    s_companyEmployees[msg.sender].pop();\n        //} else {\n        //    s_companyEmployees[msg.sender][indexToremove] = s_companyEmployees[\n        //        msg.sender\n        //    ][size];\n        //    s_companyEmployees[msg.sender].pop();\n        //}\n    }\n\n    /*\n\n*/\n    function makePayment() external {\n        uint256 c_length = s_companyEmployees[msg.sender].length;\n        require(c_length > 0);\n        bool success = _acceptedToken.transferFrom(\n            msg.sender,\n            address(idaContract),\n            getTotalPaying(msg.sender)\n        );\n        if (!success) {\n            revert(\"transfer failed\");\n        }\n        for (uint256 i = 0; i < c_length; i++) {\n            address employee = s_companyEmployees[msg.sender][i];\n            idaContract._addAddressToIndex(msg.sender, employee);\n        }\n    }\n\n    //function makeOnetimebatchpayment(\n    //    address[] memory _recievers,\n    //    uint256[] memory _respectiveAmount,\n    //\n    //) external {\n    //\n    //}\n\n    function openStream(address _to, int96 _flowRate) external {\n        _createFlow(_to, _flowRate);\n    }\n\n    function closeStream(address _to) external {\n        _deleteFlow(address(this), _to);\n    }\n\n    function reduceFlow(address to, int96 flowRate) external {\n        _updateFlow(to, flowRate);\n    }\n\n    function _createFlow(address to, int96 flowRate) internal {\n        if (to == address(this) || to == address(0)) return;\n        _host.callAgreement(\n            _cfa,\n            abi.encodeWithSelector(\n                _cfa.createFlow.selector,\n                _acceptedToken,\n                to,\n                flowRate,\n                new bytes(0) // placeholder\n            ),\n            \"0x\"\n        );\n    }\n\n    function _updateFlow(address to, int96 flowRate) internal {\n        if (to == address(this) || to == address(0)) return;\n        _host.callAgreement(\n            _cfa,\n            abi.encodeWithSelector(\n                _cfa.updateFlow.selector,\n                _acceptedToken,\n                to,\n                flowRate,\n                new bytes(0) // placeholder\n            ),\n            \"0x\"\n        );\n    }\n\n    function _deleteFlow(address from, address to) internal {\n        _host.callAgreement(\n            _cfa,\n            abi.encodeWithSelector(\n                _cfa.deleteFlow.selector,\n                _acceptedToken,\n                from,\n                to,\n                new bytes(0) // placeholder\n            ),\n            \"0x\"\n        );\n    }\n\n    function addAdmin(address _keeper) external {\n        investmentKeeper = _keeper;\n    }\n\n    function addIdaContract(address _idaCon) external onlyOwner {\n        idaContract = ITrustIDA(_idaCon);\n    }\n\n    /*\n        @constanteen: call this function after conection to ascertain if its a company\n        @param: _companyAddress, the address connected on metamask\n    */\n    function isActiveCompany(address _companyAddress)\n        public\n        view\n        returns (bool)\n    {\n        return s_companyInfo[_companyAddress]._address != address(0);\n    }\n\n    function getEmployeeFlowRate(address _company, address _employee)\n        external\n        view\n        returns (int96)\n    {\n        uint256 salary = s_employeeinfo[_company][_employee].monthlyIncome;\n        uint256 _flowRate = salary / 30 days;\n        return toIint(_flowRate);\n    }\n\n    function toIint(uint256 number) private pure returns (int96) {\n        int256 number1 = int256(number);\n        return (int96(number1));\n    }\n\n    //total number of periodic employees\n    function getPeriodicEmployee() external view returns (uint256 len) {\n        len = periodicEmployees.length;\n    }\n\n    //Total people on playlist\n    function getTotalCompanyEmployees(address _company)\n        public\n        view\n        returns (uint256)\n    {\n        return s_companyEmployees[_company].length;\n    }\n\n    //The total Amount the company is paying\n    function getTotalPaying(address _company) public view returns (uint256) {\n        return s_companyInfo[_company].totalPaying;\n    }\n\n    /**\n     * @notice get an employer's infor\n     * @param _company: employee address\n     */\n    function viewCompanyInfo(address _company)\n        external\n        view\n        returns (Company memory)\n    {\n        return s_companyInfo[_company];\n    }\n\n    /**\n     * @notice get an employee's infor\n     * @param _employee: employee address\n     */\n    function viewEmployeeInfo(address _company, address _employee)\n        external\n        view\n        returns (EmployeeInfo memory)\n    {\n        return s_employeeinfo[_company][_employee];\n    }\n\n    function viewCompanyEmployees(address _company)\n        external\n        view\n        returns (address[] memory fullList)\n    {\n        fullList = s_companyEmployees[_company];\n    }\n\n    function getEmployeeEmployers(address _employee)\n        external\n        view\n        returns (address[] memory)\n    {\n        return employeeEmployers[_employee];\n    }\n}\n",
  "sourcePath": "contracts/TrustMain.sol",
  "type": "contract"
}